:020000040800F2
:10000000000002202D3F0008193D0008213D000896
:10001000293D0008313D0008393D0008000000007E
:10002000000000000000000000000000413D00084A
:100030004F3D0008000000005D3D00086B3D0008DA
:100040007D3F00087D3F00087D3F00087D3F0008A0
:100050007D3F00087D3F00087D3F00087D3F000890
:100060007D3F00087D3F00087D3F00087D3F000880
:100070007D3F00087D3F00087D3F00087D3F000870
:100080007D3F00087D3F00087D3F00080000000024
:100090000000000000000000000000007D3F00089C
:1000A0007D3F00087D3F00087D3F00087D3F000840
:1000B0007D3F00087D3F00087D3F00087D3F000830
:1000C0007D3F00087D3F00087D3F00087D3F000820
:1000D0007D3F0008793D00087D3F000800000000DA
:1000E0007D3F00087D3F00087D3F000800000000C4
:1000F0000000000000000000000000007D3F00083C
:10010000000000007D3F00087D3F00087D3F0008A3
:1001100000000000000000000000000000000000DF
:100120007D3F00087D3F00088D3D00087D3F0008B1
:100130007D3F0008000000000000000000000000FB
:10014000000000000000000000000000A13D0008C9
:100150007D3F00087D3F00087D3F00087D3F00088F
:100160007D3F00087D3F0008000000000000000007
:10017000000000000000000000000000000000007F
:10018000000000007D3F00080000000000000000AB
:080190007D3F00087D3F0008DF
:1001A00010B5054C237833B9044B13B10448AFF3B1
:1001B00000800123237010BDC80200200000000051
:1001C000C815010808B5034B1BB103490348AFF339
:1001D000008008BD00000000CC020020C815010806
:1001E00001F0FF01102A2BDB10F0070F08D010F8E8
:1001F000013B013A8B422DD010F0070F42B3F6D1EC
:10020000F0B441EA012141EA014122F007047FF004
:1002100000070023F0E80256083C85EA010586EA5B
:10022000010685FA47F5A3FA87F586FA47F6A5FA97
:1002300087F68EB9EED1F0BC01F0FF0102F00702A3
:1002400032B110F8013B013A83EA010313B1F8D14E
:100250000020704701387047002D06BF354603382F
:10026000073815F0010F07D1013015F4807F02BF68
:10027000013015F4C03F0130F0BC0138704700BFB9
:10028000034613F8012B002AFBD1181A01387047D6
:1002900081F0004102E000BF83F0004330B54FEA37
:1002A00041044FEA430594EA050F08BF90EA020FA4
:1002B0001FBF54EA000C55EA020C7FEA645C7FEA37
:1002C000655C00F0E2804FEA5454D4EB5555B8BF5A
:1002D0006D420CDD2C4480EA020281EA030382EACB
:1002E000000083EA010180EA020281EA0303362D5D
:1002F00088BF30BD11F0004F4FEA01314FF4801C30
:100300004CEA113102D0404261EB410113F0004F41
:100310004FEA03334CEA133302D0524263EB4303F8
:1003200094EA050F00F0A780A4F10104D5F1200E96
:100330000DDB02FA0EFC22FA05F2801841F10001F1
:1003400003FA0EF2801843FA05F359410EE0A5F1C5
:1003500020050EF1200E012A03FA0EFC28BF4CF0F6
:10036000020C43FA05F3C01851EBE37101F00045AC
:1003700007D54FF0000EDCF1000C7EEB00006EEBB9
:100380000101B1F5801F1BD3B1F5001F0CD3490843
:100390005FEA30004FEA3C0C04F101044FEA44529A
:1003A00012F5800F80F09A80BCF1004F08BF5FEA21
:1003B000500C50F1000041EB045141EA050130BD01
:1003C0005FEA4C0C404141EB0101013C28BFB1F513
:1003D000801FE9D291F0000F04BF01460020B1FA5E
:1003E00081F308BF2033A3F10B03B3F120020CDA31
:1003F0000C3208DD02F1140CC2F10C0201FA0CF00F
:1004000021FA02F10CE002F11402D8BFC2F1200C73
:1004100001FA02F120FA0CFCDCBF41EA0C01904029
:10042000E41AA2BF01EB0451294330BD6FEA040472
:100430001F3C1CDA0C340EDC04F11404C4F120025D
:1004400020FA04F001FA02F340EA030021FA04F36F
:1004500045EA030130BDC4F10C04C4F1200220FAC6
:1004600002F001FA04F340EA0300294630BD21FA04
:1004700004F0294630BD94F0000F83F4801306BFCA
:1004800081F480110134013D4EE77FEA645C18BFBE
:100490007FEA655C29D094EA050F08BF90EA020F55
:1004A00005D054EA000C04BF1946104630BD91EA4D
:1004B000030F1EBF0021002030BD5FEA545C05D150
:1004C0004000494128BF41F0004130BD14F580048F
:1004D0003CBF01F5801130BD01F0004545F0FE4103
:1004E00041F470014FF0000030BD7FEA645C1ABF38
:1004F000194610467FEA655C1CBF0B46024650EA6F
:10050000013406BF52EA033591EA030F41F400219A
:1005100030BD00BF90F0000F04BF0021704730B520
:100520004FF4806404F132044FF000054FF00001F5
:1005300050E700BF90F0000F04BF0021704730B5B6
:100540004FF4806404F1320410F0004548BF40428B
:100550004FF000013EE700BF42004FEAE2014FEAE0
:1005600031014FEA02701FBF12F07F4393F07F4FBB
:1005700081F06051704732F07F4208BF704793F0BE
:100580007F4F04BF41F40021704730B54FF46074D1
:1005900001F0004521F000411CE700BF50EA0102D4
:1005A00008BF704730B54FF000050AE050EA01027D
:1005B00008BF704730B511F0004502D5404261EBED
:1005C00041014FF4806404F132045FEA915C3FF42E
:1005D000D8AE4FF003025FEADC0C18BF03325FEACB
:1005E000DC0C18BF033202EBDC02C2F1200300FA7C
:1005F00003FC20FA02F001FA03FE40EA0E0021FAA1
:1006000002F11444BDE600BF70B54FF0FF0C4CF48E
:10061000E06C1CEA11541DBF1CEA135594EA0C0F40
:1006200095EA0C0F00F0DEF82C4481EA030621EA7B
:100630004C5123EA4C5350EA013518BF52EA0335B6
:1006400041F4801143F4801338D0A0FB02CE4FF068
:100650000005E1FB02E506F00042E0FB03E54FF098
:100660000006E1FB03569CF0000F18BF4EF0010E90
:10067000A4F1FF04B6F5007F64F5407404D25FEA8C
:100680004E0E6D4146EB060642EAC62141EA55513F
:100690004FEAC52040EA5E504FEACE2EB4F1FD0C81
:1006A00088BFBCF5E06F1ED8BEF1004F08BF5FEAFF
:1006B000500E50F1000041EB045170BD06F00046B1
:1006C00046EA010140EA020081EA0301B4EB5C045E
:1006D000C2BFD4EB0C0541EA045170BD41F4801156
:1006E0004FF0000E013C00F3AB8014F1360FDEBF7B
:1006F000002001F0004170BDC4F10004203C35DA57
:100700000C341BDC04F11404C4F1200500FA05F3D9
:1007100020FA04F001FA05F240EA020001F000427A
:1007200021F0004110EBD37021FA04F642EB0601F0
:100730005EEA430E08BF20EAD37070BDC4F10C041A
:10074000C4F1200500FA04F320FA05F001FA04F2DE
:1007500040EA020001F0004110EBD37041F10001CA
:100760005EEA430E08BF20EAD37070BDC4F12005D5
:1007700000FA05F24EEA020E20FA04F301FA05F23D
:1007800043EA020321FA04F001F0004121FA04F2E5
:1007900020EA020000EBD3705EEA430E08BF20EAB5
:1007A000D37070BD94F0000F0FD101F000464000EF
:1007B00041EB010111F4801F08BF013CF7D041EA71
:1007C000060195F0000F18BF704703F00046520075
:1007D00043EB030313F4801F08BF013DF7D043EA46
:1007E0000603704794EA0C0F0CEA135518BF95EAFC
:1007F0000C0F0CD050EA410618BF52EA4306D1D183
:1008000081EA030101F000414FF0000070BD50EAA1
:10081000410606BF1046194652EA430619D094EA2B
:100820000C0F02D150EA013613D195EA0C0F05D115
:1008300052EA03361CBF104619460AD181EA030169
:1008400001F0004141F0FE4141F470014FF0000021
:1008500070BD41F0FE4141F4780170BD70B54FF0BC
:10086000FF0C4CF4E06C1CEA11541DBF1CEA13553C
:1008700094EA0C0F95EA0C0F00F0A7F8A4EB05041E
:1008800081EA030E52EA03354FEA013100F0888015
:100890004FEA03334FF0805545EA131343EA1263DE
:1008A0004FEA022245EA111545EA10654FEA002693
:1008B0000EF000419D4208BF964244F1FD0404F54C
:1008C000407402D25B084FEA3202B61A65EB0305A8
:1008D0005B084FEA32024FF480104FF4002CB6EB65
:1008E000020E75EB030E22BFB61A754640EA0C00E5
:1008F0005B084FEA3202B6EB020E75EB030E22BF25
:10090000B61A754640EA5C005B084FEA3202B6EB65
:10091000020E75EB030E22BFB61A754640EA9C0024
:100920005B084FEA3202B6EB020E75EB030E22BFF4
:10093000B61A754640EADC0055EA060E18D04FEAB2
:10094000051545EA16754FEA06164FEAC30343EA52
:1009500052734FEAC2025FEA1C1CC0D111F4801F1F
:100960000BD141EA00014FF000004FF0004CB6E718
:1009700011F4801F04BF01430020B4F1FD0C88BFB7
:10098000BCF5E06F3FF6AFAEB5EB030C04BFB6EBC2
:10099000020C5FEA500C50F1000041EB045170BDB5
:1009A0000EF0004E4EEA113114EB5C04C2BFD4EBE2
:1009B0000C0541EA045170BD41F480114FF0000E66
:1009C000013C90E645EA060E8DE60CEA135594EAE2
:1009D0000C0F08BF95EA0C0F3FF43BAF94EA0C0FE5
:1009E0000AD150EA01347FF434AF95EA0C0F7FF45A
:1009F00025AF104619462CE795EA0C0F06D152EAAE
:100A000003353FF4FDAE1046194622E750EA410691
:100A100018BF52EA43067FF4C5AE50EA41047FF4A2
:100A20000DAF52EA43057FF4EBAE12E74FF0FF3C07
:100A300006E000BF4FF0010C02E000BF4FF0010CD8
:100A40004DF804CD4FEA410C7FEA6C5C4FEA430C51
:100A500018BF7FEA6C5C1BD001B050EA410C0CBFA0
:100A600052EA430C91EA030F02BF90EA020F002002
:100A7000704710F1000F91EA030F58BF994208BF69
:100A800090422CBFD8176FEAE37040F00100704726
:100A90004FEA410C7FEA6C5C02D150EA013C07D17D
:100AA0004FEA430C7FEA6C5CD6D152EA033CD3D0C8
:100AB0005DF8040B704700BF8446104662468C46C2
:100AC0001946634600E000BF01B5FFF7B7FF0028F5
:100AD00048BF10F1000F01BD4DF808EDFFF7F4FF1E
:100AE0000CBF012000205DF808FB00BF4DF808EDA9
:100AF000FFF7EAFF34BF012000205DF808FB00BFCC
:100B00004DF808EDFFF7E0FF94BF012000205DF8ED
:100B100008FB00BF4DF808EDFFF7CEFF94BF0120A2
:100B200000205DF808FB00BF4DF808EDFFF7C4FF9B
:100B300034BF012000205DF808FB00BF4FEA410CE4
:100B40007FEA6C5C02D150EA013C0AD14FEA430CC7
:100B50007FEA6C5C02D152EA033C02D14FF0000004
:100B600070474FF0010070474FEA410212F5001242
:100B700015D211D56FF47873B3EB625212D94FEAE4
:100B8000C12343F0004343EA505311F0004F23FACE
:100B900002F018BF404270474FF00000704750EA23
:100BA000013005D111F0004008BF6FF000407047E0
:100BB0004FF00000704700BF4A0011D212F500123A
:100BC00011D20DD56FF47873B3EB62520ED44FEAA5
:100BD000C12343F0004343EA505323FA02F0704725
:100BE0004FF00000704750EA013002D14FF0FF3063
:100BF00070474FF0000070474FEA4102B2F1E04306
:100C000024BFB3F5001CDCF1FE5C0DD901F0004CF3
:100C10004FEAC0024CEA5070B2F1004F40EB830043
:100C200008BF20F00100704711F0804F21D113F16F
:100C30003872BCBF01F00040704741F480114FEAA8
:100C40005252C2F11802C2F1200C10FA0CF320FA31
:100C500002F018BF40F001004FEAC1234FEAD3234E
:100C600003FA0CFC40EA0C0023FA02F34FEA4303B8
:100C7000CCE77FEA625307D150EA01331EBF4FF041
:100C8000FE4040F44000704701F0004040F0FE405C
:100C900040F40000704700BF7BB972B90029BEBFA5
:100CA00000204FF0004106E008BF00281CBF6FF095
:100CB00000414FF0FF3000F009BAADF1080C6DE9CA
:100CC00004CE002909DB002B1ADB00F083F8DDF8E5
:100CD00004E0DDE9022304B07047404261EB4101CA
:100CE000002B1BDB00F076F8DDF804E0DDE90223E1
:100CF00004B0404261EB4101524263EB4303704751
:100D0000524263EB430300F065F8DDF804E0DDE9EF
:100D1000022304B0404261EB41017047524263EB51
:100D2000430300F057F8DDF804E0DDE9022304B0E6
:100D3000524263EB4303704753B94AB9002908BFD5
:100D400000281CBF4FF0FF314FF0FF3000F0BEB95C
:100D5000ADF1080C6DE904CE00F03CF8DDF804E0DC
:100D6000DDE9022304B0704738B5002200230446B1
:100D70000D46FFF7BBFE28B920462946BDE838409E
:100D800000F00AB8204605F1004100F005F84042A5
:100D900061EB410138BD00BFD0B50C4B00220646C7
:100DA0000F46FFF731FCFFF707FF0446FFF7B2FBE2
:100DB000074B0022FFF728FC02460B463046394617
:100DC000FFF76AFAFFF7F8FE2146D0BD0000F03DBC
:100DD0000000F0412DE9F047089D8E460446884604
:100DE000002B4AD18A42174662D9B2FA82F64EB136
:100DF000C6F1200301FA06F820FA03F3B74043EAEC
:100E00000808B4404FEA174E1FFA87FCB8FBFEF102
:100E1000230C0EFB118843EA084301FB0CF29A42B3
:100E200009D9FB1801F1FF3080F0EA809A4240F2C4
:100E3000E78002393B449A1AA3B2B2FBFEF00EFBE4
:100E4000102243EA024300FB0CFC9C4509D9FB1825
:100E500000F1FF3280F0D6809C4540F2D3803B44C5
:100E6000023840EA0140A3EB0C0300211DB1F3401E
:100E70000022C5E90032BDE8F0878B4205D90DB1EB
:100E8000C5E9000100210846F5E7B3FA83F100291E
:100E900046D1734502D3824200F20581841A6EEB7B
:100EA000030201209046002DE5D0C5E90048E2E7A5
:100EB000002A00F09080B2FA82F6002E40F0A48062
:100EC0008A1A030C4FEA174E80B2BCB20121B2FB62
:100ED000FEFC0EFB1C2243EA024304FB0CF29A4286
:100EE00007D9FB180CF1FF3802D29A4200F2E080D9
:100EF000C4469B1AB3FBFEF20EFB123340EA0343D7
:100F000002FB04F49C4207D9FB1802F1FF3002D225
:100F10009C4200F2CA8002461B1B42EA0C40A5E735
:100F2000C1F120068B4022FA06F71F430EFA01F4A6
:100F300020FA06F32EFA06FE4FEA1749234300FA79
:100F400001F81FFA87FCBEFBF9F01C0C09FB10EE40
:100F500044EA0E4400FB0CFEA64502FA01F209D950
:100F60003C1900F1FF3A80F09C80A64540F2998040
:100F700002383C44A4EB0E041FFA83FEB4FBF9F3E1
:100F800009FB13444EEA044403FB0CFCA44508D9B6
:100F90003C1903F1FF3E80F08280A4457FD9023BDB
:100FA0003C4443EA0040A4EB0C04A0FB02EC644583
:100FB0007346E14662D35FD05DB1B8EB030264EBE8
:100FC000090404FA06F622FA01F31E43CC40C5E9EF
:100FD000006400214FE7B1FBF2FC010C41EA0E4135
:100FE00080B240EA01423B4638463C46B846BE46DF
:100FF0002026B1FBF7F1A2EB080241EA0C4166E7BB
:10100000014618E710462CE7C6F120022EFA02F33B
:10101000B740B14020FA02F24FEA174E0A43B3FB41
:10102000FEF8BCB20EFB1833110C41EA034108FB79
:1010300004F9B04089454FEA104380B23ED979188F
:1010400008F1FF3C01D289451FD8A1EB0901B1FB92
:10105000FEF909FB04F80EFB191192B242EA0142B3
:10106000424529D2BA1809F1FF31C4D24245C2D251
:10107000A9F102013A44BEE7F0459DD2BEEB02035E
:101080006CEB070C0138E14696E7A7EB09094944E8
:10109000A8F1020CB1FBFEF909FB04F8DBE773468B
:1010A0007FE7504666E70846FDE63B44023A33E7F1
:1010B000ACF1020C3B441CE749469CE7A1EB09015B
:1010C000C446B1FBFEF909FB04F8C4E7704700BF52
:1010D00080B582B000AF78607B6858687B681B89F8
:1010E0000022194603F07AFE00BF0837BD4680BDD6
:1010F00080B582B000AF78607B6858687B681B89D8
:101100000122194603F06AFE00BF0837BD4680BDC4
:1011100080B584B000AF78600B46FB701346BB709F
:10112000FB7803F07F03DBB23B73BB787B7378689B
:10113000FFF7CEFF7B68186807F10C014FF0FF3313
:10114000022205F0B2FD0346FB737868FFF7D0FF7B
:10115000FB7B18461037BD4680BD80B586B000AF1A
:10116000F8607A601A460B46FB7213463B81FB7AA5
:1011700063F07F03DBB2BB75F868FFF7A9FFFB687C
:10118000186807F116014FF0FF33012205F08DFDBD
:101190000346FB75FB7D002B09D1FB6818683A8973
:1011A0004FF0FF33796805F0C4FE0346FB75F8681D
:1011B000FFF79EFFFB7D18461837BD4680BD80B502
:1011C00086B000AFF860B9607A607B802822002189
:1011D000F8680DF065F9FB68BA681A60FB687A6810
:1011E0005A60FB687A881A817B88012219467868E0
:1011F00003F0F4FD0023BB7507F116031946F868E8
:1012000000F057F80346FB75FB7D002B01D0FB7DFA
:1012100012E0BB7D582B01D001230DE0F86800F0EF
:101220000FF80346FB75FB7D002B01D0FB7D03E02F
:10123000F86800F04EF8034618461837BD4680BDE2
:1012400080B586B000AF7860B622E0217868FFF7FD
:101250005FFF0346FB75FB7D002B01D0FB7D24E087
:10126000042002F0FFFE02F0F1FE38610023FB7360
:1012700007F10F020123F3217868FFF76EFF0346A1
:10128000002B01D0012310E0FB7B03F00103002BB6
:1012900007D002F0DBFE02463B69D31A142B02D8BA
:1012A000E4E700BF00E000BF002318461837BD4642
:1012B00080BD80B582B000AF7860396001233A68A4
:1012C000D0217868FFF749FF034618460837BD4626
:1012D00080BD80B58AB000AF786007F10C0218239A
:1012E00088217868FFF739FF034687F8273097F899
:1012F0002730002B02D097F827307EE07B7B1BB293
:101300001B021AB23B7B1BB213431BB29AB27B681F
:101310005A81FB7B1BB21B021AB2BB7B1BB213436D
:101320001AB27B689A817B7C1BB21B021AB23B7C8F
:101330001BB213431AB27B68DA81FB7C1BB21B021F
:101340001AB2BB7C1BB213431BB29AB27B681A82DF
:101350007B7D1BB21B021AB23B7D1BB213431AB238
:101360007B685A82FB7D1BB21B021AB2BB7D1BB28B
:1013700013431AB27B689A827B7E1BB21B021AB29D
:101380003B7E1BB213431AB27B68DA82FB7E1BB230
:101390001B021AB2BB7E1BB213431AB27B681A83BC
:1013A0007B7F1BB21B021AB23B7F1BB213431AB2E4
:1013B0007B685A83FB7F1BB21B021AB2BB7F1BB236
:1013C00013431AB27B689A8397F821301BB21B0231
:1013D0001AB297F820301BB213431AB27B68DA8333
:1013E00097F823301BB21B021AB297F822301BB2B7
:1013F00013431AB27B681A84002318462837BD4667
:1014000080BD80B584B000AF7860084611461A46AA
:101410000346FB700B46BB7013467B7097F9033095
:101420005B015AB297F902309B005BB203F01C03D8
:101430005BB213435BB2DBB27A78002A01D001229F
:1014400000E000221343FB73FB7B1A46F52178680A
:10145000FFF75EFE034618461037BD4680BD80B5D7
:1014600084B000AF7860084611461A460346FB7008
:101470000B46BB7013467B7097F903305B015AB281
:1014800097F902309B005BB203F01C035BB213437D
:101490005AB297F9013003F003035BB213435BB216
:1014A000FB73FB7B1A46F4217868FFF731FE034695
:1014B00018461037BD4680BD80B58AB000AFF860D1
:1014C000B9607A6007F114020623F721F868FFF784
:1014D00044FE034687F8273097F82730002B02D0C8
:1014E00097F8273024E03B7D1A037B7D1B011A43CC
:1014F000BB7D1B09DBB203F00F0313433B62FB7D93
:101500001A033B7E1B011A437B7E1B09DBB203F0EF
:101510000F031343FB617B68002B02D07B683A6AA0
:101520001A60BB68002B02D0BB68FA691A600023FE
:1015300018462837BD4680BD80B487B000AF7860BC
:1015400039603B68DA107B685B895B00D31A7A6884
:10155000B2F90C2002FB03F3DB127B613B681B1129
:101560007A6852899B1A3A68121179684989521A25
:1015700002FB03F31B137A68B2F90E2002FB03F39C
:101580009B133B617A693B691A447B685A627B68AA
:101590005A6A13469B00134480331B12FB60FB689E
:1015A00018461C37BD465DF8047B70472DE9B04FE7
:1015B000CAB000AFC7F80C01C7F80811D7F80C3152
:1015C0005B6ADA171C461546B4F5FA3A45F1FF3B5B
:1015D000C7E948ABD7F82421D7F8203103FB02F143
:1015E000D7F82421D7F8203102FB03F3CA18D7F823
:1015F0002031A3FB038902EB09039946D7F80C318C
:10160000B3F91A301BB2DA17C7F8B830C7F8BC20E4
:10161000D7E92E01034603FB09F20B4608FB03F34F
:1016200013440246A8FB0212C7F8C4200A46C7F8B2
:10163000C020D7F8C4201344C7F8C430D7E93034E9
:10164000C7E94634C7E94634D7F80C31B3F9183046
:101650001BB2DA17C7F8B030C7F8B420D7F820317A
:10166000D7E92C452A4602FB03F2D7F8243121465C
:1016700001FB03F31A44D7F820312146A3FB0113E1
:10168000C7F804310B46C7F80031D7F80431D31836
:10169000C7F804314FF000004FF00001D7E9404592
:1016A0002B465904234641EAD33123465804D7E94F
:1016B000462314183C644B417B64D7E91034C7E9D6
:1016C0004634D7F80C31B3F916301BB2DA17C7F825
:1016D000A830C7F8AC204FF000004FF00001D7F859
:1016E000A830D9000020D7E946231418BC634B4129
:1016F000FB63D7E90E34C7E94634D7F82421D7F87D
:10170000203103FB02F1D7F82421D7F8203102FB66
:1017100003F3CA18D7F82031A3FB0313C7F8FC3032
:101720000B46C7F8F830D7F8FC30D318C7F8FC30B0
:10173000D7F80C31B3F914301BB2DA17C7F8A03060
:10174000C7F8A420D7E93E452B46D7E92889424669
:1017500002FB03F24B46214601FB03F313442246EE
:101760004146A2FB0112C7F8F4200A46C7F8F02050
:10177000D7F8F4201344C7F8F4304FF000004FF0CE
:101780000001D7E93C452346180A2B4640EA03608E
:101790002B461912D7F80C31B3F912301BB2DA17F5
:1017A000C7F89830C7F89C20D7F82031D7E92689A8
:1017B0004A4602FB03F2D7F82431444604FB03F304
:1017C0001A44D7F820314446A3FB0443C7F8EC3051
:1017D0002346C7F8E830D7F8EC30D318C7F8EC3018
:1017E0004FF000024FF00003D7E93A894C4623033B
:1017F000444643EA14534446220384183C6341EBB5
:1018000003037B63D7E90C34C7E94834D7E948239D
:1018100003F50041C7F89410C7F89020D7F80C31B1
:101820001B8A9BB20022C7F88830C7F88C20D7E902
:1018300024452B46D7E92289424602FB03F24B4658
:10184000214601FB03F3134422464146A2FB011249
:10185000C7F8E4200A46C7F8E020D7F8E42013448C
:10186000C7F8E4304FF000024FF00003D7E93845E5
:1018700029464A102946CB17C7E94823D7E9482308
:10188000134301D1002348E1D7F80831C3F5801391
:10189000DA17BB62FA62D7E90A34C7E94434D7F8E9
:1018A00010315B10C7F88430D7F81031DB07C7F868
:1018B0008030D7E94623D7E920452146891AB96700
:1018C000294661EB0303FB67D7E91E4522462B46F9
:1018D000911839625B417B62D7E908232146511890
:1018E000B96129464B41FB614FF000024FF0000304
:1018F000D7E9068949468B01414643EA916341464F
:101900008A01414689183961494643EB01017961F1
:101910004FF000024FF00003D7E9048949468B00DD
:10192000414643EA917341468A00104619460346F0
:1019300022469B18BB600B462A4642EB0303FB6022
:101940004FF000024FF00003D7E9028949468B00AF
:10195000414643EA917341468A00104619460346C0
:1019600022469B183B672B460A4642EB03037B67E4
:10197000D7E94823D7E91C01FFF78EF902460B4649
:10198000C7E94423D7F80C31B3F920301BB2DA177A
:10199000BB66FA66D7E944234FF000004FF0000120
:1019A000500B40EAC3405913D7E91A452B4600FBB8
:1019B00003F2234603FB01F313442246A2FB001269
:1019C000C7F8DC200A46C7F8D820D7F8DC20134433
:1019D000C7F8DC30D7E944234FF000004FF0000196
:1019E000500B40EAC3405913D7E936452B4600FB5C
:1019F00003F2234603FB01F313442246A2FB001229
:101A0000C7F8D4200A46C7F8D020D7F8D42013440A
:101A1000C7F8D4304FF000024FF00003D7E9344547
:101A200021464A0E294642EAC11229464B16C7E909
:101A30004823D7F80C31B3F91E301BB2DA173B66D6
:101A40007A66D7F81031D7E918452A4602FB03F227
:101A5000D7F81431214601FB03F31344D7F81021C2
:101A60002146A2FB0112C7F8CC200A46C7F8C820BD
:101A7000D7F8CC201344C7F8CC304FF000024FF019
:101A80000003D7E932452146CA0C294642EA4132D1
:101A90002946CB14C7E94623D7E94401D7E94823AF
:101AA0008418BC6541EB0303FB65D7E94623D7E9FE
:101AB0001645214689183965294643EB01017965A8
:101AC0004FF000004FF00001D7E914452346180AF3
:101AD0002B4640EA03602B461912D7F80C31B3F9B4
:101AE0001C301BB2DA17BB64FA644FF000024FF0EF
:101AF0000003D7E912894C462301444643EA147394
:101B00004446220184183C6041EB03037B60D7E923
:101B10000034C7E94434D7F81031184607F59477F4
:101B2000BD46BDE8B08F000080B588B000AFF8605A
:101B3000B9607A6007F1100207F114031946F868DA
:101B4000FFF7BAFC0346002B01D001232AE07B6992
:101B50001946F868FFF7F0FCF8613B691946F86828
:101B6000FFF724FDB861BB68002B0BD0FB6907EEC3
:101B7000903AB8EEE77ADFED0D6AC7EE267ABB68D9
:101B8000C3ED007A7B68002B0BD0BB6907EE903A5F
:101B9000B8EE677ADFED066AC7EE267A7B68C3ED9A
:101BA000007A002318462037BD4680BD0000C84299
:101BB0000000804380B483B000AF0346FB80FB8805
:101BC00001339BB2C3F308039BB218460C37BD46E2
:101BD0005DF8047B704780B584B000AF78600B4639
:101BE000FB707B68B3F806319BB21846FFF7E2FF43
:101BF0000346FB817B68B3F808319BB2FA899A42AD
:101C00000DD07B68B3F806319BB21A467B6813444B
:101C1000FA7883F80A217B68FA89A3F8062100BFC5
:101C20001037BD4680BD80B582B000AF78603960A6
:101C30007B68B3F808319AB27B68B3F806319BB27F
:101C40009A4201D1002317E07B68B3F808319BB2B8
:101C50001A467B68134493F80A213B681A707B6824
:101C6000B3F808319BB21846FFF7A4FF03461A46A3
:101C70007B68A3F80821012318460837BD4680BDBC
:101C800080B483B000AF0346FB71FB792F2B05D9DD
:101C9000FB79392B02D8FB79303B13E0FB79402BE1
:101CA00005D9FB79462B02D8FB79373B0AE0FB7953
:101CB000602B05D9FB79662B02D8FB79573B01E0F5
:101CC0004FF0FF3318460C37BD465DF8047B704774
:101CD00080B485B000AF78600023FB737B6801336C
:101CE000BB6007E0BB681A78FB7B5340FB73BB68A3
:101CF0000133BB60BB681B78002B03D0BB681B782B
:101D00002A2BEFD1FB7B18461437BD465DF8047BC8
:101D1000704780B588B000AFF860B9607A60FB6842
:101D2000002B06D0FB681B68002B02D0BB68002B81
:101D300001D100233EE0FB681B687B612C217869A0
:101D40000CF0B6FBF861FB69002B04D12A217869FD
:101D50000CF0AEFBF861FB69002B06D17869FEF749
:101D60008FFA02467B691344FB61FA697B69D31AD7
:101D7000BB61BA697B689A4202D37B68013BBB6155
:101D8000BA697969B8680CF040FCBA68BB69134459
:101D900000221A70FB691B782C2B02D1FB690133DE
:101DA00000E0FB69FA681360BB69002B14BF0123D4
:101DB0000023DBB218462037BD4680BD2DE9B04375
:101DC0008AB000AF786039607B68002B08D03B6830
:101DD000002B05D07868FEF753FA0346032B04D88E
:101DE0004FF000024FF000035AE078680AF05EFE00
:101DF00087ED060B4FF000024FF00003D7E9060114
:101E0000FEF76AFE0346002B04D04FF000024FF0AD
:101E1000000345E04FF00002264BD7E90601FEF72C
:101E20001DFD02460B4610461946FEF79DFE034671
:101E30007B617B69642202FB03F31846FEF77AFBA1
:101E400002460B46D7E90601FEF726FA02460B4684
:101E5000C7E902237869FEF76DFB804689464FF09B
:101E60000002154BD7E90201FEF7F8FC02460B46CB
:101E700040464946FEF712FA02460B46C7E90823D8
:101E80003B681B78532B03D03B681B78572B05D13D
:101E90003C6A7B6A83F00045C7E90845D7E9082317
:101EA00043EC172BB0EE470AF0EE670A2837BD4621
:101EB000BDE8B0830000594000004E4080B598B0A6
:101EC00000AF786039602C2138680CF0F1FA0346D5
:101ED0007B657B6D002B01D1002334E17B6D0133E9
:101EE0007B657B6803F56473FB6507F1340107F1DB
:101EF000540320221846FFF70CFF0346002B3DD069
:101F000007F134031846FEF7BBF90346052B35D914
:101F100097F83430303BDBB21A46920013445B0032
:101F2000DAB297F835301344DBB2303BDAB2FB6DEE
:101F300083F8242097F83630303BDBB21A46920003
:101F400013445B00DAB297F837301344DBB2303B0E
:101F5000DAB2FB6D83F8252097F83830303BDBB2DE
:101F60001A46920013445B00DAB297F839301344F2
:101F7000DBB2303BDAB2FB6D83F8262007F1340187
:101F800007F1540320221846FFF7C3FE97F83430B8
:101F9000412B0CBF0123002387F85B3007F124019C
:101FA00007F1540310221846FFF7B3FE07F1200192
:101FB00007F1540304221846FFF7ABFE97F85B3095
:101FC000002B0ED007F1200207F12403114618461A
:101FD000FFF7F4FEB0EE407AF0EE607AFB6D83ED31
:101FE000027B07F1100107F1540310221846FFF796
:101FF00090FE07F10C0107F1540304221846FFF785
:1020000088FE97F85B30002B0ED007F10C0207F129
:10201000100311461846FFF7D1FEB0EE407AF0EEFD
:10202000607AFB6D83ED047B07F1340107F1540303
:1020300020221846FFF76DFE97F85B30002B0DD07D
:1020400007F1340318460AF031FD53EC102B10460B
:102050001946FEF7D1FD0246FB6DDA6107F1340146
:1020600007F1540320221846FFF753FE97F85B3020
:10207000002B0DD007F1340318460AF017FD53EC7E
:10208000102B10461946FEF7B7FD0246FB6D1A628B
:1020900007F1340107F1540320221846FFF739FEF7
:1020A0000346002B4AD007F134031846FEF7E8F840
:1020B0000346052B42D997F83430303BDBB21A4641
:1020C000920013445B00DAB297F835301344DBB268
:1020D000303BDAB2FB6D83F8272097F83630303B7F
:1020E000DBB21A46920013445B00DAB297F837303D
:1020F0001344DBB2303BDAB2FB6D83F8282097F84B
:102100003830303BDBB21A46920013445B00DAB23F
:1021100097F839301344DBB2303BDAB2FB6D83F809
:102120002920FB6D93F829304F2B07D8FB6D93F8CE
:1021300029306433DAB2FB6D83F82920FB6D97F800
:102140005B201A70012318466037BD4680BD80B5FC
:102150008CB000AF786039602C2138680CF0A8F999
:102160000346BB62BB6A002B01D100237DE0BB6A42
:102170000133BB627B6803F56473FB6207F10801FE
:1021800007F1280320221846FFF7C3FD07F10801D5
:1021900007F1280320221846FFF7BBFD07F10801CD
:1021A00007F1280320221846FFF7B3FD07F10801C5
:1021B00007F1280320221846FFF7ABFD07F10801BD
:1021C00007F1280320221846FFF7A3FD07F10801B5
:1021D00007F1280320221846FFF79BFD07F10803AB
:1021E00018460AF066FC0346DAB2FB6A5A7007F139
:1021F000080107F1280320221846FFF78AFD07F19E
:10220000080318460AF055FC0346DAB2FB6A9A70D6
:1022100007F1080107F1280320221846FFF779FD8E
:1022200007F1080318460AF041FC53EC102B104646
:102230001946FEF7E1FC0246FB6A5A6007F1080105
:1022400007F1280320221846FFF763FD07F1080372
:1022500018460AF02BFC53EC102B10461946FEF7DB
:10226000CBFC0246FB6A9A61012318463037BD4613
:1022700080BD000080B584B000AF78600B467B80E5
:10228000244B1B68002B40D0224B1B681B687A68CC
:102290009A423AD11F4B1B6893F8E83383F001034D
:1022A000DBB2002B31D17B88002B2ED01A4B1B6860
:1022B0000133194A1360174B1868164B1B68053316
:1022C0007A88194600F06EF9124B1B6805334FF4FB
:1022D00080721946786805F081FA0346FB73FB7B30
:1022E000002B07D0F97B7B685B6C1A460B480BF020
:1022F0008FFF0BE07B68DB6B1B681A687B68DB6B0E
:102300001B6822F008021A6000E000BF1037BD46CB
:1023100080BD00BFEC020020E4020020E0150108AF
:1023200090B583B000AF7860164B1B68002B24D0AB
:10233000144B1B681B687A689A421ED17B685C6CE0
:10234000786805F06DFD03461A4621460E480BF0ED
:102350005FFF0C4B1B6805334FF480721946786899
:1023600005F03CFA7B68DB6B1B681A687B68DB6BEB
:102370001B6822F008021A6000E000BF0C37BD465F
:1023800090BD00BFEC02002014160108B0B584B067
:1023900000AFF860B9603B601346FB71FB68002B2F
:1023A00076D04FF47C720021F8680CF079F8FB6865
:1023B000BA681A60FB68FA791A713B68002B28D05A
:1023C000FB683A6803F5727415460FCD0FC495E8A3
:1023D0000F0084E80F00FB68D3F8C833002B09D046
:1023E000FB68D3F8C803FB68B3F8CC330122194665
:1023F00002F0F4FCFB68D3F8D033002B09D0FB6863
:10240000D3F8D003FB68B3F8D4330022194602F0A6
:10241000E5FCFB680022A3F80621FB680022A3F874
:102420000821FB680022A3F88A23FB68002283F8B6
:102430009023FB68002283F89123FB68002283F835
:102440009223FB684FF00002C3F89423F9684FF021
:1024500000024FF00003C1E9E623F9684FF00002E3
:102460004FF00003C1E9E823FB684FF00002C3F816
:10247000A823FB684FF00002C3F8AC23FB684FF0C1
:102480000002C3F8B023FB68002283F8E82300E0D1
:1024900000BF1037BD46B0BD80B584B000AF7860D6
:1024A0007B68002B03D07B681B68002B04D1374866
:1024B0000BF016FF012364E07B681B68DB6B002BCD
:1024C00004D133480BF00CFF01235AE07B681968F4
:1024D0007B681B68DB6B1A462E480BF099FE7B6805
:1024E0000022A3F806217B680022A3F808217B685C
:1024F0000022A3F88A237B68012283F8E823264A76
:102500007B6813600023BB607B681B681B681B68CB
:10251000BB607B681B681B685B68BB60BB687B68D3
:102520001B6800225A647B6818687B6805334FF487
:102530008072194605F052F90346FB73FB7B002BB2
:102540000DD0F97B7B681B685B6C1A4613480BF057
:102550005FFE7B68002283F8E823FB7B11E07B6849
:102560001B68DB6B1B681A687B681B68DB6B1B686E
:1025700022F008021A604FF4807109480BF048FEFF
:10258000002318461037BD4680BD00BF3C16010829
:1025900068160108AC160108EC020020CC160108F0
:1025A0000017010880B586B000AFF860B960134627
:1025B000FB80FB68002B1BD0BB68002B18D0FA886F
:1025C0000D4B1B6813440C4A13600023FB820AE086
:1025D000FB8ABA6813441B781946F868FFF7FBFAC0
:1025E000FB8A0133FB82FA8AFB889A42F0D300E02F
:1025F00000BF1837BD4680BDE802002080B588B016
:1026000000AF78607B68002B00F0CF80C2E07B7B5E
:102610000D2B00F0BC807B68B3F88A337E2B03D986
:102620007B680022A3F88A237B7B0A2B0ED07B6871
:10263000B3F88A335A1C91B27A68A2F88A13194601
:102640007A7B7B680B4483F80A23A3E07B68B3F8AA
:102650008A33002B00F09D807B68B3F88A331A46DA
:102660007B681344002283F80A237B6803F20A3351
:10267000FB61FB691B78242B04D07B680022A3F844
:102680008A2387E02A21F8690BF031FFB861BB6922
:10269000002B05D0B869FDF7F3FD0346022B04D8E3
:1026A0007B680022A3F88A2374E0BB6901331B789E
:1026B0001846FFF7E5FA7861BB6902331B781846C4
:1026C000FFF7DEFA38617B69002B02DB3B69002BE8
:1026D00004DA7B680022A3F88A235BE07B695BB2A3
:1026E0001B015AB23B695BB213435BB2FB73F869DF
:1026F000FFF7EEFA0346BB73FA7BBB7B9A420AD024
:10270000FB7BBA7B19462B480BF082FD7B680022CD
:10271000A3F88A233EE07B68D3F8C033002B04D0B3
:102720007B68D3F8C033F8699847FB690333032209
:10273000214918460BF0C9FE0346002B14D1F96954
:102740007868FFF7BBFB0346002B1BD07B68D3F8F0
:10275000C433002B16D07B68D3F8C4337A6802F5F3
:102760006472104698470DE0FB6903330322134956
:1027700018460BF0AAFE0346002B03D1F9697868CE
:10278000FFF7E5FC7B680022A3F88A2302E000BF84
:1027900000E000BF07F10D0319467868FFF743FA20
:1027A0000346002B7FF433AF00E000BF2037BD4667
:1027B00080BD00BF2C1701085C17010860170108D5
:1027C00080B500AF00224FF48051024802F006FBB2
:1027D00000BF80BD0004024080B500AF01224FF46D
:1027E0008051024802F0FAFA00BF80BD00040240A6
:1027F00080B483B000AF78607B681B781BB21B028B
:102800001AB27B6801331B781BB213431BB2184604
:102810000C37BD465DF8047B7047000080B584B07E
:1028200000AF0346FB71FB79042B19D801A252F8C3
:1028300023F000BF492800084F2800085528000849
:10284000612800085B2800080023BB730AE01023FE
:10285000BB7307E02023BB7304E04023BB7301E09C
:1028600001231BE076237B73FFF7AAFF07F10D011D
:10287000322301220B4804F018FA0346FB73FB7B5A
:10288000002B08D107F10E0132230122054804F084
:102890000CFA0346FB73FFF79FFFFB7B18461037CC
:1028A000BD4680BD4803002080B584B000AF03461C
:1028B000FB710B46BB7113467B71FB791846FFF722
:1028C000ADFF0346FB73FB7B002B01D0FB7B1DE0C0
:1028D000BB7903F07F03DBB2BB73FFF771FF07F136
:1028E0000E01322301220B4804F0DFF90346FB738B
:1028F000FB7B002B07D1791D32230122054804F010
:10290000D4F90346FB73FFF767FFFB7B18461037CC
:10291000BD4680BD4803002080B584B000AF0346AB
:102920003A60FB710B46BB71FB791846FFF776FFE7
:102930000346FB73FB7B002B01D0FB7B1DE0BB79C7
:1029400063F07F03DBB2BB73FFF73AFF07F10E01C1
:10295000322301220B4804F0A8F90346FB73FB7BEA
:10296000002B07D1322301223968064804F0E1FA2E
:102970000346FB73FFF730FFFB7B18461037BD465D
:1029800080BD00BF4803002080B586B000AFBA60AC
:102990007B600346FB730B46BB737B68002B02D046
:1029A000BB68002B01D1002329E0FB7B1846FFF711
:1029B00035FF0346FB75FB7D002B01D0FB7D1EE040
:1029C000BB7B63F07F03DBB2BB75FFF7F9FE07F15A
:1029D0001601322301220C4804F067F90346FB7507
:1029E000FB7D002B08D17B689AB23223B968064878
:1029F00004F09FFA0346FB75FFF7EEFEFB7D1846D9
:102A00001837BD4680BD00BF4803002080B582B0A6
:102A100000AFFFF7D5FE012211210020FFF744FF90
:102A20000346FB71FB79002B01D0FB7905E00A20FE
:102A300001F018FBFFF7D0FE002318460837BD460B
:102A400080BD80B584B000AF03460A46FB711346D3
:102A5000BB7197F907305B015AB297F9063003F062
:102A60000F035BB213435BB2DBB2BB73BB7B1A4693
:102A700050210020FFF718FF0346FB73FB7B002B60
:102A800001D0FB7B70E007F10E031A464E210020B7
:102A9000FFF742FF0346FB73FB7B002B01D0FB7B60
:102AA00062E0BB7B5BB243F003035BB2DBB2BB73A0
:102AB000BB7B1A464E210020FFF7F6FE0346FB7350
:102AC000FB7B002B01D0FB7B4EE0012001F0CAFA1A
:102AD00007F10E031A4653210020FFF71DFF03469E
:102AE000FB73FB7B002B01D0FB7B3DE0BB7B23F02A
:102AF0001803DBB243F00803DBB2BB73BB7B1A469F
:102B000053210020FFF7D0FE0346FB73FB7B002B15
:102B100001D0FB7B28E007F10E031A46522100206A
:102B2000FFF7FAFE0346FB73FB7B002B01D0FB7B18
:102B30001AE0BB7B5BB203F00F035BB243F06003B0
:102B40005BB2DBB2BB73BB7B1A4652210020FFF79E
:102B5000ABFE0346FB73FB7B002B01D0FB7B03E04A
:102B6000052001F07FFA002318461037BD4680BDCE
:102B700080B584B000AF03460A46FB711346BB71B3
:102B800097F907305B015AB297F9063003F00F034B
:102B90005BB213435BB2DBB2BB73BB7B1A464F2104
:102BA0000020FFF781FE0346FB73FB7B002B01D067
:102BB000FB7B6EE007F10E031A464E210020FFF763
:102BC000ABFE0346FB73FB7B002B01D0FB7B60E07D
:102BD000BB7B5BB243F00C035BB2DBB2BB73BB7B72
:102BE0001A464E210020FFF75FFE0346FB73FB7B76
:102BF000002B01D0FB7B4CE0012001F033FA07F100
:102C00000E031A4651210020FFF786FE0346FB7390
:102C1000FB7B002B01D0FB7B3BE0BB7B23F00C0359
:102C2000DBB243F00403DBB2BB73BB7B1A4651211A
:102C30000020FFF739FE0346FB73FB7B002B01D01E
:102C4000FB7B26E007F10E031A4652210020FFF716
:102C500063FE0346FB73FB7B002B01D0FB7B18E07C
:102C6000BB7B23F00F03DBB243F00603DBB2BB7385
:102C7000BB7B1A4652210020FFF716FE0346FB736A
:102C8000FB7B002B01D0FB7B03E0052001F0EAF980
:102C9000002318461037BD4680BD90B585B000AF03
:102CA000786007F1080206231F210020FFF76CFE61
:102CB0000346FB73FB7B002B01D0FB7B1DE007F180
:102CC00008031846FFF794FD03461A467B681A80EE
:102CD0007B689C1C07F1080302331846FFF788FD48
:102CE000034623807B681C1D07F108030433184644
:102CF000FFF77EFD03462380002318461437BD46A8
:102D000090BD90B585B000AF786007F1080206234A
:102D100025210020FFF738FE0346FB73FB7B002BC9
:102D200001D0FB7B1DE007F108031846FFF760FDAB
:102D300003461A467B681A807B689C1C07F10803CF
:102D400002331846FFF754FD034623807B681C1DA1
:102D500007F1080304331846FFF74AFD03462380B2
:102D6000002318461437BD4690BD000080B500AF63
:102D700000221021024802F031F800BF80BD00BFE0
:102D80000000024080B500AF01221021024802F08D
:102D900025F800BF80BD00BF0000024080B588B0AC
:102DA00002AF78609F233B610023FB60FFF7DEFFEB
:102DB00007F10C0207F110016423009304230E486D
:102DC00004F0D0F90346FB75FFF7DCFFFB7D002B19
:102DD00001D0FB7D0BE07A7B7B681A707B68013346
:102DE000BA7B1A707B680233FA7B1A70002318468C
:102DF0001837BD4680BD00BFF002002080B584B00A
:102E000000AF87ED010AC7ED000AD7ED016A97ED23
:102E1000007AC6EE877AC7ED037ADFED0A0A97EDEE
:102E2000030A0DF077FEF0EE407AB7EE007A77EE07
:102E3000677A9FED057A67EE877AB0EE670A1037FA
:102E4000BD4680BD01DE423E002A2D4780B582B0DE
:102E500000AF7860796803480BF0DAF900BF0837F3
:102E6000BD4680BD701701082DE9B04388B006AF9C
:102E700078607B681B78002B57D07B6893F82430F0
:102E800018467B6893F825301C467B6893F82630FB
:102E90001D467B6893F827301A467B6893F82830E4
:102EA00019467B6893F829300293019100922B46D2
:102EB0002246014621480BF0ABF97B68D3E9028931
:102EC0007B68D3E904457B689B691846FDF744FBA2
:102ED00002460B46CDE90223CDE9004542464B466A
:102EE00017480BF095F97B68DB691846FDF734FB52
:102EF000804689467B681B6A1846FDF72DFB044611
:102F00000D467B685B681846FDF726FB02460B46BC
:102F1000796889780491CDE90223CDE900454246DC
:102F20004B4608480BF074F902E007480BF0D8F95B
:102F300000BF0837BD46BDE8B08300BF7817010861
:102F4000A4170108CC1701080818010800000000A8
:102F50002DE9B0432DED028BA0B004AF01F010F8C5
:102F600000F09EFA00F01AFC00F0F8FB00F000FB05
:102F700000F034FB00F068FB00F0C6FB09F086F8B7
:102F800000F098FB01224FF40041784801F026FF41
:102F900000F07AFC764B774ADA63764B744A9A6390
:102FA00000220521252001F05CF9252001F075F9AA
:102FB00071480BF095F907F11C031846FFF7EEFE78
:102FC0000346002B14D13B7F19467B7F1A46BB7FFB
:102FD0006A480BF01DF90221644801F018FF4FF414
:102FE0007A7001F03FF80221604801F010FF02E022
:102FF00063480BF075F907F11B031A467521002091
:10300000FFF78AFC034687F84F3097F84F30002BC4
:103010001AD1FB7E422B11D1FB7E194659480BF089
:10302000F7F80221514801F0F2FE4FF4FA7001F076
:1030300019F802214D4801F0EAFE0BE0FB7E19462B
:1030400051480BF0E5F805E097F84F3019464F4826
:103050000BF0DEF8FFF7DAFC06210320FFF7F1FCA6
:1030600006210020FFF784FD002301224049484843
:10307000FFF78CF9464B474AC3F8C023444B464AF6
:10308000C3F8C4234248FFF707FA034687F84E30D7
:1030900097F84E10364BDA6B354B5B6C3F480BF0B4
:1030A000B7F897F84E30002B0FD097F84E301946EE
:1030B0003B480BF0ADF83B480BF012F93A480BF0E7
:1030C0000FF93A480BF00CF902E039480BF008F917
:1030D00000237B650023BB6400237B6400233B64E7
:1030E00000F0B4FF386500F0B1FFF86300F0AEFF08
:1030F000B86330480BF0F4F800F0C6FB2448FFF743
:103100007DFA00F0A3FF02467B6DD31AB3F57A7FF8
:1031100061D900F09BFF7865274B1968264B1A6828
:10312000264B1B68D01A264B1C68254B1A68254B6A
:103130001B68D31A00932346024623480BF068F815
:103140001D4B1B681D4A13601D4B1B681D4A1360F5
:103150000F4B93F89033002B3AD00D4B93F89233EA
:1031600019461A480BF054F835E000BF0000024041
:10317000F8030020880400201C1801082818010802
:10318000401801085418010874180108A81801080B
:10319000100500204D2E0008692E0008D8180108DF
:1031A0001019010828190108541901087819010893
:1031B000A0190108D0190108E4020020000900202C
:1031C000E802002004090020E0190108181A01088B
:1031D000A9480BF085F807F114031846FFF75DFDC9
:1031E0000346002B2FD1B7F9143007EE903AB8EE12
:1031F000E77ADFEDA26AC7EE267A9FEDA17A67EE45
:10320000877AC7ED1B7AB7F9163007EE903AB8EE19
:10321000E77ADFED9A6AC7EE267A9FED997A67EE34
:10322000877AC7ED1A7AB7F9183007EE903AB8EEF8
:10323000E77ADFED926AC7EE267A9FED917A67EE24
:10324000877AC7ED197A07F10C031846FFF759FD85
:103250000346002B23D1B7F90C3007EE903AB8EEB5
:10326000E77ADFED886AC7EE267AC7ED187AB7F9F4
:103270000E3007EE903AB8EEE77ADFED826AC7EEDD
:10328000267AC7ED177AB7F9103007EE903AB8EE04
:10329000E77ADFED7C6AC7EE267AC7ED167AB7F9D2
:1032A000143007EE903AB8EEE77ADFED746AC7EEB5
:1032B000267AC7ED0D7AB7F9163007EE903AB8EED8
:1032C000E77ADFED6E6AC7EE267AC7ED0C7AB7F9BA
:1032D000183007EE903AB8EEE77ADFED686AC7EE8D
:1032E000267AC7ED0B7AD7ED0D7AB1EE678AD7ED66
:1032F0000C7A27EEA77AD7ED0B7A67EEA77A77EEEE
:10330000277AB0EE670A0DF05DFCF0EE407AF0EE41
:10331000670AB0EE480A0DF0FBFB10EE103A1846B3
:10332000FDF71AF952A3D3E90023FDF76DF9024620
:103330000B4610461946FDF75FFC0346BB62D7ED0E
:103340000B0A97ED0C0A0DF0E3FB10EE103A18464D
:10335000FDF702F946A3D3E90023FDF755F902462C
:103360000B4610461946FDF747FC03467B62F86E94
:10337000FDF7F2F880468946B86EFDF7EDF8044691
:103380000D46786EFDF7E8F802460B46CDE90223BC
:10339000CDE9004542464B463B480AF039FF386EBE
:1033A000FDF7DAF880468946F86DFDF7D5F8044652
:1033B0000D46B86DFDF7D0F802460B46CDE9022365
:1033C000CDE9004542464B4630480AF021FFB86A35
:1033D000FDF7C2F804460D46786AFDF7BDF80246CF
:1033E0000B46CDE9002322462B4629480AF010FF60
:1033F0004FF47A7000F036FE00F028FE02463B6D76
:10340000D31A002BFFF67AAE3B6DC8333B653A1DED
:1034100007F1080319461F48FEF786FB0346002BF9
:103420007FF46CAED7ED017ADFED1B0AB0EE670AD0
:10343000FFF7E4FC87ED080ABB681846FDF78CF837
:10344000804689467B681846FDF786F804460D4697
:10345000386AFDF781F802460B46CDE90223CDE933
:10346000004542464B460D480AF0D2FE46E600BFF4
:10347000F8C1631ADCA54C40441A010800008046DC
:103480000AE81C4133338341701A0108981A010875
:10349000C01A0108E804002080E6C547E81A0108C0
:1034A00080B594B000AF07F1200330220021184608
:1034B0000AF0F6FF07F10C0300221A605A609A60C6
:1034C000DA601A610023BB60274B1B6C264A43F06D
:1034D00080531364244B1B6C03F08053BB60BB68A8
:1034E00000237B60214B1B68204A43F44043136058
:1034F0001E4B1B6803F440437B607B6801233B62E7
:103500004FF480337B620223BB634FF48003FB6381
:1035100006233B6448237B640223BB640323FB64D0
:1035200007F12003184602F0DFFE0346002B01D00E
:1035300000F0E6F90F23FB6002233B6100237B616F
:103540004FF48053BB610023FB6107F10C030221A0
:10355000184603F041F90346002B01D000F0D0F9E2
:1035600000BF5037BD4680BD0038024000700040AB
:1035700080B500AF174B184A1A60164B4FF4827291
:103580005A60144B00229A60124B0022DA60114BF1
:1035900000221A610F4B00225A610E4B4FF4007249
:1035A0009A610C4B2022DA610A4B00221A62094B05
:1035B00000225A62074B00229A62064B0A22DA6204
:1035C000044803F0E9FA0346002B01D000F098F913
:1035D00000BF80BDF00200200030014080B500AF88
:1035E000174B184A1A60164B4FF482725A60144BEC
:1035F00000229A60124B0022DA60114B00221A61FD
:103600000F4B00225A610E4B4FF400729A610C4B23
:103610000022DA610A4B00221A62094B00225A6228
:10362000074B00229A62064B0A22DA62044803F032
:10363000B3FA0346002B01D000F062F900BF80BD51
:10364000480300200038004080B500AF174B184AEF
:103650001A60164B4FF482725A60144B00229A6023
:10366000124B0022DA60114B00221A610F4B00222C
:103670005A610E4B4FF400729A610C4B0022DA61D2
:103680000A4B00221A62094B00225A62074B0022A1
:103690009A62064B0A22DA62044803F07DFA034676
:1036A000002B01D000F02CF900BF80BDA00300204A
:1036B000003C004080B500AF114B124A1A60104B1D
:1036C0004FF416525A600E4B00229A600C4B0022A7
:1036D000DA600B4B00221A61094B0C225A61084B2D
:1036E00000229A61064B0022DA61054804F026F8B0
:1036F0000346002B01D000F003F900BF80BD00BFDE
:10370000F80300200010014080B500AF114B124AB1
:103710001A60104B4FF4E1325A600E4B00229A604F
:103720000C4B0022DA600B4B00221A61094B0C2271
:103730005A61084B00229A61064B0022DA61054863
:1037400003F0FCFF0346002B01D000F0D9F800BFC6
:1037500080BD00BF400400200044004080B582B01E
:1037600000AF00237B600C4B1B6B0B4A43F48003C0
:103770001363094B1B6B03F480037B607B6800229F
:1037800000213A2000F06DFD3A2000F086FD00BFD8
:103790000837BD4680BD00BF0038024080B588B004
:1037A00000AF07F10C0300221A605A609A60DA60D9
:1037B0001A61012248F21001304801F00FFB01228A
:1037C0004FF480512E4801F009FB0023BB602D4BC4
:1037D0001B6B2C4A43F0800313632A4B1B6B03F0D3
:1037E0008003BB60BB6800237B60264B1B6B254AB4
:1037F00043F001031363234B1B6B03F001037B6056
:103800007B6800233B601F4B1B6B1E4A43F0020387
:1038100013631C4B1B6B03F002033B603B680022ED
:1038200048F21201154801F0D9FA00224FF48051F4
:10383000134801F0D3FA48F21203FB6001233B6105
:1038400000237B610023BB6107F10C0319460B4881
:1038500001F040F94FF48053FB6001233B610023EA
:103860007B610023BB6107F10C031946044801F09A
:1038700031F900BF2037BD4680BD00BF00000240C7
:10388000000402400038024080B584B000AF4FF41D
:103890000043174A17491848FDF791FC0346002BCF
:1038A00001D000F02DF80023022202211248FDF77A
:1038B000A8FD0323032201210F48FDF7D0FD3A1D87
:1038C00007F1080319460C48FEF72EF90346002BB2
:1038D00009D1D7ED017ADFED090AB0EE670AFFF7EB
:1038E0008DFA87ED030A00BF1037BD4680BD00BFCB
:1038F00000000240A0030020E804002080E6C54745
:1039000080B400AF72B600BF00BFFDE780B584B0E1
:1039100000AF78600B467B8015E07B88402B28BF8A
:103920004023FB8100BFFB891946786808F06CFCD6
:103930000346012BF7D0FB897A6813447B607A88B1
:10394000FB89D31A7B807B88002BE6D100231846A5
:103950001037BD4680BD000080B586B000AFF8606E
:10396000B9607A6000237B6100233B612DE03B69F5
:10397000BA6813441B780A2B10D17B697D2B07DDB5
:103980007B699BB219461A48FFF7C0FF00237B6191
:103990007B695A1C7A61164A0D21D1547B697E2BB2
:1039A00007DD7B699BB219461148FFF7AFFF002383
:1039B0007B613B69BA681A447B69591C796111784B
:1039C0000B4AD1543B6901333B613A697B689A42A7
:1039D000CDDB7B69002B05D07B699BB2194604487F
:1039E000FFF794FF7B6818461837BD4680BD00BFBF
:1039F0000809002080B483B000AF00237B60104B27
:103A00005B6C0F4A43F4804353640D4B5B6C03F4CF
:103A100080437B607B6800233B60094B1B6C084A3A
:103A200043F080531364064B1B6C03F080533B60E0
:103A30003B6800BF0C37BD465DF8047B704700BF94
:103A40000038024080B58EB000AF786007F12403E3
:103A500000221A605A609A60DA601A617B681B68FB
:103A60004B4A93422CD100233B624A4B5B6C494A40
:103A700043F480535364474B5B6C03F480533B62C5
:103A80003B6A0023FB61434B1B6B424A43F001033B
:103A90001363404B1B6B03F00103FB61FB69E023E5
:103AA0007B620223BB620023FB6203233B6305238B
:103AB0007B6307F124031946374801F00BF863E0F4
:103AC0007B681B68354A93422DD10023BB61314B83
:103AD0001B6C304A43F4804313642E4B1B6C03F47D
:103AE0008043BB61BB6900237B612A4B1B6B294A66
:103AF00043F002031363274B1B6B03F002037B614C
:103B00007B694FF460437B620223BB620023FB624C
:103B100003233B6305237B6307F1240319462048F5
:103B200000F0D8FF30E07B681B681E4A93422BD11F
:103B300000233B61174B1B6C164A43F4004313648C
:103B4000144B1B6C03F400433B613B690023FB6097
:103B5000104B1B6B0F4A43F0020313630D4B1B6B9F
:103B600003F00203FB60FB6838237B620223BB6225
:103B70000023FB6203233B6306237B6307F12403DB
:103B80001946074800F0A6FF00BF3837BD4680BD84
:103B90000030014000380240000002400038004080
:103BA00000040240003C004080B58CB000AF78605B
:103BB00007F11C0300221A605A609A60DA601A61E9
:103BC0007B681B684D4A934263D10023BB614C4B19
:103BD0005B6C4B4A43F010035364494B5B6C03F03E
:103BE0001003BB61BB6900237B61454B1B6B444ADF
:103BF00043F002031363424B1B6B03F002037B6130
:103C00007B69C023FB6102233B6200237B620323A9
:103C1000BB620723FB6207F11C031946394800F019
:103C200059FF394B394A1A60374B4FF000625A60DE
:103C3000354B00229A60344B0022DA60324B4FF44D
:103C400080621A61304B00225A612F4B00229A6128
:103C50002D4B0022DA612C4B4FF480321A622A4B32
:103C600000225A62284800F033FB0346002B01D0A3
:103C7000FFF746FE7B68244ADA63234A7B68936336
:103C800000220021252000F0ECFA252000F005FBA1
:103C900030E07B681B681E4A93422BD100233B61B6
:103CA000174B1B6C164A43F400331364144B1B6C04
:103CB00003F400333B613B690023FB60104B1B6B3B
:103CC0000F4A43F0010313630D4B1B6B03F0010319
:103CD000FB60FB680C23FB6102233B6200237B62D9
:103CE0000323BB620723FB6207F11C031946094843
:103CF00000F0F0FE00BF3037BD4680BD001001402F
:103D00000038024000040240880400204064024061
:103D1000004400400000024080B400AF00BFFDE757
:103D200080B400AF00BFFDE780B400AF00BFFDE787
:103D300080B400AF00BFFDE780B400AF00BFFDE777
:103D400080B400AF00BFBD465DF8047B704780B40F
:103D500000AF00BFBD465DF8047B704780B400AF84
:103D600000BFBD465DF8047B704780B500AF00F032
:103D700059F900BF80BD000080B500AF024803F0D4
:103D800087FD00BF80BD00BFF803002080B500AFF5
:103D9000024800F035FC00BF80BD00BF8804002051
:103DA00080B500AF024801F090F900BF80BD00BFB0
:103DB000701E002080B400AF01231846BD465DF898
:103DC000047B704780B582B000AF786039600AF03C
:103DD000EFFB034616221A604FF0FF3318460837F0
:103DE000BD4680BD80B582B000AF78604FF0FF3136
:103DF0007868FFF7E7FF00BFFDE780B586B000AF4A
:103E0000F860B9607A6000237B610AE0AFF300805C
:103E10000146BB685A1CBA60CAB21A707B6901338A
:103E20007B617A697B689A42F0DB7B6818461837B9
:103E3000BD4680BD80B483B000AF78604FF0FF33E3
:103E400018460C37BD465DF8047B704780B483B0DC
:103E500000AF786039603B684FF400525A6000232D
:103E600018460C37BD465DF8047B704780B483B0BC
:103E700000AF7860012318460C37BD465DF8047B1F
:103E8000704780B485B000AFF860B9607A600023F5
:103E900018461437BD465DF8047B704780B586B080
:103EA00000AF7860144A154BD31A7B617B693B6184
:103EB000134B1B68002B02D1114B124A1A60104B96
:103EC0001A687B6813443A699A4207D20AF070FB79
:103ED00003460C221A604FF0FF3309E0084B1B68C1
:103EE000FB60074B1A687B681344054A1360FB6844
:103EF00018461837BD4680BD0000022000040000AF
:103F000088090020C026002080B400AF064BD3F8FB
:103F10008830054A43F47003C2F8883000BFBD46BC
:103F20005DF8047B704700BF00ED00E0DFF834D09F
:103F3000FFF7EAFF0C480D490D4A002302E0D45870
:103F4000C4500433C4188C42F9D30A4A0A4C0023E3
:103F500001E013600432A242FBD30AF02FFBFEF70C
:103F6000F7FF70470000022000000020C40200207C
:103F700000200108C8020020C0260020FEE7000043
:103F800080B500AF0E4B1B680D4A43F400731360FD
:103F90000B4B1B680A4A43F480631360084B1B6891
:103FA000074A43F480731360032000F04FF90F2099
:103FB00000F008F8FFF71EFD0023184680BD00BF83
:103FC000003C024080B582B000AF7860124B1A68A6
:103FD000124B1B7819464FF47A73B3FBF1F3B2FB23
:103FE000F3F3184600F067F90346002B01D00123D4
:103FF0000EE07B680F2B0AD8002279684FF0FF3063
:1040000000F02FF9064A7B681360002300E00123CB
:1040100018460837BD4680BD00000020080000207B
:104020000400002080B400AF064B1B781A46064BF4
:104030001B681344044A136000BFBD465DF8047B4F
:10404000704700BF080000208C09002080B400AF3A
:10405000034B1B681846BD465DF8047B704700BFE4
:104060008C09002080B584B000AF7860FFF7EEFFC8
:10407000B8607B68FB60FB68B3F1FF3F05D00A4B7B
:104080001B781A46FB681344FB6000BFFFF7DEFF96
:104090000246BB68D31AFA689A42F7D800BF00BF3D
:1040A0001037BD4680BD00BF0800002080B485B039
:1040B00000AF78607B6803F00703FB600C4BDB68A4
:1040C000BB60BA684FF6FF031340BB60FB681A027F
:1040D000BB68134343F0BF6343F40033BB60044A3F
:1040E000BB68D36000BF1437BD465DF8047B7047E2
:1040F00000ED00E080B400AF044BDB681B0A03F066
:1041000007031846BD465DF8047B704700ED00E0EC
:1041100080B483B000AF0346FB7197F90730002BE2
:104120000BDBFB7903F01F02074997F907305B09A6
:10413000012000FA02F241F8232000BF0C37BD46EF
:104140005DF8047B704700BF00E100E080B483B0FD
:1041500000AF03463960FB7197F90730002B0ADB8B
:104160003B68DAB20C4997F907301201D2B20B441E
:1041700083F800230AE03B68DAB20849FB7903F0D0
:104180000F03043B1201D2B20B441A7600BF0C3766
:10419000BD465DF8047B704700E100E000ED00E003
:1041A00080B489B000AFF860B9607A60FB6803F052
:1041B0000703FB61FB69C3F10703042B28BF04233A
:1041C000BB61FB690433062B02D9FB69033B00E0AA
:1041D00000237B614FF0FF32BB6902FA03F3DA433D
:1041E000BB681A407B699A404FF0FF317B6901FA46
:1041F00003F3D9437B680B40134318462437BD466D
:104200005DF8047B7047000080B582B000AF786035
:104210007B68013BB3F1807F01D301230FE00A4AA1
:104220007B68013B53600F214FF0FF30FFF78EFF9B
:10423000054B00229A60044B07221A60002318469F
:104240000837BD4680BD00BF10E000E080B582B0F9
:1042500000AF78607868FFF729FF00BF0837BD46D8
:1042600080BD80B586B000AF0346B9607A60FB734D
:1042700000237B61FFF73EFF78617A68B96878694F
:10428000FFF78EFF024697F90F3011461846FFF7E9
:104290005DFF00BF1837BD4680BD80B582B000AF5E
:1042A0000346FB7197F907301846FFF731FF00BF4F
:1042B0000837BD4680BD80B582B000AF78607868B1
:1042C000FFF7A2FF034618460837BD4680BD000031
:1042D00080B586B000AF786000237B61FFF7B6FE43
:1042E00038617B68002B01D1012399E07B680222B1
:1042F00083F835207B68002283F834207B681B68B4
:104300001A687B681B6822F001021A600FE0FFF751
:104310009DFE02463B69D31A052B08D97B682022F3
:104320005A657B68032283F83520032378E07B6895
:104330001B681B6803F00103002BE8D17B681B6836
:104340001B687B617A69384B13407B617B685A68D4
:104350007B689B681A437B68DB681A437B681B6930
:104360001A437B685B691A437B689B691A437B68C5
:10437000DB691A437B681B6A13437A6913437B61C9
:104380007B685B6A042B07D17B68DA6A7B681B6BEE
:1043900013437A6913437B617B681B687A691A60EF
:1043A0007B681B685B697B617B6923F007037B612A
:1043B0007B685B6A7A6913437B617B685B6A042B69
:1043C00017D17B689B6A7A6913437B617B68DB6AE0
:1043D000002B0ED0786800F001FB0346002B08D0BC
:1043E0007B6840225A657B68012283F835200123CF
:1043F00016E07B681B687A695A61786800F0B8FA41
:104400000346FB607B68DB6D3F229A40FB689A6045
:104410007B6800225A657B68012283F835200023DF
:1044200018461837BD4680BD3F8010F080B586B075
:1044300000AFF860B9607A603B600023FB75FB68F1
:104440009B6D3B61FB6893F83430012B01D1022353
:1044500040E0FB68012283F83420FB6893F8353094
:10446000DBB2012B2FD1FB68022283F83520FB68D9
:1044700000225A653B687A68B968F86800F04AFA21
:10448000FB68DB6D3F229A403B699A60FB681B68C2
:104490001A68FB681B6842F016021A60FB681B6C06
:1044A000002B07D0FB681B681A68FB681B6842F08A
:1044B00008021A60FB681B681A68FB681B6842F0F8
:1044C00001021A6005E0FB68002283F83420022311
:1044D000FB75FB7D18461837BD4680BD80B584B09E
:1044E00000AF78607B689B6DFB60FFF7AFFDB86045
:1044F0007B6893F83530DBB2022B08D07B688022D2
:104500005A657B68002283F83420012352E07B68DF
:104510001B681A687B681B6822F016021A607B68A9
:104520001B685A697B681B6822F080025A617B68AD
:104530001B6C002B03D17B689B6C002B07D07B6826
:104540001B681A687B681B6822F008021A607B6887
:104550001B681A687B681B6822F001021A6013E06E
:10456000FFF774FD0246BB68D31A052B0CD97B6894
:1045700020225A657B68032283F835207B6800225D
:1045800083F83420032315E07B681B681B6803F065
:104590000103002BE4D17B68DB6D3F229A40FB686E
:1045A0009A607B68012283F835207B68002283F8BB
:1045B0003420002318461037BD4680BD80B483B038
:1045C00000AF78607B6893F83530DBB2022B04D003
:1045D0007B6880225A6501230CE07B68052283F802
:1045E00035207B681B681A687B681B6822F0010213
:1045F0001A60002318460C37BD465DF8047B7047EF
:1046000080B586B000AF78600023BB608E4B1B681E
:104610008E4AA2FB03239B0A7B617B689B6D3B61F7
:104620003B691B68FB607B68DB6D08229A40FB6876
:104630001340002B1AD07B681B681B6803F004032F
:10464000002B13D07B681B681A687B681B6822F0FC
:1046500004021A607B68DB6D08229A403B699A600D
:104660007B685B6D43F001027B685A657B68DB6D9C
:1046700001229A40FB681340002B12D07B681B6814
:104680005B6903F08003002B0BD07B68DB6D01229C
:104690009A403B699A607B685B6D43F002027B68DD
:1046A0005A657B68DB6D04229A40FB681340002B3F
:1046B00012D07B681B681B6803F00203002B0BD031
:1046C0007B68DB6D04229A403B699A607B685B6D76
:1046D00043F004027B685A657B68DB6D10229A40C8
:1046E000FB681340002B43D07B681B681B6803F0FA
:1046F0000803002B3CD07B68DB6D10229A403B699D
:104700009A607B681B681B6803F48023002B18D019
:104710007B681B681B6803F40023002B08D17B68AF
:104720001B6C002B24D07B681B6C786898471FE0BB
:104730007B689B6C002B1BD07B689B6C78689847D0
:1047400016E07B681B681B6803F48073002B07D19D
:104750007B681B681A687B681B6822F008021A6075
:104760007B681B6C002B03D07B681B6C78689847B8
:104770007B68DB6D20229A40FB681340002B00F021
:104780008F807B681B681B6803F01003002B00F010
:1047900087807B68DB6D20229A403B699A607B684A
:1047A00093F83530DBB2052B36D17B681B681A686D
:1047B0007B681B6822F016021A607B681B685A69C6
:1047C0007B681B6822F080025A617B681B6C002B9F
:1047D00003D17B689B6C002B07D07B681B681A6831
:1047E0007B681B6822F008021A607B68DB6D3F2241
:1047F0009A403B699A607B68012283F835207B6888
:10480000002283F834207B681B6D002B7ED07B68F0
:104810001B6D7868984779E07B681B681B6803F418
:104820008023002B1DD07B681B681B6803F40023CA
:10483000002B0DD17B685B6C002B31D07B685B6CEF
:10484000786898472CE000BF00000020B5814E1B1F
:104850007B68DB6B002B23D07B68DB6B7868984729
:104860001EE07B681B681B6803F48073002B0FD16C
:104870007B681B681A687B681B6822F010021A604C
:104880007B68012283F835207B68002283F834207E
:104890007B68DB6B002B03D07B68DB6B7868984709
:1048A0007B685B6D002B32D07B685B6D03F001038E
:1048B000002B22D07B68052283F835207B681B689B
:1048C0001A687B681B6822F001021A60BB6801331A
:1048D000BB607A699A4207D37B681B681B6803F048
:1048E0000103002BF2D100E000BF7B68012283F8B6
:1048F00035207B68002283F834207B68DB6C002B3A
:1049000005D07B68DB6C7868984700E000BF1837FB
:10491000BD4680BD80B485B000AFF860B9607A60F4
:104920003B60FB681B681A68FB681B6822F48022E6
:104930001A60FB681B683A685A60FB689B68402BEA
:1049400008D1FB681B687A689A60FB681B68BA68C4
:10495000DA6007E0FB681B68BA689A60FB681B684E
:104960007A68DA6000BF1437BD465DF8047B704793
:1049700080B485B000AF78607B681B68DBB2103B09
:10498000144AA2FB03231B09FB60134AFB68134470
:104990001B781A467B68DA65FB68032B09D97B68AC
:1049A0001B6823F47F7323F003031A1D7B689A6549
:1049B00007E07B681B6823F47F7323F003037A68A6
:1049C00093657B689B6D18461437BD465DF8047B84
:1049D000704700BFABAAAAAA741B010880B485B0B7
:1049E00000AF78600023FB737B689B6ABB607B68C9
:1049F0009B69002B1FD1BB68032B56D801A252F82C
:104A000023F000BF154A0008274A0008154A00088D
:104A1000AB4A00087B68DB6A03F08073002B46D04A
:104A20000123FB7343E07B68DB6AB3F1C07F40D1B5
:104A30000123FB733DE07B689B69B3F5005F21D1E7
:104A4000BB68032B37D801A252F823F05D4A000857
:104A5000634A00085D4A0008754A00080123FB7399
:104A600030E07B68DB6A03F08073002B25D00123E4
:104A7000FB7322E07B68DB6AB3F1C07F1FD10123A7
:104A8000FB731CE0BB68022B03D9BB68032B03D06C
:104A900018E00123FB7315E07B68DB6A03F0807389
:104AA000002B0ED00123FB730BE000BF0AE000BF18
:104AB00008E000BF06E000BF04E000BF02E000BF66
:104AC00000E000BFFB7B18461437BD465DF8047B51
:104AD000704700BF80B489B000AF786039600023B0
:104AE0007B6100233B610023BB610023FB6159E133
:104AF0000122FB6902FA03F37B613B681B687A6958
:104B000013403B613A697B699A4240F048813B68B7
:104B10005B6803F00303012B05D03B685B6803F07F
:104B20000303022B30D17B689B68BB61FB695B0090
:104B3000032202FA03F3DB43BA691340BB613B680B
:104B4000DA68FB695B0002FA03F3BA691343BB61DD
:104B50007B68BA699A607B685B68BB610122FB690C
:104B600002FA03F3DB43BA691340BB613B685B683D
:104B70001B0903F00102FB6902FA03F3BA6913434C
:104B8000BB617B68BA695A603B685B6803F00303EA
:104B9000032B17D07B68DB68BB61FB695B000322DA
:104BA00002FA03F3DB43BA691340BB613B689A68BE
:104BB000FB695B0002FA03F3BA691343BB617B68CC
:104BC000BA69DA603B685B6803F00303022B23D108
:104BD000FB69DA087B68083253F82230BB61FB6955
:104BE00003F007039B000F2202FA03F3DB43BA69C9
:104BF0001340BB613B681A69FB6903F007039B0024
:104C000002FA03F3BA691343BB61FB69DA087B68F4
:104C10000832B96943F822107B681B68BB61FB69E5
:104C20005B00032202FA03F3DB43BA691340BB6162
:104C30003B685B6803F00302FB695B0002FA03F365
:104C4000BA691343BB617B68BA691A603B685B68E9
:104C500003F44033002B00F0A2800023FB60574B8D
:104C60005B6C564A43F480435364544B5B6C03F4CF
:104C70008043FB60FB68524AFB699B08023352F891
:104C80002330BB61FB6903F003039B000F2202FA90
:104C900003F3DB43BA691340BB617B68494A934223
:104CA00019D07B68484A934213D07B68474A9342A5
:104CB0000DD07B68464A934207D07B68454A9342B1
:104CC00001D1042308E0072306E0032304E00223C4
:104CD00002E0012300E00023FA6902F003029200DF
:104CE0009340BA691343BB613549FB699B080233A2
:104CF000BA6941F82320384B9B68BB613B69DB43B1
:104D0000BA691340BB613B685B6803F48013002BF6
:104D100003D0BA693B691343BB612F4ABB699360F7
:104D20002D4BDB68BB613B69DB43BA691340BB6158
:104D30003B685B6803F40013002B03D0BA693B693E
:104D40001343BB61244ABB69D360234B5B68BB61DF
:104D50003B69DB43BA691340BB613B685B6803F4A2
:104D60000033002B03D0BA693B691343BB611A4A75
:104D7000BB695360184B1B68BB613B69DB43BA6975
:104D80001340BB613B685B6803F48033002B03D0A6
:104D9000BA693B691343BB610F4ABB691360FB6986
:104DA0000133FB61FB690F2B7FF6A2AE00BF00BF92
:104DB0002437BD465DF8047B704700BF00380240D1
:104DC0000038014000000240000402400008024098
:104DD000000C024000100240003C014080B483B04F
:104DE00000AF78600B467B8013467B707B78002B8E
:104DF00003D07A887B689A6103E07B881A047B6819
:104E00009A6100BF0C37BD465DF8047B704780B4E3
:104E100085B000AF78600B467B807B685B69FB6088
:104E20007A88FB6813401A04FB68D9437B880B40DF
:104E30001A437B689A6100BF1437BD465DF8047B56
:104E4000704780B586B002AF78607B68002B01D1D7
:104E5000012301E17B681B68BB607B6893F8953494
:104E6000DBB2002B06D17B68002283F8942478689B
:104E700007F012FB7B68032283F89524BB68B3F12B
:104E8000A04F02D17B6800229A717B681B6818468C
:104E900003F0D5FE7B6818687B681A7C8DF80020CB
:104EA00004330ECB03F0B4FD0346002B05D07B6822
:104EB000022283F895240123CEE07B681B68002141
:104EC000184603F0CDFE0346002B05D07B68022276
:104ED00083F895240123BFE00023FB734AE0FA7BAB
:104EE00079681346DB0013449B000B441533012201
:104EF0001A70FA7B79681346DB0013449B000B445D
:104F00001433FA7B1A70FA7BFB7B98B279681346EC
:104F1000DB0013449B000B442E3302461A80FA7BBD
:104F200079681346DB0013449B000B4418330022BE
:104F30001A70FA7B79681346DB0013449B000B441C
:104F40001C3300221A60FA7B79681346DB00134495
:104F50009B000B44203300221A60FA7B79681346C9
:104F6000DB0013449B000B44243300221A60FB7BBC
:104F70000133FB737B681B79FA7B9A42AFD3002322
:104F8000FB7344E0FA7B79681346DB0013449B0013
:104F90000B4403F2552300221A70FA7B79681346FA
:104FA000DB0013449B000B4403F51573FA7B1A7066
:104FB000FA7B79681346DB0013449B000B4403F52E
:104FC000167300221A70FA7B79681346DB001344CB
:104FD0009B000B4403F5177300221A60FA7B796873
:104FE0001346DB0013449B000B4403F518730022A7
:104FF0001A60FA7B79681346DB0013449B000B446C
:1050000003F5197300221A60FB7B0133FB737B6885
:105010001B79FA7B9A42B5D37B6818687B681A7C47
:105020008DF8002004330ECB03F066FE0346002B00
:1050300005D07B68022283F8952401230CE07B686D
:1050400000225A747B68012283F895247B681B68D0
:10505000184604F0B0FE002318461037BD4680BD48
:1050600080B584B000AF78607B681B68FB607B68AC
:1050700093F89434012B01D1022322E07B680122B2
:1050800083F89424FB68DB6803F04003002B09D00D
:105090007B685B7B012B05D1FB689B6B43F4803203
:1050A000FB689A637B681B68184603F0B7FD7B6852
:1050B0001B68184604F05EFE7B68002283F8942487
:1050C000002318461037BD4680BD90B58DB000AFA7
:1050D00078607B681B683B623B6AFB617B681B688E
:1050E000184604F01CFF0346002B40F08C847B68BC
:1050F0001B68184604F080FE0346002B00F08284F3
:10510000FB6903F500639B681B0AC3F30D027B6810
:10511000C3F8D4247B681B68184604F06DFE034670
:1051200003F00203022B07D17B681B685A697B6876
:105130001B6802F002025A617B681B68184604F083
:105140005BFE034603F01003102B61D17B681B68E4
:105150009A697B681B6822F010029A613B6A1B6A9D
:10516000BB61BB6903F00F021346DB0013449B00D5
:1051700003F514737A68134404337B61BB6903F449
:10518000F013B3F5802F24D1BA6947F6F0731340BA
:10519000002B35D07B69D968BB691B099BB2C3F36F
:1051A0000A039BB21A46386A04F092FC7B69DA68FB
:1051B000BB691B09C3F30A031A447B69DA607B6984
:1051C0005A69BB691B09C3F30A031A447B695A6114
:1051D00016E0BB6903F4F013B3F5402F10D17B68E0
:1051E00003F29C4308221946386A04F071FC7B697B
:1051F0005A69BB691B09C3F30A031A447B695A61E4
:105200007B681B689A697B681B6842F010029A6190
:105210007B681B68184604F0EFFD034603F4002387
:10522000B3F5002F40F0A78000237B627B681B68EA
:10523000184604F0F4FDB86299E0BB6A03F001037C
:10524000002B00F08E807B681B687A6AD2B2114610
:10525000184604F018FE38613B6903F00103002B87
:105260000CD07B6A5A01FB69134403F530631A467C
:1052700001239360796A786800F0A4FE3B6903F02B
:105280000803002B0CD07B6A5A01FB69134403F519
:1052900030631A4608239360796A786800F07AFFD1
:1052A0003B6903F01003002B08D07B6A5A01FB69AD
:1052B000134403F530631A46102393603B6903F0EF
:1052C0000203002B30D03B6A5B6903F08003802B24
:1052D00009D1FB6903F500635B68FA6902F50062B6
:1052E00043F4806353607A6A1346DB0013449B00E7
:1052F00003F514737A68134404337B617B69DB78AC
:10530000012B08D17B690022DA707B6ADBB2194677
:10531000786807F0BDF97B6A5A01FB69134403F50D
:1053200030631A46022393603B6903F02003002B8D
:1053300008D07B6A5A01FB69134403F530631A46AF
:10534000202393603B6903F40053002B09D07B6A50
:105350005A01FB69134403F530631A464FF40053B6
:1053600093607B6A01337B62BB6A5B08BB62BB6A8A
:10537000002B7FF462AF7B681B68184604F03CFD8D
:10538000034603F48023B3F5802F40F0DB807B6875
:105390001B68184604F05DFDB86200237B62CDE017
:1053A000BB6A03F00103002B00F0C2807B681B681E
:1053B0007A6AD2B21146184604F083FD38613B691F
:1053C00003F00103002B57D07B6A03F00F03012287
:1053D00002FA03F3FB60FB6903F500635A6BFB6899
:1053E000DB43F96901F5006113404B637B6A5A01A5
:1053F000FB69134403F510631A46012393607B682D
:105400009B79012B32D179687A6A1346DB00134409
:105410009B000B442033196878687A6A1346DB00D6
:1054200013449B0003441C331B68194478687A6A50
:105430001346DB0013449B000344203319607B6A4E
:10544000002B13D179687A6A1346DB0013449B0062
:105450000B4424331B68002B08D17B6818687B68D9
:1054600003F29C431A46012104F08AFD7B6ADBB2F9
:105470001946786807F091F83B6903F00803002BA0
:1054800008D07B6A5A01FB69134403F510631A467E
:10549000082393603B6903F01003002B08D07B6A5C
:1054A0005A01FB69134403F510631A4610239360F5
:1054B0003B6903F04003002B08D07B6A5A01FB696B
:1054C000134403F510631A46402393603B6903F0CD
:1054D0000203002B23D0796A386A03F071FD7A6ADF
:1054E0001346DB0013449B0010337A6813440433E3
:1054F0007B617B69DB78012B08D17B690022DA7044
:105500007B6ADBB21946786807F0D4F87B6A5A01E7
:10551000FB69134403F510631A46022393603B6949
:1055200003F08003002B03D0796A786800F0BDFC9B
:105530007B6A01337B62BB6A5B08BB62BB6A002B80
:105540007FF42EAF7B681B68184604F055FC0346B9
:1055500003F00043B3F1004F22D1FB6903F5006370
:105560005B68FA6902F5006223F0010353607B680F
:1055700093F8CC34012B08D17B68002283F8CC242B
:105580000021786800F0A4FE02E0786807F072F865
:105590007B681B685A697B681B6802F000425A618D
:1055A0007B681B68184604F027FC034603F400637D
:1055B000B3F5006F12D1FB6903F500639B6803F03C
:1055C0000103012B02D1786807F02EF87B681B6875
:1055D0005A697B681B6802F400625A617B681B6829
:1055E000184604F009FC034603F48053B3F5805FCA
:1055F00040F0B780FB6903F500635B68FA6902F568
:10560000006223F0010353607B681B681021184679
:1056100003F0D6FC0023FB6246E0FB6A5A01FB69FB
:10562000134403F510631A464FF67F339360FB6A09
:105630005A01FB69134403F510631B68FA6A5101B0
:10564000FA690A4402F5106223F400131360FB6A3E
:105650005A01FB69134403F530631A464FF67F3352
:105660009360FB6A5A01FB69134403F530631B68BE
:10567000FA6A5101FA690A4402F5306223F4001310
:105680001360FB6A5A01FB69134403F530631B681E
:10569000FA6A5101FA690A4402F5306243F0006384
:1056A0001360FB6A0133FB627B681B791A46FB6A55
:1056B0009342B2D3FB6903F50063DB69FA6902F533
:1056C000006243F00113D3617B68DB7B002B16D0B3
:1056D000FB6903F50063D3F88430FA6902F50062D0
:1056E00043F00B03C2F88430FB6903F500635B6C85
:1056F000FA6902F5006243F00B03536415E0FB699D
:1057000003F500635B69FA6902F5006243F4005334
:1057100043F02B035361FB6903F500631B69FA69CE
:1057200002F5006243F00B031361FB6903F50063AC
:105730001B68FA6902F5006223F4FE6313607B685C
:1057400018687B6899797B6803F29C431A4604F0D9
:1057500017FC7B681B685A697B681B6802F48052DF
:105760005A617B681B68184604F046FB034603F445
:105770000053B3F5005F23D17B681B68184604F023
:10578000DCFB7B681B68184603F093FC03461A4653
:105790007B68DA717B681C6801F0CAF901467B6896
:1057A000DB791A46204603F097F9786806F01DFF6A
:1057B0007B681B685A697B681B6802F400525A6157
:1057C0007B681B68184604F017FB034603F00803C8
:1057D000082B0AD1786806F0FAFE7B681B685A69C4
:1057E0007B681B6802F008025A617B681B681846D8
:1057F00004F002FB034603F08003802B23D13B6AB5
:105800009B6923F080023B6A9A6101237B6214E06A
:1058100079687A6A1346DB0013449B000B4403F259
:1058200057231B78012B05D17B6ADBB219467868B8
:1058300000F00AFB7B6A01337B627B681B791A46A6
:105840007B6A9342E4D37B681B68184604F0D4FA61
:10585000034603F48013B3F5801F3CD101237B6220
:105860002BE07B6A5A01FB69134403F510631B6844
:10587000BB6179687A6A1346DB0013449B000B44D2
:1058800018331B78012B15D1BB69002B12DA79680C
:105890007A6A1346DB0013449B000B441733012242
:1058A0001A707B6ADBB263F07F03DBB2194678685B
:1058B00000F0CAFA7B6A01337B627B681B791A4667
:1058C0007B6A9342CDD37B681B685A697B681B68EF
:1058D00002F480125A617B681B68184604F08CFA47
:1058E000034603F40013B3F5001F56D101237B6276
:1058F00045E07B6A5A01FB69134403F530631B687A
:10590000BB6179687A6A1346DB0013449B000B4441
:1059100003F516731B78012B2ED1BB69002B2BDAF4
:10592000BB691A0C7B68D3F8D434534003F00103ED
:10593000002B21D179687A6A1346DB0013449B005F
:105940000B4403F2572301221A703B6A9B6943F010
:1059500080023B6A9A613B6A5B6903F08003002B1B
:105960000AD1FB6903F500635B68FA6902F500621E
:1059700043F40073536008E07B6A01337B627B6809
:105980001B791A467B6A9342B3D37B681B685A69BA
:105990007B681B6802F400125A617B681B6818461A
:1059A00004F02AFA034603F08043B3F1804F0AD192
:1059B000786806F091FE7B681B685A697B681B68F3
:1059C00002F080425A617B681B68184604F014FAA2
:1059D000034603F00403042B15D17B681B685B6846
:1059E000BB61BB6903F00403002B02D0786806F0AA
:1059F00081FE7B681B6859687B681B68BA690A432B
:105A00005A6000E000BF3437BD4690BD80B582B01B
:105A100000AF78600B46FB707B6893F89434012BE1
:105A200001D1022312E07B68012283F894247B6871
:105A3000FA785A747B681B68FA781146184604F0A5
:105A400073F97B68002283F89424002318460837F2
:105A5000BD4680BD80B584B000AF78600846114671
:105A60001A460346FB700B463B801346BB7000236F
:105A7000FB7297F90330002B0FDAFB7803F00F026B
:105A80001346DB0013449B0010337A68134404333D
:105A9000FB60FB6801225A700FE0FB7803F00F02F5
:105AA0001346DB0013449B0003F514737A68134418
:105AB0000433FB60FB6800225A70FB7803F00F038D
:105AC000DAB2FB681A703B88C3F30A02FB689A607B
:105AD000FB68BA781A71FB685B78002B04D0FB680E
