:020000040800F2
:100000000000022019410008153F00081D3F0008AC
:10001000253F00082D3F0008353F00080000000084
:100020000000000000000000000000003D3F00084C
:100030004B3F000800000000593F0008673F0008E0
:1000400069410008694100086941000869410008E8
:1000500069410008694100086941000869410008D8
:1000600069410008694100086941000869410008C8
:1000700069410008694100086941000869410008B8
:10008000694100086941000869410008000000005A
:1000900000000000000000000000000069410008AE
:1000A0006941000869410008694100086941000888
:1000B0006941000869410008694100086941000878
:1000C0006941000869410008694100086941000868
:1000D00069410008753F0008694100080000000000
:1000E00069410008694100086941000800000000FA
:1000F000000000000000000000000000694100084E
:1001000000000000694100086941000869410008D9
:1001100000000000000000000000000000000000DF
:100120006941000869410008694100086941000807
:10013000694100080000000000000000000000000D
:100140000000000000000000000000008D3F0008DB
:1001500069410008694100086941000869410008D7
:10016000694100086941000800000000000000002B
:10017000000000000000000000000000000000007F
:1001800000000000694100080000000000000000BD
:08019000694100086941000803
:1001A00010B5054C237833B9044B13B10448AFF3B1
:1001B00000800123237010BDD80200200000000041
:1001C0000009010808B5034B1BB103490348AFF30D
:1001D000008008BD00000000DC02002000090108CA
:1001E00001F0FF01102A2BDB10F0070F08D010F8E8
:1001F000013B013A8B422DD010F0070F42B3F6D1EC
:10020000F0B441EA012141EA014122F007047FF004
:1002100000070023F0E80256083C85EA010586EA5B
:10022000010685FA47F5A3FA87F586FA47F6A5FA97
:1002300087F68EB9EED1F0BC01F0FF0102F00702A3
:1002400032B110F8013B013A83EA010313B1F8D14E
:100250000020704701387047002D06BF354603382F
:10026000073815F0010F07D1013015F4807F02BF68
:10027000013015F4C03F0130F0BC0138704700BFB9
:10028000034613F8012B002AFBD1181A01387047D6
:1002900081F0004102E000BF83F0004330B54FEA37
:1002A00041044FEA430594EA050F08BF90EA020FA4
:1002B0001FBF54EA000C55EA020C7FEA645C7FEA37
:1002C000655C00F0E2804FEA5454D4EB5555B8BF5A
:1002D0006D420CDD2C4480EA020281EA030382EACB
:1002E000000083EA010180EA020281EA0303362D5D
:1002F00088BF30BD11F0004F4FEA01314FF4801C30
:100300004CEA113102D0404261EB410113F0004F41
:100310004FEA03334CEA133302D0524263EB4303F8
:1003200094EA050F00F0A780A4F10104D5F1200E96
:100330000DDB02FA0EFC22FA05F2801841F10001F1
:1003400003FA0EF2801843FA05F359410EE0A5F1C5
:1003500020050EF1200E012A03FA0EFC28BF4CF0F6
:10036000020C43FA05F3C01851EBE37101F00045AC
:1003700007D54FF0000EDCF1000C7EEB00006EEBB9
:100380000101B1F5801F1BD3B1F5001F0CD3490843
:100390005FEA30004FEA3C0C04F101044FEA44529A
:1003A00012F5800F80F09A80BCF1004F08BF5FEA21
:1003B000500C50F1000041EB045141EA050130BD01
:1003C0005FEA4C0C404141EB0101013C28BFB1F513
:1003D000801FE9D291F0000F04BF01460020B1FA5E
:1003E00081F308BF2033A3F10B03B3F120020CDA31
:1003F0000C3208DD02F1140CC2F10C0201FA0CF00F
:1004000021FA02F10CE002F11402D8BFC2F1200C73
:1004100001FA02F120FA0CFCDCBF41EA0C01904029
:10042000E41AA2BF01EB0451294330BD6FEA040472
:100430001F3C1CDA0C340EDC04F11404C4F120025D
:1004400020FA04F001FA02F340EA030021FA04F36F
:1004500045EA030130BDC4F10C04C4F1200220FAC6
:1004600002F001FA04F340EA0300294630BD21FA04
:1004700004F0294630BD94F0000F83F4801306BFCA
:1004800081F480110134013D4EE77FEA645C18BFBE
:100490007FEA655C29D094EA050F08BF90EA020F55
:1004A00005D054EA000C04BF1946104630BD91EA4D
:1004B000030F1EBF0021002030BD5FEA545C05D150
:1004C0004000494128BF41F0004130BD14F580048F
:1004D0003CBF01F5801130BD01F0004545F0FE4103
:1004E00041F470014FF0000030BD7FEA645C1ABF38
:1004F000194610467FEA655C1CBF0B46024650EA6F
:10050000013406BF52EA033591EA030F41F400219A
:1005100030BD00BF90F0000F04BF0021704730B520
:100520004FF4806404F132044FF000054FF00001F5
:1005300050E700BF90F0000F04BF0021704730B5B6
:100540004FF4806404F1320410F0004548BF40428B
:100550004FF000013EE700BF42004FEAE2014FEAE0
:1005600031014FEA02701FBF12F07F4393F07F4FBB
:1005700081F06051704732F07F4208BF704793F0BE
:100580007F4F04BF41F40021704730B54FF46074D1
:1005900001F0004521F000411CE700BF50EA0102D4
:1005A00008BF704730B54FF000050AE050EA01027D
:1005B00008BF704730B511F0004502D5404261EBED
:1005C00041014FF4806404F132045FEA915C3FF42E
:1005D000D8AE4FF003025FEADC0C18BF03325FEACB
:1005E000DC0C18BF033202EBDC02C2F1200300FA7C
:1005F00003FC20FA02F001FA03FE40EA0E0021FAA1
:1006000002F11444BDE600BF70B54FF0FF0C4CF48E
:10061000E06C1CEA11541DBF1CEA135594EA0C0F40
:1006200095EA0C0F00F0DEF82C4481EA030621EA7B
:100630004C5123EA4C5350EA013518BF52EA0335B6
:1006400041F4801143F4801338D0A0FB02CE4FF068
:100650000005E1FB02E506F00042E0FB03E54FF098
:100660000006E1FB03569CF0000F18BF4EF0010E90
:10067000A4F1FF04B6F5007F64F5407404D25FEA8C
:100680004E0E6D4146EB060642EAC62141EA55513F
:100690004FEAC52040EA5E504FEACE2EB4F1FD0C81
:1006A00088BFBCF5E06F1ED8BEF1004F08BF5FEAFF
:1006B000500E50F1000041EB045170BD06F00046B1
:1006C00046EA010140EA020081EA0301B4EB5C045E
:1006D000C2BFD4EB0C0541EA045170BD41F4801156
:1006E0004FF0000E013C00F3AB8014F1360FDEBF7B
:1006F000002001F0004170BDC4F10004203C35DA57
:100700000C341BDC04F11404C4F1200500FA05F3D9
:1007100020FA04F001FA05F240EA020001F000427A
:1007200021F0004110EBD37021FA04F642EB0601F0
:100730005EEA430E08BF20EAD37070BDC4F10C041A
:10074000C4F1200500FA04F320FA05F001FA04F2DE
:1007500040EA020001F0004110EBD37041F10001CA
:100760005EEA430E08BF20EAD37070BDC4F12005D5
:1007700000FA05F24EEA020E20FA04F301FA05F23D
:1007800043EA020321FA04F001F0004121FA04F2E5
:1007900020EA020000EBD3705EEA430E08BF20EAB5
:1007A000D37070BD94F0000F0FD101F000464000EF
:1007B00041EB010111F4801F08BF013CF7D041EA71
:1007C000060195F0000F18BF704703F00046520075
:1007D00043EB030313F4801F08BF013DF7D043EA46
:1007E0000603704794EA0C0F0CEA135518BF95EAFC
:1007F0000C0F0CD050EA410618BF52EA4306D1D183
:1008000081EA030101F000414FF0000070BD50EAA1
:10081000410606BF1046194652EA430619D094EA2B
:100820000C0F02D150EA013613D195EA0C0F05D115
:1008300052EA03361CBF104619460AD181EA030169
:1008400001F0004141F0FE4141F470014FF0000021
:1008500070BD41F0FE4141F4780170BD70B54FF0BC
:10086000FF0C4CF4E06C1CEA11541DBF1CEA13553C
:1008700094EA0C0F95EA0C0F00F0A7F8A4EB05041E
:1008800081EA030E52EA03354FEA013100F0888015
:100890004FEA03334FF0805545EA131343EA1263DE
:1008A0004FEA022245EA111545EA10654FEA002693
:1008B0000EF000419D4208BF964244F1FD0404F54C
:1008C000407402D25B084FEA3202B61A65EB0305A8
:1008D0005B084FEA32024FF480104FF4002CB6EB65
:1008E000020E75EB030E22BFB61A754640EA0C00E5
:1008F0005B084FEA3202B6EB020E75EB030E22BF25
:10090000B61A754640EA5C005B084FEA3202B6EB65
:10091000020E75EB030E22BFB61A754640EA9C0024
:100920005B084FEA3202B6EB020E75EB030E22BFF4
:10093000B61A754640EADC0055EA060E18D04FEAB2
:10094000051545EA16754FEA06164FEAC30343EA52
:1009500052734FEAC2025FEA1C1CC0D111F4801F1F
:100960000BD141EA00014FF000004FF0004CB6E718
:1009700011F4801F04BF01430020B4F1FD0C88BFB7
:10098000BCF5E06F3FF6AFAEB5EB030C04BFB6EBC2
:10099000020C5FEA500C50F1000041EB045170BDB5
:1009A0000EF0004E4EEA113114EB5C04C2BFD4EBE2
:1009B0000C0541EA045170BD41F480114FF0000E66
:1009C000013C90E645EA060E8DE60CEA135594EAE2
:1009D0000C0F08BF95EA0C0F3FF43BAF94EA0C0FE5
:1009E0000AD150EA01347FF434AF95EA0C0F7FF45A
:1009F00025AF104619462CE795EA0C0F06D152EAAE
:100A000003353FF4FDAE1046194622E750EA410691
:100A100018BF52EA43067FF4C5AE50EA41047FF4A2
:100A20000DAF52EA43057FF4EBAE12E74FF0FF3C07
:100A300006E000BF4FF0010C02E000BF4FF0010CD8
:100A40004DF804CD4FEA410C7FEA6C5C4FEA430C51
:100A500018BF7FEA6C5C1BD001B050EA410C0CBFA0
:100A600052EA430C91EA030F02BF90EA020F002002
:100A7000704710F1000F91EA030F58BF994208BF69
:100A800090422CBFD8176FEAE37040F00100704726
:100A90004FEA410C7FEA6C5C02D150EA013C07D17D
:100AA0004FEA430C7FEA6C5CD6D152EA033CD3D0C8
:100AB0005DF8040B704700BF8446104662468C46C2
:100AC0001946634600E000BF01B5FFF7B7FF0028F5
:100AD00048BF10F1000F01BD4DF808EDFFF7F4FF1E
:100AE0000CBF012000205DF808FB00BF4DF808EDA9
:100AF000FFF7EAFF34BF012000205DF808FB00BFCC
:100B00004DF808EDFFF7E0FF94BF012000205DF8ED
:100B100008FB00BF4DF808EDFFF7CEFF94BF0120A2
:100B200000205DF808FB00BF4DF808EDFFF7C4FF9B
:100B300034BF012000205DF808FB00BF4FEA410CE4
:100B40007FEA6C5C02D150EA013C0AD14FEA430CC7
:100B50007FEA6C5C02D152EA033C02D14FF0000004
:100B600070474FF0010070474FEA410212F5001242
:100B700015D211D56FF47873B3EB625212D94FEAE4
:100B8000C12343F0004343EA505311F0004F23FACE
:100B900002F018BF404270474FF00000704750EA23
:100BA000013005D111F0004008BF6FF000407047E0
:100BB0004FF00000704700BF4FEA4102B2F1E0433E
:100BC00024BFB3F5001CDCF1FE5C0DD901F0004C34
:100BD0004FEAC0024CEA5070B2F1004F40EB830084
:100BE00008BF20F00100704711F0804F21D113F1B0
:100BF0003872BCBF01F00040704741F480114FEAE9
:100C00005252C2F11802C2F1200C10FA0CF320FA71
:100C100002F018BF40F001004FEAC1234FEAD3238E
:100C200003FA0CFC40EA0C0023FA02F34FEA4303F8
:100C3000CCE77FEA625307D150EA01331EBF4FF081
:100C4000FE4040F44000704701F0004040F0FE409C
:100C500040F40000704700BF80F0004002E000BF99
:100C600081F0004142001FBF5FEA410392EA030F97
:100C70007FEA226C7FEA236C6AD04FEA1262D2EBE1
:100C80001363C1BFD218414048404140B8BF5B42E6
:100C9000192B88BF704710F0004F40F4000020F07F
:100CA0007F4018BF404211F0004F41F4000121F095
:100CB0007F4118BF494292EA030F3FD0A2F10102DF
:100CC00041FA03FC10EB0C00C3F1200301FA03F11D
:100CD00000F0004302D5494260EB4000B0F5000F40
:100CE00013D3B0F1807F06D340084FEA310102F1FF
:100CF0000102FE2A51D2B1F1004F40EBC25008BFB1
:100D000020F0010040EA03007047490040EB00007A
:100D1000013A28BFB0F5000FEDD2B0FA80FCACF17B
:100D2000080CB2EB0C0200FA0CF0AABF00EBC250A8
:100D300052421843BCBFD0401843704792F0000F96
:100D400081F4000106BF80F400000132013BB5E7E9
:100D50004FEA41037FEA226C18BF7FEA236C21D05F
:100D600092EA030F04D092F0000F08BF08467047C4
:100D700090EA010F1CBF0020704712F07F4F04D192
:100D8000400028BF40F00040704712F100723CBFA5
:100D900000F50000704700F0004343F0FE4040F4CF
:100DA000000070477FEA226216BF08467FEA23638D
:100DB0000146420206BF5FEA412390EA010F40F478
:100DC000800070474FF0000304E000BF10F00043C4
:100DD00048BF40425FEA000C08BF704743F09643AB
:100DE00001464FF000001CE050EA010208BF7047C6
:100DF0004FF000030AE000BF50EA010208BF70474D
:100E000011F0004302D5404261EB41015FEA010C61
:100E100002BF84460146002043F0B64308BFA3F159
:100E20008053A3F50003BCFA8CF2083AA3EBC2533B
:100E300010DB01FA02FC634400FA02FCC2F120025A
:100E4000BCF1004F20FA02F243EB020008BF20F091
:100E50000100704702F1200201FA02FCC2F12002F7
:100E600050EA4C0021FA02F243EB020008BF20EAEC
:100E7000DC7070477BB972B90029BEBF00204FF00B
:100E8000004106E008BF00281CBF6FF000414FF092
:100E9000FF3000F0D3B9ADF1080C6DE904CE0029A4
:100EA00009DB002B1ADB00F04DF8DDF804E0DDE98A
:100EB000022304B07047404261EB4101002B1BDB71
:100EC00000F040F8DDF804E0DDE9022304B0404220
:100ED00061EB4101524263EB43037047524263EBC3
:100EE000430300F02FF8DDF804E0DDE9022304B04D
:100EF000404261EB41017047524263EB430300F013
:100F000021F8DDF804E0DDE9022304B0524263EB8E
:100F10004303704753B94AB9002908BF00281CBFD2
:100F20004FF0FF314FF0FF3000F088B9ADF1080C01
:100F30006DE904CE00F006F8DDF804E0DDE90223F7
:100F400004B070472DE9F047089D8E460446884658
:100F5000002B4AD18A42174662D9B2FA82F64EB1C4
:100F6000C6F1200301FA06F820FA03F3B74043EA7A
:100F70000808B4404FEA174E1FFA87FCB8FBFEF191
:100F8000230C0EFB118843EA084301FB0CF29A4242
:100F900009D9FB1801F1FF3080F0EA809A4240F253
:100FA000E78002393B449A1AA3B2B2FBFEF00EFB73
:100FB000102243EA024300FB0CFC9C4509D9FB18B4
:100FC00000F1FF3280F0D6809C4540F2D3803B4454
:100FD000023840EA0140A3EB0C0300211DB1F340AD
:100FE0000022C5E90032BDE8F0878B4205D90DB17A
:100FF000C5E9000100210846F5E7B3FA83F10029AD
:1010000046D1734502D3824200F20581841A6EEB09
:10101000030201209046002DE5D0C5E90048E2E733
:10102000002A00F09080B2FA82F6002E40F0A480F0
:101030008A1A030C4FEA174E80B2BCB20121B2FBF0
:10104000FEFC0EFB1C2243EA024304FB0CF29A4214
:1010500007D9FB180CF1FF3802D29A4200F2E08067
:10106000C4469B1AB3FBFEF20EFB123340EA034365
:1010700002FB04F49C4207D9FB1802F1FF3002D2B4
:101080009C4200F2CA8002461B1B42EA0C40A5E7C4
:10109000C1F120068B4022FA06F71F430EFA01F435
:1010A00020FA06F32EFA06FE4FEA1749234300FA08
:1010B00001F81FFA87FCBEFBF9F01C0C09FB10EECF
:1010C00044EA0E4400FB0CFEA64502FA01F209D9DF
:1010D0003C1900F1FF3A80F09C80A64540F29980CF
:1010E00002383C44A4EB0E041FFA83FEB4FBF9F370
:1010F00009FB13444EEA044403FB0CFCA44508D945
:101100003C1903F1FF3E80F08280A4457FD9023B69
:101110003C4443EA0040A4EB0C04A0FB02EC644511
:101120007346E14662D35FD05DB1B8EB030264EB76
:10113000090404FA06F622FA01F31E43CC40C5E97D
:10114000006400214FE7B1FBF2FC010C41EA0E41C3
:1011500080B240EA01423B4638463C46B846BE466D
:101160002026B1FBF7F1A2EB080241EA0C4166E749
:10117000014618E710462CE7C6F120022EFA02F3CA
:10118000B740B14020FA02F24FEA174E0A43B3FBD0
:10119000FEF8BCB20EFB1833110C41EA034108FB08
:1011A00004F9B04089454FEA104380B23ED979181E
:1011B00008F1FF3C01D289451FD8A1EB0901B1FB21
:1011C000FEF909FB04F80EFB191192B242EA014242
:1011D000424529D2BA1809F1FF31C4D24245C2D2E0
:1011E000A9F102013A44BEE7F0459DD2BEEB0203ED
:1011F0006CEB070C0138E14696E7A7EB0909494477
:10120000A8F1020CB1FBFEF909FB04F8DBE7734619
:101210007FE7504666E70846FDE63B44023A33E77F
:10122000ACF1020C3B441CE749469CE7A1EB0901E9
:10123000C446B1FBFEF909FB04F8C4E7704700BFE0
:1012400080B582B000AF78607B6858687B681B8986
:101250000022194603F048FB00BF0837BD4680BD99
:1012600080B582B000AF78607B6858687B681B8966
:101270000122194603F038FB00BF0837BD4680BD88
:1012800080B584B000AF78600B46FB701346BB702E
:10129000FB7803F07F03DBB23B73BB787B7378682A
:1012A000FFF7CEFF7B68186807F10C014FF0FF33A2
:1012B000022205F080FA0346FB737868FFF7D0FF3F
:1012C000FB7B18461037BD4680BD80B586B000AFA9
:1012D000F8607A601A460B46FB7213463B81FB7A34
:1012E00063F07F03DBB2BB75F868FFF7A9FFFB680B
:1012F000186807F116014FF0FF33012205F05BFA81
:101300000346FB75FB7D002B09D1FB6818683A8901
:101310004FF0FF33796805F092FB0346FB75F868E0
:10132000FFF79EFFFB7D18461837BD4680BD80B590
:1013300086B000AFF860B9607A607B802822002117
:10134000F8680BF097FFFB68BA681A60FB687A6868
:101350005A60FB687A881A817B880122194678686E
:1013600003F0C2FA0023BB7507F116031946F868AB
:1013700000F057F80346FB75FB7D002B01D0FB7D89
:1013800012E0BB7D582B01D001230DE0F86800F07E
:101390000FF80346FB75FB7D002B01D0FB7D03E0BE
:1013A000F86800F04EF8034618461837BD4680BD71
:1013B00080B586B000AF7860B622E0217868FFF78C
:1013C0005FFF0346FB75FB7D002B01D0FB7D24E016
:1013D000042002F03DFF02F02FFF38610023FB7371
:1013E00007F10F020123F3217868FFF76EFF034630
:1013F000002B01D0012310E0FB7B03F00103002B45
:1014000007D002F019FF02463B69D31A142B02D809
:10141000E4E700BF00E000BF002318461837BD46D0
:1014200080BD80B582B000AF7860396001233A6832
:10143000D0217868FFF749FF034618460837BD46B4
:1014400080BD80B58AB000AF786007F10C02182328
:1014500088217868FFF739FF034687F8273097F827
:101460002730002B02D097F827307EE07B7B1BB221
:101470001B021AB23B7B1BB213431BB29AB27B68AE
:101480005A81FB7B1BB21B021AB2BB7B1BB21343FC
:101490001AB27B689A817B7C1BB21B021AB23B7C1E
:1014A0001BB213431AB27B68DA81FB7C1BB21B02AE
:1014B0001AB2BB7C1BB213431BB29AB27B681A826E
:1014C0007B7D1BB21B021AB23B7D1BB213431AB2C7
:1014D0007B685A82FB7D1BB21B021AB2BB7D1BB21A
:1014E00013431AB27B689A827B7E1BB21B021AB22C
:1014F0003B7E1BB213431AB27B68DA82FB7E1BB2BF
:101500001B021AB2BB7E1BB213431AB27B681A834A
:101510007B7F1BB21B021AB23B7F1BB213431AB272
:101520007B685A83FB7F1BB21B021AB2BB7F1BB2C4
:1015300013431AB27B689A8397F821301BB21B02BF
:101540001AB297F820301BB213431AB27B68DA83C1
:1015500097F823301BB21B021AB297F822301BB245
:1015600013431AB27B681A84002318462837BD46F5
:1015700080BD80B584B000AF7860084611461A4639
:101580000346FB700B46BB7013467B7097F9033024
:101590005B015AB297F902309B005BB203F01C0367
:1015A0005BB213435BB2DBB27A78002A01D001222E
:1015B00000E000221343FB73FB7B1A46F521786899
:1015C000FFF75EFE034618461037BD4680BD80B566
:1015D00084B000AF7860084611461A460346FB7097
:1015E0000B46BB7013467B7097F903305B015AB210
:1015F00097F902309B005BB203F01C035BB213430C
:101600005AB297F9013003F003035BB213435BB2A4
:10161000FB73FB7B1A46F4217868FFF731FE034623
:1016200018461037BD4680BD80B58AB000AFF8605F
:10163000B9607A6007F114020623F721F868FFF712
:1016400044FE034687F8273097F82730002B02D056
:1016500097F8273024E03B7D1A037B7D1B011A435A
:10166000BB7D1B09DBB203F00F0313433B62FB7D21
:101670001A033B7E1B011A437B7E1B09DBB203F07E
:101680000F031343FB617B68002B02D07B683A6A2F
:101690001A60BB68002B02D0BB68FA691A6000238D
:1016A00018462837BD4680BD80B487B000AF78604B
:1016B00039603B68DA107B685B895B00D31A7A6813
:1016C000B2F90C2002FB03F3DB127B613B681B11B8
:1016D0007A6852899B1A3A68121179684989521AB4
:1016E00002FB03F31B137A68B2F90E2002FB03F32B
:1016F0009B133B617A693B691A447B685A627B6839
:101700005A6A13469B00134480331B12FB60FB682C
:1017100018461C37BD465DF8047B70472DE9B04F75
:10172000CAB000AFC7F80C01C7F80811D7F80C31E0
:101730005B6ADA171C461546B4F5FA3A45F1FF3BE9
:10174000C7E948ABD7F82421D7F8203103FB02F1D1
:10175000D7F82421D7F8203102FB03F3CA18D7F8B1
:101760002031A3FB038902EB09039946D7F80C311A
:10177000B3F91A301BB2DA17C7F8B830C7F8BC2073
:10178000D7E92E01034603FB09F20B4608FB03F3DE
:1017900013440246A8FB0212C7F8C4200A46C7F841
:1017A000C020D7F8C4201344C7F8C430D7E9303478
:1017B000C7E94634C7E94634D7F80C31B3F91830D5
:1017C0001BB2DA17C7F8B030C7F8B420D7F8203109
:1017D000D7E92C452A4602FB03F2D7F824312146EB
:1017E00001FB03F31A44D7F820312146A3FB011370
:1017F000C7F804310B46C7F80031D7F80431D318C5
:10180000C7F804314FF000004FF00001D7E9404520
:101810002B465904234641EAD33123465804D7E9DD
:10182000462314183C644B417B64D7E91034C7E964
:101830004634D7F80C31B3F916301BB2DA17C7F8B3
:10184000A830C7F8AC204FF000004FF00001D7F8E7
:10185000A830D9000020D7E946231418BC634B41B7
:10186000FB63D7E90E34C7E94634D7F82421D7F80B
:10187000203103FB02F1D7F82421D7F8203102FBF5
:1018800003F3CA18D7F82031A3FB0313C7F8FC30C1
:101890000B46C7F8F830D7F8FC30D318C7F8FC303F
:1018A000D7F80C31B3F914301BB2DA17C7F8A030EF
:1018B000C7F8A420D7E93E452B46D7E928894246F8
:1018C00002FB03F24B46214601FB03F3134422467D
:1018D0004146A2FB0112C7F8F4200A46C7F8F020DF
:1018E000D7F8F4201344C7F8F4304FF000004FF05D
:1018F0000001D7E93C452346180A2B4640EA03601D
:101900002B461912D7F80C31B3F912301BB2DA1783
:10191000C7F89830C7F89C20D7F82031D7E9268936
:101920004A4602FB03F2D7F82431444604FB03F392
:101930001A44D7F820314446A3FB0443C7F8EC30DF
:101940002346C7F8E830D7F8EC30D318C7F8EC30A6
:101950004FF000024FF00003D7E93A894C462303C9
:10196000444643EA14534446220384183C6341EB43
:1019700003037B63D7E90C34C7E94834D7E948232C
:1019800003F50041C7F89410C7F89020D7F80C3140
:101990001B8A9BB20022C7F88830C7F88C20D7E991
:1019A00024452B46D7E92289424602FB03F24B46E7
:1019B000214601FB03F3134422464146A2FB0112D8
:1019C000C7F8E4200A46C7F8E020D7F8E42013441B
:1019D000C7F8E4304FF000024FF00003D7E9384574
:1019E00029464A102946CB17C7E94823D7E9482397
:1019F000134301D1002348E1D7F80831C3F5801320
:101A0000DA17BB62FA62D7E90A34C7E94434D7F877
:101A100010315B10C7F88430D7F81031DB07C7F8F6
:101A20008030D7E94623D7E920452146891AB9678E
:101A3000294661EB0303FB67D7E91E4522462B4687
:101A4000911839625B417B62D7E90823214651181E
:101A5000B96129464B41FB614FF000024FF0000392
:101A6000D7E9068949468B01414643EA91634146DD
:101A70008A01414689183961494643EB0101796180
:101A80004FF000024FF00003D7E9048949468B006C
:101A9000414643EA917341468A001046194603467F
:101AA00022469B18BB600B462A4642EB0303FB60B1
:101AB0004FF000024FF00003D7E9028949468B003E
:101AC000414643EA917341468A001046194603464F
:101AD00022469B183B672B460A4642EB03037B6773
:101AE000D7E94823D7E91C01FFF7C4F902460B46A2
:101AF000C7E94423D7F80C31B3F920301BB2DA1709
:101B0000BB66FA66D7E944234FF000004FF00001AE
:101B1000500B40EAC3405913D7E91A452B4600FB46
:101B200003F2234603FB01F313442246A2FB0012F7
:101B3000C7F8DC200A46C7F8D820D7F8DC201344C1
:101B4000C7F8DC30D7E944234FF000004FF0000124
:101B5000500B40EAC3405913D7E936452B4600FBEA
:101B600003F2234603FB01F313442246A2FB0012B7
:101B7000C7F8D4200A46C7F8D020D7F8D420134499
:101B8000C7F8D4304FF000024FF00003D7E93445D6
:101B900021464A0E294642EAC11229464B16C7E998
:101BA0004823D7F80C31B3F91E301BB2DA173B6665
:101BB0007A66D7F81031D7E918452A4602FB03F2B6
:101BC000D7F81431214601FB03F31344D7F8102151
:101BD0002146A2FB0112C7F8CC200A46C7F8C8204C
:101BE000D7F8CC201344C7F8CC304FF000024FF0A8
:101BF0000003D7E932452146CA0C294642EA413260
:101C00002946CB14C7E94623D7E94401D7E948233D
:101C10008418BC6541EB0303FB65D7E94623D7E98C
:101C20001645214689183965294643EB0101796536
:101C30004FF000004FF00001D7E914452346180A81
:101C40002B4640EA03602B461912D7F80C31B3F942
:101C50001C301BB2DA17BB64FA644FF000024FF07D
:101C60000003D7E912894C462301444643EA147322
:101C70004446220184183C6041EB03037B60D7E9B2
:101C80000034C7E94434D7F81031184607F5947783
:101C9000BD46BDE8B08F000080B588B000AFF860E9
:101CA000B9607A6007F1100207F114031946F86869
:101CB000FFF7BAFC0346002B01D001232AE07B6921
:101CC0001946F868FFF7F0FCF8613B691946F868B7
:101CD000FFF724FDB861BB68002B0BD0FB6907EE52
:101CE000903AB8EEE77ADFED0D6AC7EE267ABB6868
:101CF000C3ED007A7B68002B0BD0BB6907EE903AEE
:101D0000B8EE677ADFED066AC7EE267A7B68C3ED28
:101D1000007A002318462037BD4680BD0000C84227
:101D20000000804380B500AF4FF42A7200211A48AA
:101D30000BF0A0FA19480BF0ABF8194800F0D0F8F6
:101D4000642002F085FA174800F0CAF8642002F017
:101D50007FFA154800F0C4F8642002F079FA1348BD
:101D600000F0BEF8642002F073FA0022052125205D
:101D700002F06DFB252002F086FB0D4B1B68DA6834
:101D80000B4B1B6842F02002DA600A480BF080F827
:101D90000023184680BD00BFF80200201809010882
:101DA0003009010860090108700901087C0901086F
:101DB000E00600208809010880B582B000AF434BDF
:101DC0001B681B6803F02003202B69D1404B1B6864
:101DD00001333F4A13603D4B1B685B68FB713D4B11
:101DE0001B6801333B4A1360FB79242B10D13A4B1B
:101DF0000022A3F80022384BB3F800325A1C91B2EB
:101E0000354AA2F800121946334AFB79535442E08E
:101E1000FB790A2B2AD1304BB3F80032002B20D0AB
:101E20002D4BB3F80032B3F5FF7F1AD82A4BB3F825
:101E300000321A46284B00219954274BB3F8003240
:101E4000622B0ED8244925480BF093FA224B01222D
:101E500083F80222204BD3F8983201331E4AC2F88D
:101E600098321D4B0022A3F8002214E0FB790D2BC1
:101E700011D0194BB3F80032B3F5FF7F0BD8164BD6
:101E8000B3F800325A1C91B2134AA2F80012194654
:101E9000114AFB7953540D4B1B686FF020021A60F6
:101EA0000A4B1B681B6803F00803082B0AD10023A8
:101EB0003B60064B1B681B683B60044B1B685B6800
:101EC0003B603B6800BF0837BD4680BDE006002090
:101ED000A0050020A4050020F8020020FB0400203B
:101EE00080B59EB000AF7860002387F8773000237C
:101EF0003B670BE03B6F7A6813441A7897F87730AA
:101F0000534087F877303B6F01333B673B6F7A680C
:101F100013441B78002BEDD197F8773007F10C00B4
:101F20007A680E490BF070F807F10C0319460C485B
:101F30000AF046FF07F10C031846FEF7A1F9034625
:101F40009AB207F10C014FF47A73064805F0CCF908
:101F5000034618467837BD4680BD00BF480A0108D1
:101F6000540A0108E006002080B500AF00224FF4BB
:101F70008051024802F0B8FC00BF80BD000402405E
:101F800080B500AF01224FF48051024802F0ACFC52
:101F900000BF80BD0004024080B483B000AF786011
:101FA0007B681B781BB21B021AB27B6801331B785B
:101FB0001BB213431BB218460C37BD465DF8047BB9
:101FC0007047000080B584B000AF0346FB71FB7919
:101FD000042B19D801A252F823F000BFF11F00080A
:101FE000F71F0008FD1F0008092000080320000853
:101FF0000023BB730AE01023BB7307E02023BB73ED
:1020000004E04023BB7301E001231BE076237B73D4
:10201000FFF7AAFF07F10D01322301220B4804F05C
:10202000CAFB0346FB73FB7B002B08D107F10E01B3
:1020300032230122054804F0BEFB0346FB73FFF781
:102040009FFFFB7B18461037BD4680BD3006002041
:1020500080B584B000AF0346FB710B46BB711346DD
:102060007B71FB791846FFF7ADFF0346FB73FB7BE3
:10207000002B01D0FB7B1DE0BB7903F07F03DBB2BB
:10208000BB73FFF771FF07F10E01322301220B48EA
:1020900004F091FB0346FB73FB7B002B07D1791DFA
:1020A00032230122054804F086FB0346FB73FFF749
:1020B00067FFFB7B18461037BD4680BD3006002009
:1020C00080B584B000AF03463A60FB710B46BB712C
:1020D000FB791846FFF776FF0346FB73FB7B002B6B
:1020E00001D0FB7B1DE0BB7963F07F03DBB2BB73E8
:1020F000FFF73AFF07F10E01322301220B4804F0EB
:102100005AFB0346FB73FB7B002B07D132230122D2
:102110003968064804F093FC0346FB73FFF730FF71
:10212000FB7B18461037BD4680BD00BF300600203F
:1021300080B586B000AFBA607B600346FB730B4688
:10214000BB737B68002B02D0BB68002B01D100233E
:1021500029E0FB7B1846FFF735FF0346FB75FB7D47
:10216000002B01D0FB7D1EE0BB7B63F07F03DBB265
:10217000BB75FFF7F9FE07F11601322301220C4867
:1021800004F019FB0346FB75FB7D002B08D17B682F
:102190009AB23223B968064804F051FC0346FB7535
:1021A000FFF7EEFEFB7D18461837BD4680BD00BF29
:1021B0003006002080B582B000AFFFF7D5FE0122C7
:1021C00011210020FFF744FF0346FB71FB79002B30
:1021D00001D0FB7905E00A2002F03AF8FFF7D0FEC3
:1021E000002318460837BD4680BD80B584B000AFD7
:1021F00003460A46FB711346BB7197F907305B0132
:102200005AB297F9063003F00F035BB213435BB287
:10221000DBB2BB73BB7B1A4650210020FFF718FFCF
:102220000346FB73FB7B002B01D0FB7B70E007F1C7
:102230000E031A464E210020FFF742FF0346FB73B0
:10224000FB7B002B01D0FB7B62E0BB7B5BB243F0EE
:1022500003035BB2DBB2BB73BB7B1A464E2100208B
:10226000FFF7F6FE0346FB73FB7B002B01D0FB7BE5
:102270004EE0012001F0ECFF07F10E031A46532156
:102280000020FFF71DFF0346FB73FB7B002B01D0F3
:10229000FB7B3DE0BB7B23F01803DBB243F008037C
:1022A000DBB2BB73BB7B1A4653210020FFF7D0FE85
:1022B0000346FB73FB7B002B01D0FB7B28E007F17F
:1022C0000E031A4652210020FFF7FAFE0346FB7365
:1022D000FB7B002B01D0FB7B1AE0BB7B5BB203F0E6
:1022E0000F035BB243F060035BB2DBB2BB73BB7B3B
:1022F0001A4652210020FFF7ABFE0346FB73FB7B1F
:10230000002B01D0FB7B03E0052001F0A1FF00239F
:1023100018461037BD4680BD80B584B000AF034677
:102320000A46FB711346BB7197F907305B015AB23D
:1023300097F9063003F00F035BB213435BB2DBB2D5
:10234000BB73BB7B1A464F210020FFF781FE03467B
:10235000FB73FB7B002B01D0FB7B6EE007F10E03D0
:102360001A464E210020FFF7ABFE0346FB73FB7BB2
:10237000002B01D0FB7B60E0BB7B5BB243F00C0326
:102380005BB2DBB2BB73BB7B1A464E210020FFF76A
:102390005FFE0346FB73FB7B002B01D0FB7B4CE015
:1023A000012001F055FF07F10E031A4651210020CC
:1023B000FFF786FE0346FB73FB7B002B01D0FB7B04
:1023C0003BE0BB7B23F00C03DBB243F00403DBB246
:1023D000BB73BB7B1A4651210020FFF739FE034631
:1023E000FB73FB7B002B01D0FB7B26E007F10E0388
:1023F0001A4652210020FFF763FE0346FB73FB7B66
:10240000002B01D0FB7B18E0BB7B23F00F03DBB27A
:1024100043F00603DBB2BB73BB7B1A46522100209C
:10242000FFF716FE0346FB73FB7B002B01D0FB7B03
:1024300003E0052001F00CFF002318461037BD46CD
:1024400080BD90B585B000AF786007F10802062323
:102450001F210020FFF76CFE0346FB73FB7B002B64
:1024600001D0FB7B1DE007F108031846FFF794FD40
:1024700003461A467B681A807B689C1C07F1080398
:1024800002331846FFF788FD034623807B681C1D36
:1024900007F1080304331846FFF77EFD0346238047
:1024A000002318461437BD4690BD90B585B000AFE7
:1024B000786007F10802062325210020FFF738FE87
:1024C0000346FB73FB7B002B01D0FB7B1DE007F178
:1024D00008031846FFF760FD03461A467B681A801A
:1024E0007B689C1C07F1080302331846FFF754FD74
:1024F000034623807B681C1D07F10803043318463C
:10250000FFF74AFD03462380002318461437BD46D3
:1025100090BD000080B500AF00221021024802F0FB
:10252000E3F900BF80BD00BF0000024080B500AFEE
:1025300001221021024802F0D7F900BF80BD00BF80
:102540000000024080B500AF044B1B689868002370
:10255000022200210AF0A4FC00BF80BD84020020FA
:102560000FB480B5AAB000AF07F1B4033B60381DCB
:102570003B68D7F8B020A0210AF0DAFDC7F8A40024
:10258000D7F8A430002B06DD3B1DD7F8A420194650
:10259000012001F011FB00BFA837BD46BDE8804017
:1025A00004B0704780B586B002AF0346FB71FB797B
:1025B00003F07F03DBB23B7300237B7300233B817B
:1025C000FFF7A8FF07F1080207F10C014FF0FF33F6
:1025D00000930223044804F04BFBFFF7A7FF7B7A2C
:1025E00018461037BD4680BDD805002080B584B0A0
:1025F00000AF03460A46FB711346BB71FB7963F0DB
:102600007F03DBB23B73BB797B73FFF783FF07F17B
:102610000C014FF0FF330222044804F0CCF8FFF71E
:1026200085FF00BF1037BD4680BD00BFD805002024
:1026300080B582B000AF00210120FFF7D7FF8021D5
:102640000120FFF7D3FF0120FFF7ACFF0346FB712A
:1026500097F9073023F007035BB243F001035BB245
:10266000FB71FB7919460120FFF7C0FF00BF083757
:10267000BD4680BDB0B584B000AF786079680020F9
:102680000A460346550BD404184A4FF0000320466F
:102690002946FEF73FFC02460B46C7E90223D7E96D
:1026A00002014FF000024FF00003020C42EA014227
:1026B0000B0CD3B219460620FFF798FFD7E90201A9
:1026C0004FF000024FF00003020A42EA01620B0AD7
:1026D000D3B219460720FFF789FF3B7A1946082035
:1026E000FFF784FF00BF1037BD46B0BD0048E801CA
:1026F00080B584B000AF03460A46FB711346BB7138
:10270000FB79FB730EE0FB7B1846FFF74BFF03469C
:10271000BB73FB7BBA7B19460748FFF721FFFB7BA6
:102720000133FB73FA7BBB799A42ECD900BF00BF3F
:102730001037BD4680BD00BFF80A010880B582B0E1
:1027400000AFFFF7FFFE01221021244802F0CCF871
:102750004220FFF727FF0346FB71FB79194620480B
:10276000FFF7FEFE4220FFF71DFF0346BB71BB795A
:1027700019461C48FFF7F4FE01221021174802F009
:10278000B3F84220FFF70EFF03467B717B791946B1
:102790001548FFF7E5FEFFF74BFF1448FFF76AFF08
:1027A0000620FFF7FFFE03463B710720FFF7FAFE06
:1027B0000346FB700820FFF7F5FE0346BB7039792E
:1027C000FA78BB780A48FFF7CBFE1F210120FFF7FC
:1027D0008FFF00BF0837BD4680BD00BF000002402C
:1027E0000C0B0108440B0108800B0108C0CA893694
:1027F000AC0B010880B500AF00220221024802F0B4
:1028000073F800BF80BD00BF0004024080B500AF78
:1028100001220221024802F067F800BF80BD00BF1C
:102820000004024080B588B002AF78609F233B610E
:102830000023FB60FFF7DEFF07F10C0207F1100138
:102840006423009304230E4804F012FA0346FB7538
:10285000FFF7DCFFFB7D002B01D0FB7D0BE07A7BDB
:102860007B681A707B680133BA7B1A707B6802330D
:10287000FA7B1A70002318461837BD4680BD00BF8A
:10288000D805002080B584B000AF87ED010AC7ED00
:10289000000AD7ED016A97ED007AC6EE877AC7ED98
:1028A000037ADFED0A0A97ED030A0CF047FDF0EE1C
:1028B000407AB7EE007A77EE677A9FED057A67EE99
:1028C000877AB0EE670A1037BD4680BD01DE423E12
:1028D000002A2D472DE9B04FAAB000AFC82001F063
:1028E000B7FC4FF000024FF00003C7E928234FF078
:1028F00000024FF00003C7E926234FF000024FF01B
:102900000003C7E924234FF000024FF00003C7E99A
:1029100022234FF000024FF00003C7E920234FF0BD
:1029200000024FF00003C7E91E2300237B677DE010
:1029300007F150031846FFF784FD0346002B31D101
:10294000B7F950301BB2DA173B647A64D7E9282311
:10295000396C51183962796C4B417B62D7E9082395
:10296000C7E92823B7F952301BB2DA17BB63FA6301
:10297000D7E92623B96B5118B961F96B4B41FB615B
:10298000D7E90623C7E92623B7F954301BB2DA1773
:102990001C461546D7E9242312EB040A43EB050B2A
:1029A000C7E924AB07F148031846FFF77EFD03464D
:1029B000002B35D1B7F948301BB2DA173B637A6385
:1029C000D7E92223396B51183961796B4B417B610F
:1029D000D7E90423C7E92223B7F94A301BB2DA1733
:1029E000BB62FA62D7E92023B96A5118B960F96A63
:1029F0004B41FB60D7E90223C7E92023B7F94C30EC
:102A00001BB2DA1798469146D7E91E2312EB08014C
:102A1000396043EB09037B60D7E90023C7E91E2334
:102A2000022001F015FC7B6F01337B677B6FB3F5F0
:102A3000007FFFF67DAF4FF06C533B67D7E928016D
:102A4000FEF7DAF907EE100AD7ED1C7A67EE877AFF
:102A5000C7ED1B7AD7E92601FEF7CEF907EE100A7B
:102A6000D7ED1C7A67EE877AC7ED1A7AD7E9240189
:102A7000FEF7C2F907EE100AD7ED1C7A67EE877AE7
:102A8000C7ED197AD7E92201FEF7B6F907EE100A69
:102A9000D7ED1C7A67EE877AC7ED187AD7E920015F
:102AA000FEF7AAF907EE100AD7ED1C7A67EE877ACF
:102AB000C7ED177AD7E91E01FEF79EF907EE100A57
:102AC000D7ED1C7A67EE877AC7ED167A1A4AFB6E45
:102AD0001360194ABB6E5360D7ED197A9FED177AD0
:102AE00077EEC77A144BC3ED027A154A3B6E13603A
:102AF000134AFB6D5360124ABB6D9360114B4FF04C
:102B000000021A60104B4FF000021A600F4B4FF09A
:102B10007E521A600E4B4FF000021A600C4B1B687D
:102B20000C4A13600B4B1B680B4A136000BFA8379D
:102B3000BD46BDE8B08F00BFA8050020000080465C
:102B4000B4050020C0050020C4050020C8050020F1
:102B5000D4050020D0050020CC0500200000000096
:102B60002DE9F04F2DED028BB9B00CAF01F0FEFA5C
:102B700000F0E8FD00F044FF00F04CFE00F080FEA5
:102B800000F0B4FE00F012FF08F0B4FE00F0E4FE26
:102B90007D480AF07DF9FFF7C5F80346002B03D105
:102BA0007A480AF075F902E079480AF071F90122D1
:102BB0004FF40041774801F097FE00F095FF76480A
:102BC0000AF066F907F138031846FFF72BFE0346B3
:102BD000002B17D197F83830194697F839301A4634
:102BE00097F83A306D480AF0EBF80221694801F095
:102BF00094FE4FF47A7001F02BFB0221654801F03E
:102C00008CFE02E066480AF043F907F137031A46E2
:102C100075210020FFF754FA034687F88F3097F8A4
:102C20008F30002B21D197F83730422B16D197F8EF
:102C3000373019465B480AF0C3F84FF4FA7001F0D8
:102C400007FB0221534801F068FE4FF47A7001F04F
:102C5000FFFA02214F4801F060FE0CE097F8373090
:102C6000194651480AF0ACF805E097F88F3019463C
:102C70004E480AF0A5F8FFF79DFA06210320FFF75A
:102C8000B4FA06210020FFF747FB49480AF000F993
:102C9000FFF720FE474B1B681846FDF75DFCC7E9B0
:102CA0000601444B5B681846FDF756FC04460D468A
:102CB000404B9B681846FDF74FFC804689463E4BCB
:102CC0001B681846FDF748FC82468B463A4B5B680A
:102CD0001846FDF741FCC7E90401374B9B681846CD
:102CE000FDF73AFC02460B46CDE9082397ED047B3D
:102CF0008DED067BCDE904ABCDE90289CDE9004538
:102D0000D7E906232D480AF05BF801F095FAC7F8D9
:102D1000940001F091FAC7F8900029480AF0B8F839
:102D2000FFF70CFD01F088FA0246D7F89030D31A6D
:102D3000002BC0F2BA82D7F8903003F57A73C7F847
:102D40009030204B1B6801331E4A13601D4B1B68DB
:102D5000092B0AD81B4B1B681B4AA2FB03235B08E9
:102D600019461A480AF02CF88AE2194B1B7883F0AE
:102D70000103DBB2002B2FD0154B01221A7015482E
:102D80000AF086F87CE200BFDC0B0108FC0B0108AE
:102D9000240C010800000240480C0108540C0108F2
:102DA0006C0C0108800C0108A00C0108D40C01086F
:102DB000040D0108A8050020B4050020340D010809
:102DC000800D010898070020ABAAAAAA900D01085F
:102DD0009C070020C80D0108CF4B1B680133CE4A69
:102DE0001360CE4BD3ED007A9FEDCD7A77EE877AE4
:102DF000CA4BC3ED007AC94BD3ED007A9FEDC97A77
:102E000067EE877AB0EE670A0CF052FBF0EE407A7C
:102E10009FEDC57A27EE877AC44BD3ED007A77EE23
:102E2000277AC24BC3ED007ABC4BD3ED007A9FEDFD
:102E3000BD7A67EE877AB0EE670A0CF0F5FAF0EE2D
:102E4000407A9FEDB97A27EE877AB94BD3ED007AB5
:102E500077EE277AB64BC3ED007AB04BD3ED007A0C
:102E60009FEDB47A67EE877AB0EE670A0CF020FB2C
:102E7000F0EE407AB6EE007A27EE878A09F04AFA39
:102E80000146AD4B83FB0123DA10CB17D21A134650
:102E90009B0013449B00CA1AA2F10A0307EE903A62
:102EA000F8EEE77A9FED9F7A67EE877A38EE277A19
:102EB000A24BD3ED007A77EE277AA04BC3ED007AD0
:102EC0009E4BD3ED007AF5EEC07AF1EE10FA03D501
:102ED0009A4B4FF000021A60904BD3ED007A9FEDB1
:102EE000987A67EE877AB0EE670A0CF0E1FAF0EEB6
:102EF000407A9FED937A67EE877AB6EE007A37EEE6
:102F0000878A09F007FA02468B4B83FB021399105C
:102F1000D317C91A0B469B000B445B00D11A07EE6E
:102F2000901AF8EEE77A9FED7E7A67EE877A78EE70
:102F3000277A844BC3ED007A824BD3ED007AF5EE0D
:102F4000C07AF1EE10FA03D57E4B4FF000021A6002
:102F500009F0E0F90146784B83FB01239A10CB1767
:102F6000D21A13469B0013445B00CA1A531F07EE84
:102F7000903AF8EEE77A37EEA77A734BD3ED007A02
:102F800077EE277ADFED710AB0EE670A0CF0B6F93A
:102F9000F0EE407A6C4BC3ED007A6B4BD3ED007AC8
:102FA000F5EEC07AF1EE10FA09D5674BD3ED007A51
:102FB0009FED667A77EE877A634BC3ED007A564BC6
:102FC0001968634BA3FB0123DA0813469B001344E3
:102FD0005B00CA1A002A11D109F09CF902465D4B28
:102FE00083FB0231D317C91A0B465B000B445B000D
:102FF000D11ACBB20733DAB2574B1A70464B1B6863
:10300000564AA2FB0323D90A554BA3FB01231A09F5
:1030100013465B001344DB00CA1A134687F88E3050
:103020003D4B1B684F4AA2FB032359094D4BA3FBA1
:1030300001235A0913461B019B1A9B00CA1A134607
:1030400087F88D30344B1968464BA3FB01235A098E
:1030500013461B019B1A9B00CA1A134687F88C3033
:10306000072387F88B30092387F88A3040F2E97309
:10307000A7F888302D4B1B681846FDF76DFA0446FB
:103080000D462B4B1B681846FDF766FA02460B46A9
:10309000CDE9002322462B46334809F091FE2E4B02
:1030A0001B781946314809F08BFE1B4B1968284BD9
:1030B000A3FB01239A0813469B001344CA1A002A53
:1030C00078D197F88E30BB6197F88D203A6197F8E8
:1030D0008C00F860154B1B681846FDF73DFA044656
:1030E0000D46134BD3ED007AF1EE677A17EE903A66
:1030F0001846FDF731FA80468946124B1B68184680
:10310000FDF72AFA82468B460F4B1B681846FDF7DF
:1031100023FAC7E900012BE0A0070020A407002044
:10312000CDCC4C3DCDCCCC3DACC5A736000000206D
:10313000040000200AD7A33C6766666608000020EA
:103140009A99993EA8070020AC0700200000B443DC
:10315000CDCCCCCCABAAAA2A0C000020C5B3A2913E
:10316000ABAAAAAA89888888F80D0108180E010858
:1031700097F88B0097F88A60B7F888102E4BA3FB5E
:1031800001235A09642302FB03F3CB1A9BB20A936F
:103190000996089097ED007B8DED067BCDE904AB99
:1031A000CDE90289CDE90045FB683A69B969234850
:1031B00009F006FE224B1968224BA3FB01235A0893
:1031C00013465B001344CA1A002A4AD109F0A2F838
:1031D0000346194A82FB03121111DA178A1A3221A7
:1031E00001FB02F29A1A07EE902AF8EEE77A9FEDB9
:1031F000167A67EE877AB7EE007A77EE877AC7EDB0
:10320000217AD7F88400FDF7A7F9D7ED217AB7EE38
:10321000087AF4EEC77AF1EE10FA01D50B4B1AE0FA
:10322000D7ED217AB0EE007AF4EEC77AF1EE10FA1B
:1032300010D5074B0FE000BF1F85EB51400E010872
:10324000A0070020ABAAAAAA0AD7A33C940E0108A3
:10325000A00E0108E04B009302460B46DF4809F040
:10326000AFFDDF4B1968DF4BA3FB0123DA081346E0
:103270001B019B1ACA1A002A02D1DB4809F008FE7A
:10328000DA4B1B680133D94A1360D84B1B681D2BDE
:103290000BD9D64B00221A60D14B1B681946D44873
:1032A00009F08EFDD34809F0F3FD07F1300318460D
:1032B000FFF7C7F80346002B40F09080B7F9303095
:1032C00007EE903AB8EEE77ACB4BD3ED007A77EE83
:1032D000677AC7ED207AB7F9323007EE903AB8EE48
:1032E000E77AC54BD3ED017A77EE677AC7ED1F7A9F
:1032F000B7F9343007EE903AB8EEE77ABE4BD3ED2B
:10330000027A77EE677AC7ED1E7A97ED207ADFEDC5
:10331000BB6AC7EE267AC7ED1D7A97ED1F7ADFEDFF
:10332000B76AC7EE267AC7ED1C7A97ED1E7ADFEDF5
:10333000B36AC7EE267AC7ED1B7AD7ED1D7A9FEDEB
:10334000B07A27EE877AAF4BD3ED007ADFEDAE6A25
:1033500067EEA67A77EE277AAA4BC3ED007AD7ED0F
:103360001C7A9FEDA77A27EE877AA84BD3ED007AD7
:10337000DFEDA56A67EEA67A77EE277AA34BC3ED59
:10338000007AD7ED1B7A9FED9E7A27EE877AA04BC5
:10339000D3ED007ADFED9C6A67EEA67A77EE277AA6
:1033A0009B4BC3ED007A974BD3ED007A9FED997A52
:1033B00067EE877AC7ED2B7A944BD3ED007A9FEDB9
:1033C000957A67EE877AC7ED2A7A914BD3ED007A2A
:1033D0009FED907A67EE877AC7ED297A07F1280387
:1033E0001846FFF762F80346002B40F08180B7F9DA
:1033F000283007EE903AB8EEE77A874BD3ED007AA3
:1034000077EE677AC7ED1A7AB7F92A3007EE903A65
:10341000B8EEE77A804BD3ED017A77EE677AC7EDA5
:10342000197AB7F92C3007EE903AB8EEE77A7A4B72
:10343000D3ED027A77EE677AC7ED187A97ED1A7AAC
:10344000DFED766AC7EE267AC7ED177A97ED197A1F
:10345000DFED726AC7EE267AC7ED167A97ED187A15
:10346000DFED6E6AC7EE267AC7ED157AD7ED177ACB
:103470009FED637A27EE877A694BD3ED007ADFED13
:10348000626A67EEA67A77EE277A654BC3ED007A1B
:10349000D7ED167A9FED5A7A27EE877A614BD3EDF6
:1034A000007ADFED596A67EEA67A77EE277A5D4BF0
:1034B000C3ED007AD7ED157A9FED517A27EE877A22
:1034C000594BD3ED007ADFED506A67EEA67A77EEBE
:1034D000277A554BC3ED007A514B1B68C7F8A030D3
:1034E000504B1B68C7F89C304F4B1B68C7F898308F
:1034F00097ED2B7ADFED476AC7EE267AC7ED147A8F
:1035000097ED2A7ADFED436AC7EE267AC7ED137A84
:1035100097ED297ADFED3F6AC7EE267AC7ED127A7A
:10352000D7ED147AB1EE678AD7ED137A27EEA77A32
:10353000D7ED127A67EEA77A77EE277AB0EE670AB0
:103540000BF054FFF0EE407AF0EE670AB0EE480A56
:103550000BF0D2FE10EE103A1846FCF7FDFF1CA34C
:10356000D3E90023FDF750F802460B4610461946F2
:10357000FDF722FB03467B64D7ED120A97ED130A91
:103580000BF0BAFE10EE103A1846FCF7E5FF10A358
:10359000D3E90023FDF738F802460B4610461946DA
:1035A000FDF70AFB03463B64D7F8AC00FCF7D4FFF9
:1035B00080468946D7F8A800FCF7CEFF04460D46A2
:1035C000D7F8A400FCF7C8FF30E000BFAFF30080DD
:1035D000F8C1631ADCA54C40A80E0108B00E010822
:1035E000A007002089888888D80E0108B00700202D
:1035F0000C0F0108400F0108A805002000008046BC
:103600008FC2F53DC0050020AE47613FC4050020D4
:10361000C80500200AE81C41B4050020333383416B
:10362000CC050020D0050020D405002002460B4622
:10363000CDE90223CDE9004542464B463A4809F020
:10364000BFFBD7F8A000FCF787FF80468946D7F874
:103650009C00FCF781FF04460D46D7F89800FCF764
:103660007BFF02460B46CDE90223CDE900454246E9
:103670004B462E4809F0A4FB786CFCF76DFF04461E
:103680000D46386CFCF768FF02460B46CDE9002377
:1036900022462B46264809F093FB0221254801F0DB
:1036A0003CF9642000F0D4FD00F0C6FD0246D7F8D6
:1036B0009430D31A002BFFF635ABD7F89430C833CB
:1036C000C7F8943007F1200207F1240319461A487D
:1036D000FEF7E2FA0346002B7FF424ABD7ED087A1D
:1036E000DFED160AB0EE670AFFF7CCF887ED0F0A98
:1036F0007B6A1846FCF730FF804689463B6A1846CD
:10370000FCF72AFF04460D46F86BFCF725FF02463E
:103710000B46CDE90223CDE9004542464B46084819
:1037200009F04EFBFFF7FEBA7C0F0108AC0F010851
:10373000DC0F0108000002407007002080E6C5474A
:103740000C10010880B594B000AF07F120033022BF
:103750000021184609F08EFD07F10C0300221A60C3
:103760005A609A60DA601A610023BB60274B1B6CB9
:10377000264A43F080531364244B1B6C03F08053A0
:10378000BB60BB6800237B60214B1B68204A43F46D
:10379000404313601E4B1B6803F440437B607B680F
:1037A00001233B624FF480337B620223BB634FF4FF
:1037B0008003FB6306233B6448237B640223BB64D2
:1037C0000323FB6407F12003184602F013FB0346B2
:1037D000002B01D000F0C4F90F23FB6002233B61F2
:1037E00000237B614FF48053BB610023FB6107F131
:1037F0000C030221184602F075FD0346002B01D090
:1038000000F0AEF900BF5037BD4680BD0038024021
:103810000070004080B500AF174B184A1A60164B75
:103820004FF482725A60144B00229A60124B0022AD
:10383000DA60114B00221A610F4B00225A610E4BC5
:103840004FF400729A610C4B1022DA610A4B00228D
:103850001A62094B00225A62074B00229A62064BF9
:103860000A22DA62044802F01DFF0346002B01D051
:1038700000F076F900BF80BDD8050020003001407F
:1038800080B500AF174B184A1A60164B4FF482727E
:103890005A60144B00229A60124B0022DA60114BDE
:1038A00000221A610F4B00225A610E4B4FF4007236
:1038B0009A610C4B0022DA610A4B00221A62094B12
:1038C00000225A62074B00229A62064B0A22DA62F1
:1038D000044802F0E7FE0346002B01D000F040F957
:1038E00000BF80BD300600200038004080B500AF2A
:1038F000174B184A1A60164B4FF482725A60144BD9
:1039000000229A60124B0022DA60114B00221A61E9
:103910000F4B00225A610E4B4FF400729A610C4B10
:103920000022DA610A4B00221A62094B00225A6215
:10393000074B00229A62064B0A22DA62044802F020
:10394000B1FE0346002B01D000F00AF900BF80BD94
:1039500088060020003C004080B500AF114B124AA1
:103960001A60104B4FF416525A600E4B00229A60A8
:103970000C4B0022DA600B4B00221A61094B0C221F
:103980005A61084B00229A61064B0022DA61054811
:1039900003F05AFC0346002B01D000F0E1F800BF11
:1039A00080BD00BFE00600200010014080B500AFE0
:1039B000114B124A1A60104B4FF4E1325A600E4B11
:1039C00000229A600C4B0022DA600B4B00221A6135
:1039D000094B0C225A61084B00229A61064B0022C7
:1039E000DA61054803F030FC0346002B01D000F0FB
:1039F000B7F800BF80BD00BF28070020004400408A
:103A000080B588B000AF07F10C0300221A605A603D
:103A10009A60DA601A610023BB60304B1B6B2F4A3F
:103A200043F0800313632D4B1B6B03F08003BB60DB
:103A3000BB6800237B60294B1B6B284A43F00103C2
:103A40001363264B1B6B03F001037B607B68002331
:103A50003B60224B1B6B214A43F0020313631F4B55
:103A60001B6B03F002033B603B68002202211C48F1
:103A700000F03AFF002241F202011A4800F034FF40
:103A800048F21203FB6001233B6100237B610023AA
:103A9000BB6107F10C031946114800F0A1FD41F28A
:103AA0000203FB6001233B6100237B610023BB61B8
:103AB00007F10C0319460B4800F092FD012248F271
:103AC0001001074800F010FF012241F202010548F1
:103AD00000F00AFF00BF2037BD4680BD003802401D
:103AE000000002400004024080B584B000AF4FF4F3
:103AF0000043174A17491848FDF719FC0346002BE5
:103B000001D000F02DF80023022202211248FDF717
:103B100030FD0323032201210F48FDF758FD3A1D14
:103B200007F1080319460C48FEF7B6F80346002BC8
:103B300009D1D7ED017ADFED090AB0EE670AFEF789
:103B4000A1FE87ED030A00BF1037BD4680BD00BF50
:103B500000000240880600207007002080E6C5476C
:103B600080B400AF72B600BF00BFFDE780B584B07F
:103B700000AF78600B467B8015E07B88402B28BF28
:103B80004023FB8100BFFB891946786807F070FF6E
:103B90000346012BF7D0FB897A6813447B607A884F
:103BA000FB89D31A7B807B88002BE6D10023184643
:103BB0001037BD4680BD000080B586B000AFF8600C
:103BC000B9607A6000237B6100233B612DE03B6993
:103BD000BA6813441B780A2B10D17B697D2B07DD53
:103BE0007B699BB219461A48FFF7C0FF00237B612F
:103BF0007B695A1C7A61164A0D21D1547B697E2B50
:103C000007DD7B699BB219461148FFF7AFFF002320
:103C10007B613B69BA681A447B69591C79611178E8
:103C20000B4AD1543B6901333B613A697B689A4244
:103C3000CDDB7B69002B05D07B699BB2194604481C
:103C4000FFF794FF7B6818461837BD4680BD00BF5C
:103C5000B407002080B483B000AF00237B60104B1A
:103C60005B6C0F4A43F4804353640D4B5B6C03F46D
:103C700080437B607B6800233B60094B1B6C084AD8
:103C800043F080531364064B1B6C03F080533B607E
:103C90003B6800BF0C37BD465DF8047B704700BF32
:103CA0000038024080B58EB000AF786007F1240381
:103CB00000221A605A609A60DA601A617B681B6899
:103CC0004B4A93422CD100233B624A4B5B6C494ADE
:103CD00043F480535364474B5B6C03F480533B6263
:103CE0003B6A0023FB61434B1B6B424A43F00103D9
:103CF0001363404B1B6B03F00103FB61FB69E02383
:103D00007B620223BB620023FB6203233B63052328
:103D10007B6307F124031946374800F061FC63E038
:103D20007B681B68354A93422DD10023BB61314B20
:103D30001B6C304A43F4804313642E4B1B6C03F41A
:103D40008043BB61BB6900237B612A4B1B6B294A03
:103D500043F002031363274B1B6B03F002037B61E9
:103D60007B694FF460437B620223BB620023FB62EA
:103D700003233B6305237B6307F124031946204893
:103D800000F02EFC30E07B681B681E4A93422BD16A
:103D900000233B61174B1B6C164A43F4004313642A
:103DA000144B1B6C03F400433B613B690023FB6035
:103DB000104B1B6B0F4A43F0020313630D4B1B6B3D
:103DC00003F00203FB60FB6838237B620223BB62C3
:103DD0000023FB6203233B6306237B6307F1240379
:103DE0001946074800F0FCFB00BF3837BD4680BDD0
:103DF000003001400038024000000240003800401E
:103E000000040240003C004080B58CB000AF7860F8
:103E100007F11C0300221A605A609A60DA601A6186
:103E20007B681B68364A934234D10023BB61354B13
:103E30005B6C344A43F010035364324B5B6C03F009
:103E40001003BB61BB6900237B612E4B1B6B2D4AAA
:103E500043F0020313632B4B1B6B03F002037B61E4
:103E60007B69C023FB6102233B6200237B62032347
:103E7000BB620723FB6207F11C031946224800F0CE
:103E8000AFFB00220021252000F0E1FA252000F000
:103E9000FAFA30E07B681B681C4A93422BD100235E
:103EA0003B61184B1B6C174A43F400331364154BEA
:103EB0001B6C03F400333B613B690023FB60114B37
:103EC0001B6B104A43F0010313630E4B1B6B03F093
:103ED0000103FB60FB680C23FB6102233B620023B0
:103EE0007B620323BB620723FB6207F11C031946B5
:103EF000074800F075FB00BF3037BD4680BD00BFEE
:103F0000001001400038024000040240004400401C
:103F10000000024080B400AF00BFFDE780B400AFF6
:103F200000BFFDE780B400AF00BFFDE780B400AF85
:103F300000BFFDE780B400AF00BFFDE780B400AF75
:103F400000BFBD465DF8047B704780B400AF00BF82
:103F5000BD465DF8047B704780B400AF00BFBD462E
:103F60005DF8047B704780B500AF00F051F900BFE9
:103F700080BD000080B500AFFDF71EFF024803F0D2
:103F80003FFA00BF80BD00BFE006002080B500AF53
:103F9000024800F020FE00BF80BD00BF1C1D0020B5
:103FA00080B400AF01231846BD465DF8047B70471E
:103FB00080B582B000AF7860396009F0ADF9034692
:103FC00016221A604FF0FF3318460837BD4680BDF1
:103FD00080B582B000AF78604FF0FF317868FFF7AE
:103FE000E7FF00BFFDE780B586B000AFF860B960BD
:103FF0007A6000237B610AE0AFF300800146BB6872
:104000005A1CBA60CAB21A707B6901337B617A6943
:104010007B689A42F0DB7B6818461837BD4680BD46
:1040200080B483B000AF78604FF0FF3318460C3790
:10403000BD465DF8047B704780B483B000AF786004
:1040400039603B684FF400525A60002318460C3721
:10405000BD465DF8047B704780B483B000AF7860E4
:10406000012318460C37BD465DF8047B704780B4C9
:1040700085B000AFF860B9607A6000231846143745
:10408000BD465DF8047B704780B586B000AF7860B0
:10409000144A154BD31A7B617B693B61134B1B6838
:1040A000002B02D1114B124A1A60104B1A687B6820
:1040B00013443A699A4207D209F02EF903460C22BA
:1040C0001A604FF0FF3309E0084B1B68FB60074B99
:1040D0001A687B681344054A1360FB681846183752
:1040E000BD4680BD0000022000040000340800200E
:1040F0007025002080B400AF064BD3F88830054A05
:1041000043F47003C2F8883000BFBD465DF8047BFD
:10411000704700BF00ED00E0DFF834D0FFF7EAFFA2
:104120000C480D490D4A002302E0D458C450043312
:10413000C4188C42F9D30A4A0A4C002301E01360E8
:104140000432A242FBD309F0EDF8FEF709FD7047F7
:104150000000022000000020D4020020981801086E
:10416000D80200206C250020FEE7000080B500AFDB
:104170000E4B1B680D4A43F4007313600B4B1B6816
:104180000A4A43F480631360084B1B68074A43F4F0
:1041900080731360032000F04FF90F2000F008F83F
:1041A000FFF758FD0023184680BD00BF003C0240C9
:1041B00080B582B000AF7860124B1A68124B1B7842
:1041C00019464FF47A73B3FBF1F3B2FBF3F31846DD
:1041D00000F067F90346002B01D001230EE07B6855
:1041E0000F2B0AD8002279684FF0FF3000F02FF92A
:1041F000064A7B681360002300E001231846083755
:10420000BD4680BD100000201800002014000020D2
:1042100080B400AF064B1B781A46064B1B6813444C
:10422000044A136000BFBD465DF8047B704700BFC1
:10423000180000203808002080B400AF034B1B6832
:104240001846BD465DF8047B704700BF3808002063
:1042500080B584B000AF7860FFF7EEFFB8607B6890
:10426000FB60FB68B3F1FF3F05D00A4B1B781A4691
:10427000FB681344FB6000BFFFF7DEFF0246BB682C
:10428000D31AFA689A42F7D800BF00BF1037BD466C
:1042900080BD00BF1800002080B485B000AF7860FA
:1042A0007B6803F00703FB600C4BDB68BB60BA68FC
:1042B0004FF6FF031340BB60FB681A02BB68134351
:1042C00043F0BF6343F40033BB60044ABB68D36070
:1042D00000BF1437BD465DF8047B704700ED00E079
:1042E00080B400AF044BDB681B0A03F007031846D9
:1042F000BD465DF8047B704700ED00E080B483B0FC
:1043000000AF0346FB7197F90730002B0BDBFB79FD
:1043100003F01F02074997F907305B09012000FAF3
:1043200002F241F8232000BF0C37BD465DF8047B44
:10433000704700BF00E100E080B483B000AF0346E7
:104340003960FB7197F90730002B0ADB3B68DAB262
:104350000C4997F907301201D2B20B4483F80023BD
:104360000AE03B68DAB20849FB7903F00F03043B2B
:104370001201D2B20B441A7600BF0C37BD465DF86D
:10438000047B704700E100E000ED00E080B489B0FC
:1043900000AFF860B9607A60FB6803F00703FB6167
:1043A000FB69C3F10703042B28BF0423BB61FB692E
:1043B0000433062B02D9FB69033B00E000237B6139
:1043C0004FF0FF32BB6902FA03F3DA43BB681A40CD
:1043D0007B699A404FF0FF317B6901FA03F3D943BF
:1043E0007B680B40134318462437BD465DF8047BB9
:1043F0007047000080B582B000AF78607B68013BF9
:10440000B3F1807F01D301230FE00A4A7B68013BAF
:1044100053600F214FF0FF30FFF78EFF054B002256
:104420009A60044B07221A60002318460837BD46DD
:1044300080BD00BF10E000E080B582B000AF7860C2
:104440007868FFF729FF00BF0837BD4680BD80B5FB
:1044500086B000AF0346B9607A60FB7300237B61CE
:10446000FFF73EFF78617A68B9687869FFF78EFFD9
:10447000024697F90F3011461846FFF75DFF00BF5F
:104480001837BD4680BD80B582B000AF0346FB71D2
:1044900097F907301846FFF731FF00BF0837BD46D0
:1044A00080BD80B582B000AF78607868FFF7A2FF6A
:1044B000034618460837BD4680BD80B584B000AFBE
:1044C00078607B689B6DFB60FFF7B6FEB8607B6829
:1044D00093F83530DBB2022B08D07B6880225A6516
:1044E0007B68002283F83420012352E07B681B683C
:1044F0001A687B681B6822F016021A607B681B68CA
:104500005A697B681B6822F080025A617B681B6CC9
:10451000002B03D17B689B6C002B07D07B681B684A
:104520001A687B681B6822F008021A607B681B68A7
:104530001A687B681B6822F001021A6013E0FFF71B
:104540007BFE0246BB68D31A052B0CD97B68202260
:104550005A657B68032283F835207B68002283F844
:104560003420032315E07B681B681B6803F00103FC
:10457000002BE4D17B68DB6D3F229A40FB689A6098
:104580007B68012283F835207B68002283F8342081
:10459000002318461037BD4680BD80B483B000AFFD
:1045A00078607B6893F83530DBB2022B04D07B68EF
:1045B00080225A6501230CE07B68052283F83520B0
:1045C0007B681B681A687B681B6822F001021A600E
:1045D000002318460C37BD465DF8047B7047000089
:1045E00080B489B000AF7860396000237B6100231C
:1045F0003B610023BB610023FB6159E10122FB69A0
:1046000002FA03F37B613B681B687A6913403B61E4
:104610003A697B699A4240F048813B685B6803F0E5
:104620000303012B05D03B685B6803F00303022BF7
:1046300030D17B689B68BB61FB695B00032202FA97
:1046400003F3DB43BA691340BB613B68DA68FB697B
:104650005B0002FA03F3BA691343BB617B68BA6972
:104660009A607B685B68BB610122FB6902FA03F315
:10467000DB43BA691340BB613B685B681B0903F00D
:104680000102FB6902FA03F3BA691343BB617B6859
:10469000BA695A603B685B6803F00303032B17D0C9
:1046A0007B68DB68BB61FB695B00032202FA03F3F2
:1046B000DB43BA691340BB613B689A68FB695B00E6
:1046C00002FA03F3BA691343BB617B68BA69DA6023
:1046D0003B685B6803F00303022B23D1FB69DA0814
:1046E0007B68083253F82230BB61FB6903F0070393
:1046F0009B000F2202FA03F3DB43BA691340BB614C
:104700003B681A69FB6903F007039B0002FA03F395
:10471000BA691343BB61FB69DA087B680832B9697F
:1047200043F822107B681B68BB61FB695B000322B6
:1047300002FA03F3DB43BA691340BB613B685B6871
:1047400003F00302FB695B0002FA03F3BA69134347
:10475000BB617B68BA691A603B685B6803F44033ED
:10476000002B00F0A2800023FB60574B5B6C564A85
:1047700043F480435364544B5B6C03F48043FB600D
:10478000FB68524AFB699B08023352F82330BB6135
:10479000FB6903F003039B000F2202FA03F3DB43E0
:1047A000BA691340BB617B68494A934219D07B6860
:1047B000484A934213D07B68474A93420DD07B68A6
:1047C000464A934207D07B68454A934201D104236D
:1047D00008E0072306E0032304E0022302E00123AC
:1047E00000E00023FA6902F0030292009340BA69E4
:1047F0001343BB613549FB699B080233BA6941F831
:104800002320384B9B68BB613B69DB43BA6913408B
:10481000BB613B685B6803F48013002B03D0BA696B
:104820003B691343BB612F4ABB6993602D4BDB6827
:10483000BB613B69DB43BA691340BB613B685B68A2
:1048400003F40013002B03D0BA693B691343BB6127
:10485000244ABB69D360234B5B68BB613B69DB4384
:10486000BA691340BB613B685B6803F40033002BFB
:1048700003D0BA693B691343BB611A4ABB695360F1
:10488000184B1B68BB613B69DB43BA691340BB61D2
:104890003B685B6803F48033002B03D0BA693B6943
:1048A0001343BB610F4ABB691360FB690133FB61B2
:1048B000FB690F2B7FF6A2AE00BF00BF2437BD46B9
:1048C0005DF8047B704700BF0038024000380140AB
:1048D000000002400004024000080240000C0240B8
:1048E00000100240003C014080B483B000AF78600B
:1048F0000B467B8013467B707B78002B03D07A8835
:104900007B689A6103E07B881A047B689A6100BF28
:104910000C37BD465DF8047B704780B485B000AFAE
:1049200078600B467B807B685B69FB607A88FB68FC
:1049300013401A04FB68D9437B880B401A437B68F9
:104940009A6100BF1437BD465DF8047B704780B59F
:1049500086B002AF78607B68002B01D1012301E1B2
:104960007B681B68BB607B6893F89534DBB2002BD7
:1049700006D17B68002283F89424786807F0C0F998
:104980007B68032283F89524BB68B3F1A04F02D162
:104990007B6800229A717B681B68184603F083FDD0
:1049A0007B6818687B681A7C8DF8002004330ECB76
:1049B00003F062FC0346002B05D07B68022283F8DB
:1049C00095240123CEE07B681B680021184603F084
:1049D0007BFD0346002B05D07B68022283F89524DB
:1049E0000123BFE00023FB734AE0FA7B796813469A
:1049F000DB0013449B000B44153301221A70FA7B31
:104A000079681346DB0013449B000B441433FA7B94
:104A10001A70FA7BFB7B98B279681346DB0013446B
:104A20009B000B442E3302461A80FA7B79681346AA
:104A3000DB0013449B000B44183300221A70FA7BEE
:104A400079681346DB0013449B000B441C3300229F
:104A50001A60FA7B79681346DB0013449B000B4411
:104A6000203300221A60FA7B79681346DB00134476
:104A70009B000B44243300221A60FB7B0133FB7341
:104A80007B681B79FA7B9A42AFD30023FB7344E027
:104A9000FA7B79681346DB0013449B000B4403F256
:104AA000552300221A70FA7B79681346DB00134401
:104AB0009B000B4403F51573FA7B1A70FA7B796837
:104AC0001346DB0013449B000B4403F516730022CE
:104AD0001A70FA7B79681346DB0013449B000B4481
:104AE00003F5177300221A60FA7B79681346DB001E
:104AF00013449B000B4403F5187300221A60FA7BE1
:104B000079681346DB0013449B000B4403F51973CB
:104B100000221A60FB7B0133FB737B681B79FA7BF5
:104B20009A42B5D37B6818687B681A7C8DF80020A0
:104B300004330ECB03F014FD0346002B05D07B6835
:104B4000022283F8952401230CE07B6800225A742A
:104B50007B68012283F895247B681B68184604F063
:104B60005EFD002318461037BD4680BD80B584B079
:104B700000AF78607B681B68FB607B6893F89434B7
:104B8000012B01D1022322E07B68012283F89424C7
:104B9000FB68DB6803F04003002B09D07B685B7B7C
:104BA000012B05D1FB689B6B43F48032FB689A6351
:104BB0007B681B68184603F065FC7B681B68184619
:104BC00004F00CFD7B68002283F89424002318462F
:104BD0001037BD4680BD90B58DB000AF78607B6862
:104BE0001B683B623B6AFB617B681B68184604F0EC
:104BF000CAFD0346002B40F08C847B681B68184676
:104C000004F02EFD0346002B00F08284FB6903F5BF
:104C100000639B681B0AC3F30D027B68C3F8D424AE
:104C20007B681B68184604F01BFD034603F0020373
:104C3000022B07D17B681B685A697B681B6802F0EE
:104C400002025A617B681B68184604F009FD03469E
:104C500003F01003102B61D17B681B689A697B6895
:104C60001B6822F010029A613B6A1B6ABB61BB6938
:104C700003F00F021346DB0013449B0003F514738B
:104C80007A68134404337B61BB6903F4F013B3F512
:104C9000802F24D1BA6947F6F0731340002B35D02A
:104CA0007B69D968BB691B099BB2C3F30A039BB23A
:104CB0001A46386A04F040FB7B69DA68BB691B0955
:104CC000C3F30A031A447B69DA607B695A69BB69DA
:104CD0001B09C3F30A031A447B695A6116E0BB69D6
:104CE00003F4F013B3F5402F10D17B6803F29C431B
:104CF00008221946386A04F01FFB7B695A69BB69B0
:104D00001B09C3F30A031A447B695A617B681B6859
:104D10009A697B681B6842F010029A617B681B6885
:104D2000184604F09DFC034603F40023B3F5002F5E
:104D300040F0A78000237B627B681B68184604F064
:104D4000A2FCB86299E0BB6A03F00103002B00F0FB
:104D50008E807B681B687A6AD2B21146184604F0CE
:104D6000C6FC38613B6903F00103002B0CD07B6A61
:104D70005A01FB69134403F530631A46012393601B
:104D8000796A786800F0A4FE3B6903F00803002B01
:104D90000CD07B6A5A01FB69134403F530631A4651
:104DA00008239360796A786800F07AFF3B6903F022
:104DB0001003002B08D07B6A5A01FB69134403F5EA
:104DC00030631A46102393603B6903F00203002B03
:104DD00030D03B6A5B6903F08003802B09D1FB690B
:104DE00003F500635B68FA6902F5006243F48063CF
:104DF00053607A6A1346DB0013449B0003F5147377
:104E00007A68134404337B617B69DB78012B08D11A
:104E10007B690022DA707B6ADBB21946786807F09A
:104E20006BF87B6A5A01FB69134403F530631A4639
:104E3000022393603B6903F02003002B08D07B6AB8
:104E40005A01FB69134403F530631A46202393602B
:104E50003B6903F40053002B09D07B6A5A01FB69BC
:104E6000134403F530631A464FF4005393607B6A92
:104E700001337B62BB6A5B08BB62BB6A002B7FF4B9
:104E800062AF7B681B68184604F0EAFB034603F434
:104E90008023B3F5802F40F0DB807B681B681846C9
:104EA00004F00BFCB86200237B62CDE0BB6A03F028
:104EB0000103002B00F0C2807B681B687A6AD2B2C3
:104EC0001146184604F031FC38613B6903F00103D8
:104ED000002B57D07B6A03F00F03012202FA03F381
:104EE000FB60FB6903F500635A6BFB68DB43F96900
:104EF00001F5006113404B637B6A5A01FB6913445F
:104F000003F510631A46012393607B689B79012B9C
:104F100032D179687A6A1346DB0013449B000B4454
:104F20002033196878687A6A1346DB0013449B00C3
:104F300003441C331B68194478687A6A1346DB0003
:104F400013449B000344203319607B6A002B13D168
:104F500079687A6A1346DB0013449B000B442433C0
:104F60001B68002B08D17B6818687B6803F29C43A0
:104F70001A46012104F038FC7B6ADBB219467868D6
:104F800006F03FFF3B6903F00803002B08D07B6A63
:104F90005A01FB69134403F510631A460823936012
:104FA0003B6903F01003002B08D07B6A5A01FB69B0
:104FB000134403F510631A46102393603B6903F012
:104FC0004003002B08D07B6A5A01FB69134403F5A8
:104FD00010631A46402393603B6903F00203002BE1
:104FE00023D0796A386A03F01FFC7A6A1346DB0023
:104FF00013449B0010337A68134404337B617B694C
:10500000DB78012B08D17B690022DA707B6ADBB286
:105010001946786806F082FF7B6A5A01FB691344DF
:1050200003F510631A46022393603B6903F0800383
:10503000002B03D0796A786800F0BDFC7B6A0133ED
:105040007B62BB6A5B08BB62BB6A002B7FF42EAF3E
:105050007B681B68184604F003FB034603F000431B
:10506000B3F1004F22D1FB6903F500635B68FA6975
:1050700002F5006223F0010353607B6893F8CC349F
:10508000012B08D17B68002283F8CC2400217868AA
:1050900000F0A4FE02E0786806F020FF7B681B6841
:1050A0005A697B681B6802F000425A617B681B6882
:1050B000184604F0D5FA034603F40063B3F5006F15
:1050C00012D1FB6903F500639B6803F00103012B18
:1050D00002D1786806F0DCFE7B681B685A697B6841
:1050E0001B6802F400625A617B681B68184604F072
:1050F000B7FA034603F48053B3F5805F40F0B780FE
:10510000FB6903F500635B68FA6902F5006223F04E
:10511000010353607B681B681021184603F084FB71
:105120000023FB6246E0FB6A5A01FB69134403F566
:1051300010631A464FF67F339360FB6A5A01FB698E
:10514000134403F510631B68FA6A5101FA690A44B3
:1051500002F5106223F400131360FB6A5A01FB6925
:10516000134403F530631A464FF67F339360FB6AAE
:105170005A01FB69134403F530631B68FA6A510155
:10518000FA690A4402F5306223F400131360FB6AE3
:105190005A01FB69134403F530631B68FA6A510135
:1051A000FA690A4402F5306243F000631360FB6A57
:1051B0000133FB627B681B791A46FB6A9342B2D3C8
:1051C000FB6903F50063DB69FA6902F5006243F0ED
:1051D0000113D3617B68DB7B002B16D0FB6903F5E1
:1051E0000063D3F88430FA6902F5006243F00B03E0
:1051F000C2F88430FB6903F500635B6CFA6902F561
:10520000006243F00B03536415E0FB6903F5006390
:105210005B69FA6902F5006243F4005343F02B0323
:105220005361FB6903F500631B69FA6902F50062CB
:1052300043F00B031361FB6903F500631B68FA6914
:1052400002F5006223F4FE6313607B6818687B68D4
:1052500099797B6803F29C431A4604F0C5FA7B688F
:105260001B685A697B681B6802F480525A617B682C
:105270001B68184604F0F4F9034603F40053B3F531
:10528000005F23D17B681B68184604F08AFA7B68AC
:105290001B68184603F041FB03461A467B68DA7127
:1052A0007B681C6801F0CAF901467B68DB791A4605
:1052B000204603F045F8786806F0CBFD7B681B6854
:1052C0005A697B681B6802F400525A617B681B684C
:1052D000184604F0C5F9034603F00803082B0AD169
:1052E000786806F0A8FD7B681B685A697B681B68B4
:1052F00002F008025A617B681B68184604F0B0F996
:10530000034603F08003802B23D13B6A9B6923F083
:1053100080023B6A9A6101237B6214E079687A6AB1
:105320001346DB0013449B000B4403F257231B7806
:10533000012B05D17B6ADBB21946786800F00AFBC5
:105340007B6A01337B627B681B791A467B6A9342D6
:10535000E4D37B681B68184604F082F9034603F423
:105360008013B3F5801F3CD101237B622BE07B6A65
:105370005A01FB69134403F510631B68BB6179682C
:105380007A6A1346DB0013449B000B4418331B78E6
:10539000012B15D1BB69002B12DA79687A6A1346A2
:1053A000DB0013449B000B44173301221A707B6A05
:1053B000DBB263F07F03DBB21946786800F0CAFA0B
:1053C0007B6A01337B627B681B791A467B6A934256
:1053D000CDD37B681B685A697B681B6802F4801216
:1053E0005A617B681B68184604F03AF9034603F4D7
:1053F0000013B3F5001F56D101237B6245E07B6AA1
:105400005A01FB69134403F530631B68BB6179687B
:105410007A6A1346DB0013449B000B4403F51673B2
:105420001B78012B2ED1BB69002B2BDABB691A0C20
:105430007B68D3F8D434534003F00103002B21D10F
:1054400079687A6A1346DB0013449B000B4403F22D
:10545000572301221A703B6A9B6943F080023B6A22
:105460009A613B6A5B6903F08003002B0AD1FB69F8
:1054700003F500635B68FA6902F5006243F40073A8
:10548000536008E07B6A01337B627B681B791A46B4
:105490007B6A9342B3D37B681B685A697B681B683D
:1054A00002F400125A617B681B68184604F0D8F8B1
:1054B000034603F08043B3F1804F0AD1786806F0C9
:1054C0003FFD7B681B685A697B681B6802F080425D
:1054D0005A617B681B68184604F0C2F8034603F063
:1054E0000403042B15D17B681B685B68BB61BB6937
:1054F00003F00403002B02D0786806F02FFD7B68D0
:105500001B6859687B681B68BA690A435A6000E0E7
:1055100000BF3437BD4690BD80B582B000AF786023
:105520000B46FB707B6893F89434012B01D1022366
:1055300012E07B68012283F894247B68FA785A741D
:105540007B681B68FA781146184604F021F87B68DE
:10555000002283F89424002318460837BD4680BDF6
:1055600080B584B000AF7860084611461A460346FD
:10557000FB700B463B801346BB700023FB7297F910
:105580000330002B0FDAFB7803F00F021346DB0029
:1055900013449B0010337A6813440433FB60FB68A8
:1055A00001225A700FE0FB7803F00F021346DB0074
:1055B00013449B0003F514737A6813440433FB60AF
:1055C000FB6800225A70FB7803F00F03DAB2FB6825
:1055D0001A703B88C3F30A02FB689A60FB68BA78CA
:1055E0001A71FB685B78002B04D0FB681B781A46A5
:1055F000FB685A83BB78022B02D1FB6800225A71E8
:105600007B6893F89434012B01D102230EE07B6870
:10561000012283F894247B681B68F968184603F01C
:10562000A1F97B68002283F89424FB7A184610378E
:10563000BD4680BD80B584B000AF78600B46FB707E
:1056400097F90330002B0FDAFB7803F00F021346B3
:10565000DB0013449B0010337A6813440433FB606F
:10566000FB6801225A700FE0FB7803F00F0213462B
:10567000DB0013449B0003F514737A68134404336E
:10568000FB60FB6800225A70FB7803F00F03DAB26C
:10569000FB681A707B6893F89434012B01D10223C4
:1056A0000EE07B68012283F894247B681B68F9680C
:1056B000184603F0DFF97B68002283F89424002366
:1056C00018461037BD4680BD80B586B000AFF86083
:1056D0007A603B600B46FB72FB7A03F00F021346C5
:1056E000DB0013449B0003F51473FA68134404337E
:1056F0007B617B697A68DA607B693A681A617B69E9
:1057000000225A617B6900225A70FB7A03F00F0372
:10571000DAB27B691A70FB689B79012B02D17A6837
:105720007B69DA61FB681868FB689B791A467969BE
:1057300003F07CFA002318461837BD4680BD80B4BC
:1057400083B000AF78600B46FB70FB7803F00F026C
:1057500079681346DB0013449B000B4403F51A736E
:105760001B6818460C37BD465DF8047B704780B552
:1057700086B000AFF8607A603B600B46FB72FB7A44
:1057800003F00F021346DB0013449B001033FA684A
:10579000134404337B617B697A68DA607B693A6819
:1057A0001A617B6900225A617B6901225A70FB7A77
:1057B00003F00F03DAB27B691A70FB689B79012B47
:1057C00002D17A687B69DA61FB681868FB689B79AB
:1057D0001A46796903F02AFA002318461837BD469D
:1057E00080BD80B584B000AF78600B46FB70FB785D
:1057F00003F00F037A681279934201D901234FE035
:1058000097F90330002B0FDAFB7803F00F021346F1
:10581000DB0013449B0010337A6813440433FB60AD
:10582000FB6801225A700DE0FA781346DB0013443E
:105830009B0003F514737A6813440433FB60FB6820
:1058400000225A70FB6801229A70FB7803F00F0364
:10585000DAB2FB681A707B6893F89434012B01D19B
:1058600002231DE07B68012283F894247B681B6877
:10587000F968184603F0B8FDFB7803F00F03002B1E
:1058800009D17B6818687B6899797B6803F29C432F
:105890001A4603F0A9FF7B68002283F894240023B2
:1058A00018461037BD4680BD80B584B000AF786023
:1058B0000B46FB70FB7803F00F037A681279934272
:1058C00001D9012342E097F90330002B0FDAFB786E
:1058D00003F00F021346DB0013449B0010337A6879
:1058E00013440433FB60FB6801225A700FE0FB781D
:1058F00003F00F021346DB0013449B0003F51473FF
:105900007A6813440433FB60FB6800225A70FB681A
:1059100000229A70FB7803F00F03DAB2FB681A706A
:105920007B6893F89434012B01D102230EE07B684D
:10593000012283F894247B681B68F968184603F0F9
:10594000C1FD7B68002283F8942400231846103799
:10595000BD4680BD80B584B000AF78600B46FB705B
:1059600097F90330002B0CDAFB7803F00F02134693
:10597000DB0013449B0010337A6813440433FB604C
:105980000CE0FB7803F00F021346DB0013449B008E
:1059900003F514737A6813440433FB607B681B6857
:1059A000F968184603F0E0FB0346FB72FB7A1846E1
:1059B0001037BD4680BD80B58AB002AF78603960CF
:1059C0007B681B687B617B693B613A681346DB003F
:1059D00013449B0010337A6813440433FB60FB6864
:1059E0005A69FB681B699A4201D901236BE0FB6885
:1059F0001A69FB685B69D31AFB61FB689B68FA69EB
:105A00009A4202D9FB689B68FB61FB6903339B08E0
:105A1000BB612AE0FB681A69FB685B69D31AFB610A
:105A2000FB689B68FA699A4202D9FB689B68FB6134
:105A3000FB6903339B08BB61FB68D9683B68DAB23A
:105A4000FB6998B27B689B7900930346786903F001
:105A500035FCFB68DA68FB691A44FB68DA60FB68AE
:105A60005A69FB691A44FB685A613B685A013B69F1
:105A7000134403F510639B699BB2BA699A4209D833
:105A8000FB685A69FB681B699A4203D2FB681B6971
:105A9000002BBFD1FB681A69FB685B699A4211D879
:105AA0003B6803F00F03012202FA03F3BB603B697A
:105AB00003F500635A6BBB68DB43396901F500618C
:105AC00013404B63002318462037BD4680BD0000BD
:105AD00080B588B000AF786039607B681B68FB6177
