:020000040800F2
:10000000000002201D0F00083D0D0008450D0008EE
:100010004D0D0008550D00085D0D000800000000A2
:10002000000000000000000000000000650D000856
:10003000730D000800000000810D00088F0D0008FE
:100040006D0F00086D0F00086D0F00086D0F0008A0
:100050006D0F00086D0F00086D0F00086D0F000890
:100060006D0F00086D0F00086D0F00086D0F000880
:100070006D0F00086D0F00086D0F00086D0F000870
:100080006D0F00086D0F00086D0F000800000000E4
:100090000000000000000000000000006D0F0008DC
:1000A0006D0F00086D0F00086D0F00086D0F000840
:1000B0006D0F00086D0F00086D0F00086D0F000830
:1000C0006D0F00086D0F00086D0F00086D0F000820
:1000D0006D0F00086D0F00086D0F00080000000094
:1000E0006D0F00086D0F00086D0F00080000000084
:1000F0000000000000000000000000006D0F00087C
:10010000000000006D0F00086D0F00086D0F000863
:1001100000000000000000000000000000000000DF
:100120006D0F00086D0F00086D0F00086D0F0008BF
:100130006D0F00080000000000000000000000003B
:100140000000000000000000000000009D0D0008FD
:100150006D0F00086D0F00086D0F00086D0F00088F
:100160006D0F00086D0F0008000000000000000087
:10017000000000000000000000000000000000007F
:10018000000000006D0F00080000000000000000EB
:080190006D0F00086D0F00085F
:1001A00010B5054C237833B9044B13B10448AFF3B1
:1001B00000800123237010BD5801002000000000C2
:1001C000C493000808B5034B1BB103490348AFF3C0
:1001D000008008BD000000005C010020C4930008FE
:1001E00001F0FF01102A2BDB10F0070F08D010F8E8
:1001F000013B013A8B422DD010F0070F42B3F6D1EC
:10020000F0B441EA012141EA014122F007047FF004
:1002100000070023F0E80256083C85EA010586EA5B
:10022000010685FA47F5A3FA87F586FA47F6A5FA97
:1002300087F68EB9EED1F0BC01F0FF0102F00702A3
:1002400032B110F8013B013A83EA010313B1F8D14E
:100250000020704701387047002D06BF354603382F
:10026000073815F0010F07D1013015F4807F02BF68
:10027000013015F4C03F0130F0BC0138704700BFB9
:1002800053B94AB9002908BF00281CBF4FF0FF31FD
:100290004FF0FF3000F088B9ADF1080C6DE904CEE5
:1002A00000F006F8DDF804E0DDE9022304B0704751
:1002B0002DE9F047089D8E4604468846002B4AD11A
:1002C0008A42174662D9B2FA82F64EB1C6F12003CD
:1002D00001FA06F820FA03F3B74043EA0808B440ED
:1002E0004FEA174E1FFA87FCB8FBFEF1230C0EFBFA
:1002F000118843EA084301FB0CF29A4209D9FB1822
:1003000001F1FF3080F0EA809A4240F2E780023942
:100310003B449A1AA3B2B2FBFEF00EFB102243EA52
:10032000024300FB0CFC9C4509D9FB1800F1FF328D
:1003300080F0D6809C4540F2D3803B44023840EAAE
:100340000140A3EB0C0300211DB1F3400022C5E9DD
:100350000032BDE8F0878B4205D90DB1C5E9000137
:1003600000210846F5E7B3FA83F1002946D1734529
:1003700002D3824200F20581841A6EEB030201204F
:100380009046002DE5D0C5E90048E2E7002A00F0DC
:100390009080B2FA82F6002E40F0A4808A1A030CF4
:1003A0004FEA174E80B2BCB20121B2FBFEFC0EFB3D
:1003B0001C2243EA024304FB0CF29A4207D9FB18C1
:1003C0000CF1FF3802D29A4200F2E080C4469B1A38
:1003D000B3FBFEF20EFB123340EA034302FB04F4CC
:1003E0009C4207D9FB1802F1FF3002D29C4200F276
:1003F000CA8002461B1B42EA0C40A5E7C1F1200659
:100400008B4022FA06F71F430EFA01F420FA06F396
:100410002EFA06FE4FEA1749234300FA01F81FFAA5
:1004200087FCBEFBF9F01C0C09FB10EE44EA0E44FD
:1004300000FB0CFEA64502FA01F209D93C1900F1B5
:10044000FF3A80F09C80A64540F2998002383C44F7
:10045000A4EB0E041FFA83FEB4FBF9F309FB13446B
:100460004EEA044403FB0CFCA44508D93C1903F1F3
:10047000FF3E80F08280A4457FD9023B3C4443EAA2
:100480000040A4EB0C04A0FB02EC64457346E1467B
:1004900062D35FD05DB1B8EB030264EB090404FAE8
:1004A00006F622FA01F31E43CC40C5E900640021A0
:1004B0004FE7B1FBF2FC010C41EA0E4180B240EA89
:1004C00001423B4638463C46B846BE462026B1FB74
:1004D000F7F1A2EB080241EA0C4166E7014618E792
:1004E00010462CE7C6F120022EFA02F3B740B140C5
:1004F00020FA02F24FEA174E0A43B3FBFEF8BCB2F1
:100500000EFB1833110C41EA034108FB04F9B0401B
:1005100089454FEA104380B23ED9791808F1FF3C73
:1005200001D289451FD8A1EB0901B1FBFEF909FBF6
:1005300004F80EFB191192B242EA0142424529D257
:10054000BA1809F1FF31C4D24245C2D2A9F1020161
:100550003A44BEE7F0459DD2BEEB02036CEB070CBC
:100560000138E14696E7A7EB09094944A8F1020CD6
:10057000B1FBFEF909FB04F8DBE773467FE7504661
:1005800066E70846FDE63B44023A33E7ACF1020C6D
:100590003B441CE749469CE7A1EB0901C446B1FB7B
:1005A000FEF909FB04F8C4E7704700BF80B500AF4F
:1005B00000221021024801F007F800BF80BD00BFF3
:1005C0000000024080B500AF01221021024800F077
:1005D000FBFF00BF80BD00BF0000024080B588B0B7
:1005E00002AF78609F233B610023FB60FFF7DEFFD3
:1005F00007F10C0207F110016423009304230E4855
:1006000002F049FF0346FB75FFF7DCFFFB7D002B83
:1006100001D0FB7D0BE07A7B7B681A707B6801332D
:10062000BA7B1A707B680233FA7B1A700023184673
:100630001837BD4680BD00BF7401002080B582B070
:1006400000AF00F095FC00F03FF800F09DF900F0DD
:10065000A3F800F0D7F800F00BF900F03FF900F034
:1006600069F907F039FA3B1D1846FFF7B7FF034653
:10067000002B1CD13B7919467B791A46BB790F4870
:1006800007F0D6FF02210E4800F0B7FF4FF4FA70D2
:1006900000F0E0FC02210A4800F0AFFF4FF4FA70CE
:1006A00000F0D8FC0221064800F0A7FF03E005484F
:1006B00008F026F800BF00BFFDE700BFDC9300088C
:1006C00000000240F493000880B594B000AF07F139
:1006D000200330220021184608F0F2F807F10C033D
:1006E00000221A605A609A60DA601A610023BB60C7
:1006F000274B1B6C264A43F080531364244B1B6C1E
:1007000003F08053BB60BB6800237B60214B1B68F8
:10071000204A43F4404313601E4B1B6803F44043DC
:100720007B607B6801233B624FF480337B62022352
:10073000BB634FF48003FB6306233B6448237B6465
:100740000223BB640323FB6407F12003184602F075
:10075000C1F90346002B01D000F080F90F23FB60A4
:1007600002233B6100237B614FF48053BB61002374
:10077000FB6107F10C030221184602F023FC03463B
:10078000002B01D000F06AF900BF5037BD4680BD94
:10079000003802400070004080B500AF174B184A87
:1007A0001A60164B4FF482725A60144B00229A6002
:1007B000124B0022DA60114B00221A610F4B00220B
:1007C0005A610E4B4FF400729A610C4B2022DA6191
:1007D0000A4B00221A62094B00225A62074B002280
:1007E0009A62064B0A22DA62044802F0CBFD034605
:1007F000002B01D000F032F900BF80BD7401002051
:100800000030014080B500AF174B184A1A60164BF4
:100810004FF482725A60144B00229A60124B0022ED
:10082000DA60114B00221A610F4B00225A610E4B05
:100830004FF400729A610C4B0022DA610A4B0022DD
:100840001A62094B00225A62074B00229A62064B39
:100850000A22DA62044802F095FD0346002B01D01B
:1008600000F0FCF800BF80BDCC0100200038004043
:1008700080B500AF174B184A1A60164B4FF48272BE
:100880005A60144B00229A60124B0022DA60114B1E
:1008900000221A610F4B00225A610E4B4FF4007276
:1008A0009A610C4B0022DA610A4B00221A62094B52
:1008B00000225A62074B00229A62064B0A22DA6231
:1008C000044802F05FFD0346002B01D000F0C6F89B
:1008D00000BF80BD24020020003C004080B500AF76
:1008E000124B134A1A60114B4FF4E1325A600F4B0E
:1008F00000229A600D4B0022DA600C4B00221A6134
:100900000A4B0C225A61094B00229A61074B0022C4
:10091000DA61064B00221A62044803F005FB034625
:10092000002B01D000F09AF800BF80BD7C020020AF
:100930000010014080B500AF114B124A1A60104BF5
:100940004FF4E1325A600E4B00229A600C4B0022A9
:10095000DA600B4B00221A61094B0C225A61084BDA
:1009600000229A61064B0022DA61054803F018F86C
:100970000346002B01D000F071F800BF80BD00BF1E
:10098000C00200200044004080B588B000AF07F1ED
:100990000C0300221A605A609A60DA601A61002320
:1009A000BB602B4B1B6B2A4A43F080031363284B1D
:1009B0001B6B03F08003BB60BB6800237B60244B90
:1009C0001B6B234A43F001031363214B1B6B03F0A2
:1009D00001037B607B6800233B601D4B1B6B1C4A43
:1009E00043F0020313631A4B1B6B03F002033B60DB
:1009F0003B68002248F21201164800F0E5FD002293
:100A00004FF48051144800F0DFFD48F21203FB6000
:100A100001233B6100237B610023BB6107F10C03D1
:100A200019460C4800F04CFC4FF48053FB60012346
:100A30003B6100237B610023BB6107F10C03194676
:100A4000054800F03DFC00BF2037BD4680BD00BF1B
:100A500000380240000002400004024080B400AFB1
:100A600072B600BF00BFFDE780B483B000AF0023C3
:100A70007B60104B5B6C0F4A43F4804353640D4B17
:100A80005B6C03F480437B607B6800233B60094B15
:100A90001B6C084A43F080531364064B1B6C03F035
:100AA00080533B603B6800BF0C37BD465DF8047B5C
:100AB000704700BF0038024080B58EB000AF78604C
:100AC00007F1240300221A605A609A60DA601A6102
:100AD0007B681B684B4A93422CD100233B624A4BF4
:100AE0005B6C494A43F480535364474B5B6C03F49B
:100AF00080533B623B6A0023FB61434B1B6B424AC2
:100B000043F001031363404B1B6B03F00103FB61D4
:100B1000FB69E0237B620223BB620023FB620323A9
:100B20003B6305237B6307F124031946374800F034
:100B3000C7FB63E07B681B68354A93422DD10023D5
:100B4000BB61314B1B6C304A43F4804313642E4B22
:100B50001B6C03F48043BB61BB6900237B612A4BA0
:100B60001B6B294A43F002031363274B1B6B03F0F3
:100B700002037B617B694FF460437B620223BB62AB
:100B80000023FB6203233B6305237B6307F12403FC
:100B90001946204800F094FB30E07B681B681E4A31
:100BA00093422BD100233B61174B1B6C164A43F435
:100BB00000431364144B1B6C03F400433B613B691B
:100BC0000023FB60104B1B6B0F4A43F002031363BF
:100BD0000D4B1B6B03F00203FB60FB6838237B6249
:100BE0000223BB620023FB6203233B6306237B6378
:100BF00007F124031946074800F062FB00BF3837AD
:100C0000BD4680BD00300140003802400000024077
:100C10000038004000040240003C004080B58AB02B
:100C200000AF786007F1140300221A605A609A60DE
:100C3000DA601A617B681B68194A93422CD1002341
:100C40003B61184B5B6C174A43F010035364154B20
:100C50005B6C03F010033B613B690023FB60114BAD
:100C60001B6B104A43F0010313630E4B1B6B03F025
:100C70000103FB60FB684FF4E0637B610223BB610F
:100C80000023FB6103233B6207237B6207F114030C
:100C90001946054800F014FB00BF2837BD4680BD4B
:100CA00000100140003802400000024080B58AB0C8
:100CB00000AF786007F1140300221A605A609A604E
:100CC000DA601A617B681B68194A93422BD10023B2
:100CD0003B61184B1B6C174A43F400331364154BEC
:100CE0001B6C03F400333B613B690023FB60114B39
:100CF0001B6B104A43F0010313630E4B1B6B03F095
:100D00000103FB60FB680C237B610223BB610023B2
:100D1000FB6103233B6207237B6207F1140319463F
:100D2000054800F0CDFA00BF2837BD4680BD00BFA2
:100D300000440040003802400000024080B400AF90
:100D400000BFFDE780B400AF00BFFDE780B400AF97
:100D500000BFFDE780B400AF00BFFDE780B400AF87
:100D600000BFFDE780B400AF00BFBD465DF8047B67
:100D7000704780B400AF00BFBD465DF8047B70478C
:100D800080B400AF00BFBD465DF8047B704780B5FE
:100D900000AF00F03FF900BF80BD000080B500AF9C
:100DA000024800F088FD00BF80BD00BFF0170020A2
:100DB00080B586B000AFF860B9607A6000237B61CF
:100DC0000AE0AFF300800146BB685A1CBA60CAB2A1
:100DD0001A707B6901337B617A697B689A42F0DB28
:100DE0007B6818461837BD4680BD80B586B000AF19
:100DF000F860B9607A6000237B6109E0BB685A1C27
:100E0000BA601B781846AFF300807B6901337B61C1
:100E10007A697B689A42F1DB7B6818461837BD46D1
:100E200080BD80B483B000AF78604FF0FF331846C8
:100E30000C37BD465DF8047B704780B483B000AFCB
:100E4000786039603B684FF400525A6000231846BE
:100E50000C37BD465DF8047B704780B483B000AFAB
:100E60007860012318460C37BD465DF8047B704757
:100E700080B485B000AFF860B9607A60002318468E
:100E80001437BD465DF8047B7047000080B586B01E
:100E900000AF7860144A154BD31A7B617B693B61C4
:100EA000134B1B68002B02D1114B124A1A60104BD6
:100EB0001A687B6813443A699A4207D207F04EFDDC
:100EC00003460C221A604FF0FF3309E0084B1B6801
:100ED000FB60074B1A687B681344054A1360FB6884
:100EE00018461837BD4680BD0000022000040000EF
:100EF000080300204020002080B400AF064BD3F848
:100F00008830054A43F47003C2F8883000BFBD46FC
:100F10005DF8047B704700BF00ED00E0DFF834D0DF
:100F2000FFF7EAFF0C480D490D4A002302E0D458B0
:100F3000C4500433C4188C42F9D30A4A0A4C002323
:100F400001E013600432A242FBD307F00DFDFFF76E
:100F500075FB7047000002200000002058010020AF
:100F6000AC9400085801002040200020FEE700005B
:100F700080B500AF0E4B1B680D4A43F4007313603D
:100F80000B4B1B680A4A43F480631360084B1B68D1
:100F9000074A43F480731360032000F04FF90F20D9
:100FA00000F008F8FFF760FD0023184680BD00BF81
:100FB000003C024080B582B000AF7860124B1A68E6
:100FC000124B1B7819464FF47A73B3FBF1F3B2FB63
:100FD000F3F3184600F067F90346002B01D0012314
:100FE0000EE07B680F2B0AD8002279684FF0FF30A3
:100FF00000F02FF9064A7B681360002300E001230C
:1010000018460837BD4680BD0000002008000020BB
:101010000400002080B400AF064B1B781A46064B34
:101020001B681344044A136000BFBD465DF8047B8F
:10103000704700BF080000200C03002080B400AF00
:10104000034B1B681846BD465DF8047B704700BF24
:101050000C03002080B584B000AF7860FFF7EEFF8E
:10106000B8607B68FB60FB68B3F1FF3F05D00A4BBB
:101070001B781A46FB681344FB6000BFFFF7DEFFD6
:101080000246BB68D31AFA689A42F7D800BF00BF7D
:101090001037BD4680BD00BF0800002080B485B079
:1010A00000AF78607B6803F00703FB600C4BDB68E4
:1010B000BB60BA684FF6FF031340BB60FB681A02BF
:1010C000BB68134343F0BF6343F40033BB60044A7F
:1010D000BB68D36000BF1437BD465DF8047B704722
:1010E00000ED00E080B400AF044BDB681B0A03F0A6
:1010F00007031846BD465DF8047B704700ED00E02D
:1011000080B483B000AF0346FB7197F90730002B22
:101110000BDBFB7903F01F02074997F907305B09E6
:10112000012000FA02F241F8232000BF0C37BD462F
:101130005DF8047B704700BF00E100E080B483B03D
:1011400000AF03463960FB7197F90730002B0ADBCB
:101150003B68DAB20C4997F907301201D2B20B445E
:1011600083F800230AE03B68DAB20849FB7903F010
:101170000F03043B1201D2B20B441A7600BF0C37A6
:10118000BD465DF8047B704700E100E000ED00E043
:1011900080B489B000AFF860B9607A60FB6803F092
:1011A0000703FB61FB69C3F10703042B28BF04237A
:1011B000BB61FB690433062B02D9FB69033B00E0EA
:1011C00000237B614FF0FF32BB6902FA03F3DA437D
:1011D000BB681A407B699A404FF0FF317B6901FA86
:1011E00003F3D9437B680B40134318462437BD46AD
:1011F0005DF8047B7047000080B582B000AF786076
:101200007B68013BB3F1807F01D301230FE00A4AE1
:101210007B68013B53600F214FF0FF30FFF78EFFDB
:10122000054B00229A60044B07221A6000231846DF
:101230000837BD4680BD00BF10E000E080B582B039
:1012400000AF78607868FFF729FF00BF0837BD4618
:1012500080BD80B586B000AF0346B9607A60FB738D
:1012600000237B61FFF73EFF78617A68B96878698F
:10127000FFF78EFF024697F90F3011461846FFF729
:101280005DFF00BF1837BD4680BD80B582B000AF9E
:101290000346FB7197F907301846FFF731FF00BF8F
:1012A0000837BD4680BD80B582B000AF78607868F1
:1012B000FFF7A2FF034618460837BD4680BD000071
:1012C00080B489B000AF7860396000237B6100236F
:1012D0003B610023BB610023FB6159E10122FB69F3
:1012E00002FA03F37B613B681B687A6913403B6138
:1012F0003A697B699A4240F048813B685B6803F039
:101300000303012B05D03B685B6803F00303022B4A
:1013100030D17B689B68BB61FB695B00032202FAEA
:1013200003F3DB43BA691340BB613B68DA68FB69CE
:101330005B0002FA03F3BA691343BB617B68BA69C5
:101340009A607B685B68BB610122FB6902FA03F368
:10135000DB43BA691340BB613B685B681B0903F060
:101360000102FB6902FA03F3BA691343BB617B68AC
:10137000BA695A603B685B6803F00303032B17D01C
:101380007B68DB68BB61FB695B00032202FA03F345
:10139000DB43BA691340BB613B689A68FB695B0039
:1013A00002FA03F3BA691343BB617B68BA69DA6076
:1013B0003B685B6803F00303022B23D1FB69DA0867
:1013C0007B68083253F82230BB61FB6903F00703E6
:1013D0009B000F2202FA03F3DB43BA691340BB619F
:1013E0003B681A69FB6903F007039B0002FA03F3E9
:1013F000BA691343BB61FB69DA087B680832B969D3
:1014000043F822107B681B68BB61FB695B00032209
:1014100002FA03F3DB43BA691340BB613B685B68C4
:1014200003F00302FB695B0002FA03F3BA6913439A
:10143000BB617B68BA691A603B685B6803F4403340
:10144000002B00F0A2800023FB60574B5B6C564AD8
:1014500043F480435364544B5B6C03F48043FB6060
:10146000FB68524AFB699B08023352F82330BB6188
:10147000FB6903F003039B000F2202FA03F3DB4333
:10148000BA691340BB617B68494A934219D07B68B3
:10149000484A934213D07B68474A93420DD07B68F9
:1014A000464A934207D07B68454A934201D10423C0
:1014B00008E0072306E0032304E0022302E00123FF
:1014C00000E00023FA6902F0030292009340BA6937
:1014D0001343BB613549FB699B080233BA6941F884
:1014E0002320384B9B68BB613B69DB43BA691340DF
:1014F000BB613B685B6803F48013002B03D0BA69BF
:101500003B691343BB612F4ABB6993602D4BDB687A
:10151000BB613B69DB43BA691340BB613B685B68F5
:1015200003F40013002B03D0BA693B691343BB617A
:10153000244ABB69D360234B5B68BB613B69DB43D7
:10154000BA691340BB613B685B6803F40033002B4E
:1015500003D0BA693B691343BB611A4ABB69536044
:10156000184B1B68BB613B69DB43BA691340BB6125
:101570003B685B6803F48033002B03D0BA693B6996
:101580001343BB610F4ABB691360FB690133FB6105
:10159000FB690F2B7FF6A2AE00BF00BF2437BD460C
:1015A0005DF8047B704700BF0038024000380140FE
:1015B000000002400004024000080240000C02400B
:1015C00000100240003C014080B483B000AF78605E
:1015D0000B467B8013467B707B78002B03D07A8888
:1015E0007B689A6103E07B881A047B689A6100BF7C
:1015F0000C37BD465DF8047B704780B485B000AF02
:1016000078600B467B807B685B69FB607A88FB684F
:1016100013401A04FB68D9437B880B401A437B684C
:101620009A6100BF1437BD465DF8047B704780B5F2
:1016300086B002AF78607B68002B01D1012301E105
:101640007B681B68BB607B6893F89534DBB2002B2A
:1016500006D17B68002283F89424786806F01CFC8D
:101660007B68032283F89524BB68B3F1A04F02D1B5
:101670007B6800229A717B681B68184603F045F866
:101680007B6818687B681A7C8DF8002004330ECBC9
:1016900002F024FF0346002B05D07B68022283F86A
:1016A00095240123CEE07B681B680021184603F0D7
:1016B0003DF80346002B05D07B68022283F8952471
:1016C0000123BFE00023FB734AE0FA7B79681346ED
:1016D000DB0013449B000B44153301221A70FA7B84
:1016E00079681346DB0013449B000B441433FA7BE8
:1016F0001A70FA7BFB7B98B279681346DB001344BF
:101700009B000B442E3302461A80FA7B79681346FD
:10171000DB0013449B000B44183300221A70FA7B41
:1017200079681346DB0013449B000B441C330022F2
:101730001A60FA7B79681346DB0013449B000B4464
:10174000203300221A60FA7B79681346DB001344C9
:101750009B000B44243300221A60FB7B0133FB7394
:101760007B681B79FA7B9A42AFD30023FB7344E07A
:10177000FA7B79681346DB0013449B000B4403F2A9
:10178000552300221A70FA7B79681346DB00134454
:101790009B000B4403F51573FA7B1A70FA7B79688A
:1017A0001346DB0013449B000B4403F51673002221
:1017B0001A70FA7B79681346DB0013449B000B44D4
:1017C00003F5177300221A60FA7B79681346DB0071
:1017D00013449B000B4403F5187300221A60FA7B34
:1017E00079681346DB0013449B000B4403F519731F
:1017F00000221A60FB7B0133FB737B681B79FA7B49
:101800009A42B5D37B6818687B681A7C8DF80020F3
:1018100004330ECB02F0D6FF0346002B05D07B68C5
:10182000022283F8952401230CE07B6800225A747D
:101830007B68012283F895247B681B68184604F0B6
:1018400020F8002318461037BD4680BD80B584B00F
:1018500000AF78607B681B68FB607B6893F894340A
:10186000012B01D1022322E07B68012283F894241A
:10187000FB68DB6803F04003002B09D07B685B7BCF
:10188000012B05D1FB689B6B43F48032FB689A63A4
:101890007B681B68184602F027FF7B681B681846A8
:1018A00003F0CEFF7B68002283F8942400231846BF
:1018B0001037BD4680BD90B58DB000AF78607B68B5
:1018C0001B683B623B6AFB617B681B68184604F03F
:1018D0008CF80346002B40F08C847B681B6818460C
:1018E00003F0F0FF0346002B00F08284FB6903F550
:1018F00000639B681B0AC3F30D027B68C3F8D42402
:101900007B681B68184603F0DDFF034603F0020303
:10191000022B07D17B681B685A697B681B6802F041
:1019200002025A617B681B68184603F0CBFF03462E
:1019300003F01003102B61D17B681B689A697B68E8
:101940001B6822F010029A613B6A1B6ABB61BB698B
:1019500003F00F021346DB0013449B0003F51473DE
:101960007A68134404337B61BB6903F4F013B3F565
:10197000802F24D1BA6947F6F0731340002B35D07D
:101980007B69D968BB691B099BB2C3F30A039BB28D
:101990001A46386A03F002FE7B69DA68BB691B09E4
:1019A000C3F30A031A447B69DA607B695A69BB692D
:1019B0001B09C3F30A031A447B695A6116E0BB6929
:1019C00003F4F013B3F5402F10D17B6803F29C436E
:1019D00008221946386A03F0E1FD7B695A69BB6940
:1019E0001B09C3F30A031A447B695A617B681B68AD
:1019F0009A697B681B6842F010029A617B681B68D9
:101A0000184603F05FFF034603F40023B3F5002FED
:101A100040F0A78000237B627B681B68184603F0B8
:101A200064FFB86299E0BB6A03F00103002B00F089
:101A30008E807B681B687A6AD2B21146184603F022
:101A400088FF38613B6903F00103002B0CD07B6AEF
:101A50005A01FB69134403F530631A46012393606E
:101A6000796A786800F0A4FE3B6903F00803002B54
:101A70000CD07B6A5A01FB69134403F530631A46A4
:101A800008239360796A786800F07AFF3B6903F075
:101A90001003002B08D07B6A5A01FB69134403F53D
:101AA00030631A46102393603B6903F00203002B56
:101AB00030D03B6A5B6903F08003802B09D1FB695E
:101AC00003F500635B68FA6902F5006243F4806322
:101AD00053607A6A1346DB0013449B0003F51473CA
:101AE0007A68134404337B617B69DB78012B08D16E
:101AF0007B690022DA707B6ADBB21946786806F0EF
:101B0000C7FA7B6A5A01FB69134403F530631A462E
:101B1000022393603B6903F02003002B08D07B6A0B
:101B20005A01FB69134403F530631A46202393607E
:101B30003B6903F40053002B09D07B6A5A01FB690F
:101B4000134403F530631A464FF4005393607B6AE5
:101B500001337B62BB6A5B08BB62BB6A002B7FF40C
:101B600062AF7B681B68184603F0ACFE034603F4C3
:101B70008023B3F5802F40F0DB807B681B6818461C
:101B800003F0CDFEB86200237B62CDE0BB6A03F0B8
:101B90000103002B00F0C2807B681B687A6AD2B216
:101BA0001146184603F0F3FE38613B6903F0010368
:101BB000002B57D07B6A03F00F03012202FA03F3D4
:101BC000FB60FB6903F500635A6BFB68DB43F96953
:101BD00001F5006113404B637B6A5A01FB691344B2
:101BE00003F510631A46012393607B689B79012BF0
:101BF00032D179687A6A1346DB0013449B000B44A8
:101C00002033196878687A6A1346DB0013449B0016
:101C100003441C331B68194478687A6A1346DB0056
:101C200013449B000344203319607B6A002B13D1BB
:101C300079687A6A1346DB0013449B000B44243313
:101C40001B68002B08D17B6818687B6803F29C43F3
:101C50001A46012103F0FAFE7B6ADBB21946786866
:101C600006F09BF93B6903F00803002B08D07B6A60
:101C70005A01FB69134403F510631A460823936065
:101C80003B6903F01003002B08D07B6A5A01FB6903
:101C9000134403F510631A46102393603B6903F065
:101CA0004003002B08D07B6A5A01FB69134403F5FB
:101CB00010631A46402393603B6903F00203002B34
:101CC00023D0796A386A02F0E1FE7A6A1346DB00B3
:101CD00013449B0010337A68134404337B617B699F
:101CE000DB78012B08D17B690022DA707B6ADBB2DA
:101CF0001946786806F0DEF97B6A5A01FB691344DD
:101D000003F510631A46022393603B6903F08003D6
:101D1000002B03D0796A786800F0BDFC7B6A013340
:101D20007B62BB6A5B08BB62BB6A002B7FF42EAF91
:101D30007B681B68184603F0C5FD034603F00043AB
:101D4000B3F1004F22D1FB6903F500635B68FA69C8
:101D500002F5006223F0010353607B6893F8CC34F2
:101D6000012B08D17B68002283F8CC2400217868FD
:101D700000F0A4FE02E0786806F07CF97B681B683E
:101D80005A697B681B6802F000425A617B681B68D5
:101D9000184603F097FD034603F40063B3F5006FA4
:101DA00012D1FB6903F500639B6803F00103012B6B
:101DB00002D1786806F038F97B681B685A697B683D
:101DC0001B6802F400625A617B681B68184603F0C6
:101DD00079FD034603F48053B3F5805F40F0B7808C
:101DE000FB6903F500635B68FA6902F5006223F0A2
:101DF000010353607B681B681021184602F046FE01
:101E00000023FB6246E0FB6A5A01FB69134403F5B9
:101E100010631A464FF67F339360FB6A5A01FB69E1
:101E2000134403F510631B68FA6A5101FA690A4406
:101E300002F5106223F400131360FB6A5A01FB6978
:101E4000134403F530631A464FF67F339360FB6A01
:101E50005A01FB69134403F530631B68FA6A5101A8
:101E6000FA690A4402F5306223F400131360FB6A36
:101E70005A01FB69134403F530631B68FA6A510188
:101E8000FA690A4402F5306243F000631360FB6AAA
:101E90000133FB627B681B791A46FB6A9342B2D31B
:101EA000FB6903F50063DB69FA6902F5006243F040
:101EB0000113D3617B68DB7B002B16D0FB6903F534
:101EC0000063D3F88430FA6902F5006243F00B0333
:101ED000C2F88430FB6903F500635B6CFA6902F5B4
:101EE000006243F00B03536415E0FB6903F50063E4
:101EF0005B69FA6902F5006243F4005343F02B0377
:101F00005361FB6903F500631B69FA6902F500621E
:101F100043F00B031361FB6903F500631B68FA6967
:101F200002F5006223F4FE6313607B6818687B6827
:101F300099797B6803F29C431A4603F087FD7B681E
:101F40001B685A697B681B6802F480525A617B687F
:101F50001B68184603F0B6FC034603F40053B3F5C0
:101F6000005F23D17B681B68184603F04CFD7B683B
:101F70001B68184602F003FE03461A467B68DA71B6
:101F80007B681C6801F0CAF901467B68DB791A4658
:101F9000204602F007FB786806F027F87B681B688C
:101FA0005A697B681B6802F400525A617B681B689F
:101FB000184603F087FC034603F00803082B0AD1F8
:101FC000786806F004F87B681B685A697B681B68B0
:101FD00002F008025A617B681B68184603F072FC25
:101FE000034603F08003802B23D13B6A9B6923F0D7
:101FF00080023B6A9A6101237B6214E079687A6A05
:102000001346DB0013449B000B4403F257231B7859
:10201000012B05D17B6ADBB21946786800F00AFB18
:102020007B6A01337B627B681B791A467B6A934229
:10203000E4D37B681B68184603F044FC034603F4B2
:102040008013B3F5801F3CD101237B622BE07B6AB8
:102050005A01FB69134403F510631B68BB6179687F
:102060007A6A1346DB0013449B000B4418331B7839
:10207000012B15D1BB69002B12DA79687A6A1346F5
:10208000DB0013449B000B44173301221A707B6A58
:10209000DBB263F07F03DBB21946786800F0CAFA5E
:1020A0007B6A01337B627B681B791A467B6A9342A9
:1020B000CDD37B681B685A697B681B6802F4801269
:1020C0005A617B681B68184603F0FCFB034603F467
:1020D0000013B3F5001F56D101237B6245E07B6AF4
:1020E0005A01FB69134403F530631B68BB617968CF
:1020F0007A6A1346DB0013449B000B4403F5167306
:102100001B78012B2ED1BB69002B2BDABB691A0C73
:102110007B68D3F8D434534003F00103002B21D162
:1021200079687A6A1346DB0013449B000B4403F280
:10213000572301221A703B6A9B6943F080023B6A75
:102140009A613B6A5B6903F08003002B0AD1FB694B
:1021500003F500635B68FA6902F5006243F40073FB
:10216000536008E07B6A01337B627B681B791A4607
:102170007B6A9342B3D37B681B685A697B681B6890
:1021800002F400125A617B681B68184603F09AFB40
:10219000034603F08043B3F1804F0AD1786805F01D
:1021A0009BFF7B681B685A697B681B6802F0804252
:1021B0005A617B681B68184603F084FB034603F0F2
:1021C0000403042B15D17B681B685B68BB61BB698A
:1021D00003F00403002B02D0786805F08BFF7B68C6
:1021E0001B6859687B681B68BA690A435A6000E03B
:1021F00000BF3437BD4690BD80B582B000AF786077
:102200000B46FB707B6893F89434012B01D10223B9
:1022100012E07B68012283F894247B68FA785A7470
:102220007B681B68FA781146184603F0E3FA7B686E
:10223000002283F89424002318460837BD4680BD49
:1022400080B584B000AF7860084611461A46034650
:10225000FB700B463B801346BB700023FB7297F963
:102260000330002B0FDAFB7803F00F021346DB007C
:1022700013449B0010337A6813440433FB60FB68FB
:1022800001225A700FE0FB7803F00F021346DB00C7
:1022900013449B0003F514737A6813440433FB6002
:1022A000FB6800225A70FB7803F00F03DAB2FB6878
:1022B0001A703B88C3F30A02FB689A60FB68BA781D
:1022C0001A71FB685B78002B04D0FB681B781A46F8
:1022D000FB685A83BB78022B02D1FB6800225A713B
:1022E0007B6893F89434012B01D102230EE07B68C4
:1022F000012283F894247B681B68F968184602F071
:1023000063FC7B68002283F89424FB7A184610371C
:10231000BD4680BD80B584B000AF78600B46FB70D1
:1023200097F90330002B0FDAFB7803F00F02134606
:10233000DB0013449B0010337A6813440433FB60C2
:10234000FB6801225A700FE0FB7803F00F0213467E
:10235000DB0013449B0003F514737A6813440433C1
:10236000FB60FB6800225A70FB7803F00F03DAB2BF
:10237000FB681A707B6893F89434012B01D1022317
:102380000EE07B68012283F894247B681B68F9685F
:10239000184602F0A1FC7B68002283F894240023F5
:1023A00018461037BD4680BD80B586B000AFF860D6
:1023B0007A603B600B46FB72FB7A03F00F02134618
:1023C000DB0013449B0003F51473FA6813440433D1
:1023D0007B617B697A68DA607B693A681A617B693C
:1023E00000225A617B6900225A70FB7A03F00F03C6
:1023F000DAB27B691A70FB689B79012B02D17A688B
:102400007B69DA61FB681868FB689B791A46796911
:1024100002F03EFD002318461837BD4680BD80B44B
:1024200083B000AF78600B46FB70FB7803F00F02BF
:1024300079681346DB0013449B000B4403F51A73C1
:102440001B6818460C37BD465DF8047B704780B5A5
:1024500086B000AFF8607A603B600B46FB72FB7A97
:1024600003F00F021346DB0013449B001033FA689D
:10247000134404337B617B697A68DA607B693A686C
:102480001A617B6900225A617B6901225A70FB7ACA
:1024900003F00F03DAB27B691A70FB689B79012B9A
:1024A00002D17A687B69DA61FB681868FB689B79FE
:1024B0001A46796902F0ECFC002318461837BD462D
:1024C00080BD80B584B000AF78600B46FB70FB78B0
:1024D00003F00F037A681279934201D901234FE088
:1024E00097F90330002B0FDAFB7803F00F02134645
:1024F000DB0013449B0010337A6813440433FB6001
:10250000FB6801225A700DE0FA781346DB00134491
:102510009B0003F514737A6813440433FB60FB6873
:1025200000225A70FB6801229A70FB7803F00F03B7
:10253000DAB2FB681A707B6893F89434012B01D1EE
:1025400002231DE07B68012283F894247B681B68CA
:10255000F968184603F07AF8FB7803F00F03002BB4
:1025600009D17B6818687B6899797B6803F29C4382
:102570001A4603F06BFA7B68002283F89424002348
:1025800018461037BD4680BD80B584B000AF786076
:102590000B46FB70FB7803F00F037A6812799342C5
:1025A00001D9012342E097F90330002B0FDAFB78C1
:1025B00003F00F021346DB0013449B0010337A68CC
:1025C00013440433FB60FB6801225A700FE0FB7870
:1025D00003F00F021346DB0013449B0003F5147352
:1025E0007A6813440433FB60FB6800225A70FB686E
:1025F00000229A70FB7803F00F03DAB2FB681A70BE
:102600007B6893F89434012B01D102230EE07B68A0
:10261000012283F894247B681B68F968184603F04C
:1026200083F87B68002283F894240023184610372F
:10263000BD4680BD80B584B000AF78600B46FB70AE
:1026400097F90330002B0CDAFB7803F00F021346E6
:10265000DB0013449B0010337A6813440433FB609F
:102660000CE0FB7803F00F021346DB0013449B00E1
:1026700003F514737A6813440433FB607B681B68AA
:10268000F968184602F0A2FE0346FB72FB7A184670
:102690001037BD4680BD80B58AB002AF7860396022
:1026A0007B681B687B617B693B613A681346DB0092
:1026B00013449B0010337A6813440433FB60FB68B7
:1026C0005A69FB681B699A4201D901236BE0FB68D8
:1026D0001A69FB685B69D31AFB61FB689B68FA693E
:1026E0009A4202D9FB689B68FB61FB6903339B0834
:1026F000BB612AE0FB681A69FB685B69D31AFB615E
:10270000FB689B68FA699A4202D9FB689B68FB6187
:10271000FB6903339B08BB61FB68D9683B68DAB28D
:10272000FB6998B27B689B7900930346786902F055
:10273000F7FEFB68DA68FB691A44FB68DA60FB683D
:102740005A69FB691A44FB685A613B685A013B6944
:10275000134403F510639B699BB2BA699A4209D886
:10276000FB685A69FB681B699A4203D2FB681B69C4
:10277000002BBFD1FB681A69FB685B699A4211D8CC
:102780003B6803F00F03012202FA03F3BB603B69CD
:1027900003F500635A6BBB68DB43396901F50061DF
:1027A00013404B63002318462037BD4680BD000010
:1027B00080B588B000AF786039607B681B68FB61CA
:1027C000FB69BB61FB693C3304331B687B613B687D
:1027D0005A01BB69134403F530639B683B617B6816
:1027E0009B79012B7BD13B6903F00803002B15D0AB
:1027F0007B69614A934240F2B9803B6903F400432C
:10280000002B00F0B3803B685A01BB69134403F509
:1028100030631A464FF400439360A7E03B6903F02E
:102820002003002B09D03B685A01BB69134403F510
:1028300030631A462023936098E03B6903F0280335
:10284000002B40F093807B694B4A93420FD93B6940
:1028500003F40043002B0AD03B685A01BB691344C0
:1028600003F530631A464FF4004393607EE03A6804
:102870001346DB0013449B0003F514737A6813447A
:102880000433FB60FB681A6A3B685901BB690B445F
:1028900003F530631B69C3F31203D21AFB685A6154
:1028A0003B68002B14D1FB681B69002B09D17B68A6
:1028B00018687B6803F29C431A46012103F0C6F8AE
:1028C00006E0FB68DA68FB685B691A44FB68DA605B
:1028D0003B68DBB21946786805F044FB46E07B694B
:1028E000264A934224D13B6903F40043002B0AD0CB
:1028F0003B685A01BB69134403F530631A464FF431
:102900000043936032E03B6903F02003002B08D0C2
:102910003B685A01BB69134403F530631A46202310
:1029200093603B68DBB21946786805F01BFB1DE03D
:102930003B68002B14D179683A681346DB001344D6
:102940009B000B4403F519731B68002B08D17B68AF
:1029500018687B6803F29C431A46002103F076F85E
:102960003B68DBB21946786805F0FCFA002318468C
:102970002037BD4680BD00BF0A30544F0A31544F46
:1029800080B586B000AF786039607B681B687B617A
:102990007B693B617B693C3304331B68FB603B68AC
:1029A0005A013B69134403F530639B68BB60FB68C5
:1029B000154A93420ED9BB6803F40043002B09D09B
:1029C0003B685A013B69134403F530631A464FF4E0
:1029D00000439360786805F0B3FAFB680A4A9342B3
:1029E0000CD97B689B79012B08D17B6818687B68C0
:1029F00003F29C431A46012103F028F800231846ED
:102A00001837BD4680BD00BF0A30544F80B485B032
:102A100000AF78600B46FB7013463B807B681B68F9
:102A20005B6ABB60FB78002B07D13B8819047B688D
:102A30001B68BA680A439A6228E07B681B689B6A35
:102A40001B0CBA681344BB600023FB730DE07B686A
:102A50001A68FB7B40339B0013445B681B0CBA680D
:102A60001344BB60FB7B0133FB73FA7BFB78013BB8
:102A70009A42ECD33B8818047B681968FB78013BC9
:102A8000BA68024340339B000B445A600023184647
:102A90001437BD465DF8047B704780B483B000AF47
:102AA00078600B467B807B681B687A885A620023BB
:102AB00018460C37BD465DF8047B704780B483B080
:102AC00000AF78600B46FB7000BF0C37BD465DF869
:102AD000047B704780B586B000AF78607B68002BC0
:102AE00001D1012367E27B681B6803F00103002B1F
:102AF00075D0884B9B6803F00C03042B0CD0854BDE
:102B00009B6803F00C03082B12D1824B5B6803F423
:102B10008003B3F5800F0BD17E4B1B6803F40033A9
:102B2000002B5BD07B685B68002B57D1012342E20E
:102B30007B685B68B3F5803F06D1764B1B68754AAE
:102B400043F4803313601DE07B685B68B3F5A02F0E
:102B50000CD1704B1B686F4A43F4802313606D4B9C
:102B60001B686C4A43F4803313600BE0694B1B68AD
:102B7000684A23F480331360664B1B68654A23F46C
:102B8000802313607B685B68002B13D0FEF756FA36
:102B9000386108E0FEF752FA02463B69D31A642B0B
:102BA00001D9032307E25B4B1B6803F40033002BBE
:102BB000F0D014E0FEF742FA386108E0FEF73EFA82
:102BC00002463B69D31A642B01D90323F3E1514B2D
:102BD0001B6803F40033002BF0D100E000BF7B68DA
:102BE0001B6803F00203002B63D04A4B9B6803F081
:102BF0000C03002B0BD0474B9B6803F00C03082BF6
:102C00001CD1444B5B6803F48003002B16D1414B6D
:102C10001B6803F00203002B05D07B68DB68012BE7
:102C200001D00123C7E13B4B1B6823F0F8027B680E
:102C30001B69DB00374913430B603AE07B68DB68B4
:102C4000002B20D0344B01221A60FEF7F7F93861CF
:102C500008E0FEF7F3F902463B69D31A022B01D9CB
:102C60000323A8E12B4B1B6803F00203002BF0D0D9
:102C7000284B1B6823F0F8027B681B69DB002549A1
:102C800013430B6015E0244B00221A60FEF7D6F9BF
:102C9000386108E0FEF7D2F902463B69D31A022BED
:102CA00001D9032387E11B4B1B6803F00203002BB0
:102CB000F0D17B681B6803F00803002B36D07B68DB
:102CC0005B69002B16D0154B01221A60FEF7B6F98E
:102CD000386108E0FEF7B2F902463B69D31A022BCD
:102CE00001D9032367E10B4B5B6F03F00203002B59
:102CF000F0D01BE0094B00221A60FEF79FF9386103
:102D00000EE0FEF79BF902463B69D31A022B07D966
:102D1000032350E10038024000004742800E474242
:102D2000884B5B6F03F00203002BEAD17B681B68C2
:102D300003F00403002B00F097800023FB75814B08
:102D40001B6C03F08053002B0FD10023BB607D4B25
:102D50001B6C7C4A43F0805313647A4B1B6C03F06A
:102D60008053BB60BB680123FB75774B1B6803F482
:102D70008073002B18D1744B1B68734A43F4807323
:102D80001360FEF75BF9386108E0FEF757F9024679
:102D90003B69D31A022B01D903230CE16A4B1B6850
:102DA00003F48073002BF0D07B689B68012B06D165
:102DB000644B1B6F634A43F0010313671CE07B689D
:102DC0009B68052B0CD15F4B1B6F5E4A43F00403DD
:102DD00013675C4B1B6F5B4A43F0010313670BE007
:102DE000584B1B6F574A23F001031367554B1B6F5A
:102DF000544A23F0040313677B689B68002B15D0AB
:102E0000FEF71CF938610AE0FEF718F902463B6943
:102E1000D31A41F28832934201D90323CBE0494BC4
:102E20001B6F03F00203002BEED014E0FEF706F94F
:102E300038610AE0FEF702F902463B69D31A41F213
:102E40008832934201D90323B5E03E4B1B6F03F058
:102E50000203002BEED1FB7D012B05D1394B1B6CFE
:102E6000384A23F0805313647B689B69002B00F081
:102E7000A180344B9B6803F00C03082B5CD07B686B
:102E80009B69022B41D1314B00221A60FEF7D6F824
:102E9000386108E0FEF7D2F802463B69D31A022BEC
:102EA00001D9032387E0274B1B6803F00073002B35
:102EB000F0D17B68DA697B681B6A1A437B685B6ABE
:102EC0009B011A437B689B6A5B08013B1B041A4306
:102ED0007B68DB6A1B061B4913434B601B4B0122BB
:102EE0001A60FEF7ABF8386108E0FEF7A7F8024673
:102EF0003B69D31A022B01D903235CE0114B1B68F9
:102F000003F00073002BF0D054E0104B00221A6045
:102F1000FEF794F8386108E0FEF790F802463B6946
:102F2000D31A022B01D9032345E0064B1B6803F09B
:102F30000073002BF0D13DE07B689B69012B07D12A
:102F4000012338E000380240007000406000474232
:102F50001B4B5B68FB607B689B69012B28D0FB687F
:102F600003F480027B68DB699A4221D1FB6803F09D
:102F70003F027B681B6A9A421AD1FA6847F6C0730F
:102F800013407A68526A9201934211D1FB6803F4AC
:102F900040327B689B6A5B08013B1B049A4207D165
:102FA000FB6803F070627B68DB6A1B069A4201D003
:102FB000012300E0002318461837BD4680BD00BF3E
:102FC0000038024080B584B000AF786039607B681B
:102FD000002B01D10123CCE0684B1B6803F00703F1
:102FE0003A689A420CD9654B3A68D2B21A70634B70
:102FF0001B6803F007033A689A4201D00123B8E046
:103000007B681B6803F00203002B20D07B681B68E1
:1030100003F00403002B05D0594B9B68584A43F436
:10302000E05393607B681B6803F00803002B05D016
:10303000534B9B68524A43F460439360504B9B68E8
:1030400023F0F0027B689B684D4913438B607B68DB
:103050001B6803F00103002B44D07B685B68012BE5
:1030600007D1474B1B6803F40033002B19D1012310
:103070007FE07B685B68022B03D07B685B68032B77
:1030800007D13F4B1B6803F00073002B09D10123CC
:103090006FE03B4B1B6803F00203002B01D10123BF
:1030A00067E0374B9B6823F003027B685B68344919
:1030B00013438B60FDF7C2FFF8600AE0FDF7BEFF27
:1030C0000246FB68D31A41F28832934201D90323A6
:1030D0004FE02B4B9B6803F00C027B685B689B0006
:1030E0009A42EBD1254B1B6803F007033A689A42DA
:1030F0000CD2224B3A68D2B21A70204B1B6803F0F4
:1031000007033A689A4201D0012332E07B681B68CA
:1031100003F00403002B08D0194B9B6823F4E05202
:103120007B68DB68164913438B607B681B6803F080
:103130000803002B09D0124B9B6823F460427B6884
:103140001B69DB000E4913438B6000F021F8024637
:103150000B4B9B681B0903F00F030A49CB5C22FA57
:1031600003F3094A1360094B1B681846FDF722FF59
:10317000002318461037BD4680BD00BF003C02400A
:103180000038024050940008000000200400002095
:103190002DE9B04F90B000AF00237B630023FB63A9
:1031A00000233B630023BB63594B9B6803F00C0374
:1031B000082B0DD0082B00F2A180002B02D0042B8D
:1031C00003D09BE0534BBB639BE0534BBB6398E046
:1031D0004F4B5B6803F03F037B634D4B5B6803F42D
:1031E0008003002B28D04A4B5B689B0900223B627E
:1031F0007A623B6AC3F308000021474B03FB01F2EC
:10320000002300FB03F31344434AA0FB0212FA62BB
:103210000A46BA62FA6A1344FB627B6B0022BB6106
:10322000FA61D7E90623D7E90A01FDF729F8024632
:103230000B461346FB6353E0354B5B689B0900224A
:103240003B617A613B69C3F3080A4FF0000B5246B9
:103250005B464FF000004FF00001590141EAD26196
:10326000500102460B46B2EB0A0863EB0B094FF024
:1032700000024FF000034FEA891343EA98634FEAD4
:103280008812B2EB080463EB09054FF000024FF01F
:103290000003EB0043EA5473E20014461D4614EBAE
:1032A0000A033B6045EB0B037B604FF000024FF0DD
:1032B0000003D7E9004529468B02214643EA915392
:1032C00021468A02104619467B6B0022BB60FA60D9
:1032D000D7E90223FCF7D4FF02460B461346FB63F3
:1032E0000B4B5B681B0C03F0030301335B003B6378
:1032F000FA6B3B6BB2FBF3F3BB6302E0054BBB63C2
:1033000000BFBB6B18464037BD46BDE8B08F00BF5D
:10331000003802400024F400001BB70080B400AF66
:10332000034B1B681846BD465DF8047B704700BF21
:103330000000002080B500AFFFF7F0FF0246054B0C
:103340009B689B0A03F007030349CB5C22FA03F353
:10335000184680BD003802406094000880B500AF78
:10336000FFF7DCFF0246054B9B685B0B03F007038E
:103370000349CB5C22FA03F3184680BD00380240B3
:103380006094000880B582B000AF78607B68002B45
:1033900001D101237BE07B685B6A002B08D17B684D
:1033A0005B68B3F5827F09D07B680022DA6105E0B3
:1033B0007B6800221A617B6800225A617B680022C8
:1033C0009A627B6893F85130DBB2002B06D17B68A0
:1033D000002283F850207868FDF76EFB7B6802229C
:1033E00083F851207B681B681A687B681B6822F091
:1033F00040021A607B685B6803F482727B689B689A
:1034000003F404431A437B68DB6803F400631A4344
:103410007B681B6903F002031A437B685B6903F056
:1034200001031A437B689B6903F400731A437B68AA
:10343000DB6903F038031A437B681B6A03F08003DF
:1034400042EA03017B689B6A03F400527B681B68B5
:103450000A431A607B689B691B0C03F004017B68BC
:103460005B6A03F010027B681B680A435A607B6842
:103470001B68DA697B681B6822F40062DA617B688A
:1034800000225A657B68012283F8512000231846E8
:103490000837BD4680BD80B58AB000AFF860B9601E
:1034A0007A607B8001237B62FDF7C8FD3862FB6890
:1034B00093F85130FB77FB685B68BB617B88FB82CC
:1034C000FB7F012B0CD0BB69B3F5827F06D1FB6873
:1034D0009B68002B02D1FB7F042B01D002237FE1EC
:1034E000BB68002B05D07B68002B02D07B88002BAB
:1034F00001D1012374E1FB6893F85030012B01D115
:1035000002236DE1FB68012283F85020FB6893F8E9
:103510005130DBB2042B03D0FB68052283F8512025
:10352000FB6800225A65FB687A689A63FB687A88B0
:10353000DA87FB687A889A87FB68BA681A63FB683F
:103540007A88DA86FB687A889A86FB6800221A6491
:10355000FB6800225A64FB681B681B6803F0400389
:10356000402B07D0FB681B681A68FB681B6842F099
:1035700040021A60FB68DB68B3F5006F7ED1FB6820
:103580005B68002B02D0FB8A012B6CD1FB681B6BA4
:103590001A88FB681B68DA60FB681B6B9A1CFB6867
:1035A0001A63FB68DB8E9BB2013B9AB2FB68DA863A
:1035B00059E0FB681B689B6803F00203022B1BD1D8
:1035C000FB68DB8E9BB2002B16D07B6A012B13D1DC
:1035D000FB681B6B1A88FB681B68DA60FB681B6B57
:1035E0009A1CFB681A63FB68DB8E9BB2013B9AB2A4
:1035F000FB68DA8600237B62FB681B689B6803F02C
:103600000103012B19D1FB68DB8F9BB2002B14D077
:10361000FB681B68DA68FB689B6B92B21A80FB68D8
:103620009B6B9A1CFB689A63FB68DB8F9BB2013B28
:103630009AB2FB68DA8701237B62FDF7FFFC024642
:103640003B6AD31A3A6B9A420DD83B6BB3F1FF3FFA
:1036500009D0FB68012283F85120FB68002283F81F
:1036600050200323BCE0FB68DB8E9BB2002BA0D173
:10367000FB68DB8F9BB2002B9BD182E0FB685B6811
:10368000002B02D0FB8A012B71D1FB681A6BFB68FF
:103690001B680C3312781A70FB681B6B5A1CFB6892
:1036A0001A63FB68DB8E9BB2013B9AB2FB68DA8639
:1036B0005DE0FB681B689B6803F00203022B1CD1D2
:1036C000FB68DB8E9BB2002B17D07B6A012B14D1D9
:1036D000FB681A6BFB681B680C3312781A70FB6866
:1036E0001B6B5A1CFB681A63FB68DB8E9BB2013BA9
:1036F0009AB2FB68DA8600237B62FB681B689B68D2
:1037000003F00103012B19D1FB68DB8F9BB2002B67
:1037100014D0FB681B68DA68FB689B6BD2B21A7026
:10372000FB689B6B5A1CFB689A63FB68DB8F9BB240
:10373000013B9AB2FB68DA8701237B62FDF77EFCCE
:1037400002463B6AD31A3A6B9A4203D83B6BB3F1F9
:10375000FF3F02D13B6B002B09D1FB68012283F8AC
:103760005120FB68002283F85020032338E0FB68D7
:10377000DB8E9BB2002B9CD1FB68DB8F9BB2002BB6
:1037800097D13A6A396BF86800F0B6F80346002B17
:1037900008D0FB6820225A65FB68002283F850207D
:1037A00001231DE0FB689B68002B0AD100233B61CD
:1037B000FB681B68DB683B61FB681B689B683B61BF
:1037C0003B69FB68012283F85120FB68002283F8E3
:1037D0005020FB685B6D002B01D0012300E000232B
:1037E00018462837BD4680BD80B588B000AFF86068
:1037F000B9603B601346FB71FDF720FC0246BB6AD3
:103800009B1A3A681344FB61FDF718FCB861394B09
:103810001B685B011B0DFA6902FB03F37B6155E03A
:103820003B68B3F1FF3F51D0FDF708FC0246BB698E
:10383000D31AFA699A4202D9FB69002B3DD1FB6881
:103840001B685A68FB681B6822F0E0025A60FB683C
:103850005B68B3F5827F11D1FB689B68B3F5004FBD
:1038600004D0FB689B68B3F5806F07D1FB681B68C9
:103870001A68FB681B6822F040021A60FB689B6AAA
:10388000B3F5005F0FD1FB681B681A68FB681B6803
:1038900022F400521A60FB681B681A68FB681B68F8
:1038A00042F400521A60FB68012283F85120FB6841
:1038B000002283F85020032318E07B69002B02D1FB
:1038C0000023FB6102E07B69013B7B61FB681B68B5
:1038D0009A68BB681340BA689A420CBF0123002360
:1038E000DBB21A46FB799A429AD100231846203758
:1038F000BD4680BD0000002080B588B002AFF860F2
:10390000B9607A607B680093BB6801220221F86885
:10391000FFF76AFF0346002B07D0FB685B6D43F09F
:103920002002FB685A65032332E01B4B1B681B4ACD
:10393000A2FB03235B0D4FF47A7202FB03F37B615E
:10394000FB685B68B3F5827F12D17B680093BB682C
:1039500000228021F868FFF747FF0346002B16D0AE
:10396000FB685B6D43F02002FB685A6503230FE0A0
:103970007B69002B0AD07B69013B7B61FB681B687C
:103980009B6803F08003802BF2D000E000BF00238F
:1039900018461837BD4680BD00000020819F5E1686
:1039A00080B582B000AF78607B68002B01D1012325
:1039B00042E07B6893F84130DBB2002B06D17B6894
:1039C000002283F840207868FDF770F97B68242294
:1039D00083F841207B681B68DA687B681B6822F4E7
:1039E0000052DA60786800F02BF87B681B681A696F
:1039F0007B681B6822F490421A617B681B685A69D5
:103A00007B681B6822F02A025A617B681B68DA68AF
:103A10007B681B6842F40052DA607B6800225A64BB
:103A20007B68202283F841207B68202283F8422093
:103A30007B6800225A63002318460837BD4680BDC4
:103A40002DE9B04FC0B000AFC7F8F400D7F8F4309C
:103A50001B681B6923F44050D7F8F430D968D7F8B5
:103A6000F4301A6840EA01031361D7F8F4309A6819
:103A7000D7F8F4301B691A43D7F8F4305B691A435E
:103A8000D7F8F430DB691343C7F8F830D7F8F430CF
:103A90001B68DB6823F4164121F00C01D7F8F430E1
:103AA0001A68D7F8F8300B43D360D7F8F4301B68A6
:103AB0005B6923F44070D7F8F4309969D7F8F43093
:103AC0001A6840EA01035361D7F8F4301A688F4B43
:103AD0009A4205D0D7F8F4301A688D4B9A4204D137
:103AE000FFF73CFCC7F8FC0003E0FFF723FCC7F836
:103AF000FC00D7F8F430DB69B3F5004F40F00C81DF
:103B0000D7F8FC300022C7F8E830C7F8EC20D7E936
:103B10003A4522462B469118B9655B41FB65D7E9CA
:103B20001623214612EB0108294643EB01094FF009
:103B300000024FF000034FEAC90343EA58734FEA0B
:103B4000C80290469946234618EB0303C7F8E030B5
:103B50002B4649EB0303C7F8E430D7F8F4305B6831
:103B60000022C7F8D830C7F8DC20D7E936120B4658
:103B7000DB183B65134642EB03037B65D7E914234F
:103B8000D7E93801FCF77CFB02460B46614BA3FBEF
:103B900002235B091C01D7F8FC300022C7F8D030A3
:103BA000C7F8D420D7E9348942464B469118B96406
:103BB0005B41FB64D7E91223414612EB010A4946F7
:103BC00043EB010B4FF000024FF000034FEACB0331
:103BD00043EA5A734FEACA0292469B4643461AEB9F
:103BE0000303C7F8C8304B464BEB0303C7F8CC3090
:103BF000D7F8F4305B680022C7F8C030C7F8C4209B
:103C0000D7E930120B46DB183B64134642EB030343
:103C10007B64D7E91023D7E93201FCF731FB024678
:103C20000B4611463B4BA3FB01235B09642202FBBD
:103C300003F3CB1ADB0003F13202364BA3FB022362
:103C40005B095B0003F4F8731C44D7F8FC300022D6
:103C5000C7F8B830C7F8BC20D7E92E8942464B4692
:103C60009118B9635B41FB63D7E90E2341465118B4
:103C7000396349464B417B634FF000024FF000032C
:103C8000D7E90CAB5946CB00514643EA5173514634
:103C9000CA0010461946034642469B18C7F8B03082
:103CA0004B460A4642EB0303C7F8B430D7F8F4306A
:103CB0005B680022C7F8A830C7F8AC20D7E92A1201
:103CC0000B46DB18BB62134642EB0303FB62D7E9EA
:103CD0000A23D7E92C01FCF7D3FA02460B460D4B19
:103CE000A3FB02135B09642101FB03F3D31ADB007E
:103CF0003233084AA2FB03235B0903F00702D7F81B
:103D0000F4301B6822449A6006E100BF00100140B5
:103D1000001401401F85EB51D7F8FC300022C7F892
:103D2000A030C7F8A420D7E9288942464B4691180D
:103D300039625B417B62D7E9082341465418494602
:103D400043EB01054FF000024FF00003EB0043EAA4
:103D50005473E20014461D464346E318C7F89830F2
:103D60004B4645EB0303C7F89C30D7F8F4305B684B
:103D70000022C7F89030C7F894204FF000024FF0AF
:103D80000003D7E9244529468B00214643EA917375
:103D900021468A00D7E92601FCF772FA02460B4653
:103DA000604BA3FB02235B091C01D7F8FC30002207
:103DB000C7F88830C7F88C20D7E9228942464B469D
:103DC0009118B9615B41FB61D7E90623414651185F
:103DD000396149464B417B614FF000024FF00003CF
:103DE000D7E904AB5946CB00514643EA51735146DB
:103DF000CA0010461946034642469B18C7F8803051
:103E00004B460A4642EB0303C7F88430D7F8F43038
:103E10005B680022BB67FA674FF000024FF00003B7
:103E2000D7E91E8949468B00414643EA91734146D2
:103E30008A00D7E92001FCF723FA02460B46114617
:103E4000384BA3FB01235B09642202FB03F3CB1A6B
:103E50001B013233334AA2FB03235B0903F0F00357
:103E60001C44D7F8FC3000223B677A67D7E91C89ED
:103E700042464B469118B9605B41FB60D7E902238B
:103E800041465118396049464B417B604FF0000272
:103E90004FF00003D7E900AB5946CB00514643EA47
:103EA00051735146CA0010461946034642469B18B4
:103EB000BB664B460A4642EB0303FB66D7F8F43079
:103EC0005B6800223B667A664FF000024FF0000309
:103ED000D7E9188949468B00414643EA9173414628
:103EE0008A00D7E91A01FCF7CBF902460B460D4BC5
:103EF000A3FB02135B09642101FB03F3D31A1B012B
:103F00003233084AA2FB03235B0903F00F02D7F800
:103F1000F4301B6822449A6000BF07F58077BD46E5
:103F2000BDE8B08F1F85EB5180B582B000AF7860DF
:103F30007B68002B01D1012333E07B6893F83D308F
:103F4000DBB2002B06D17B68002283F83C20786826
:103F5000FCF764FE7B68022283F83D20786800F05D
:103F600025F87B681B681A697B681B6822F480420D
:103F70001A617B681B685A697B681B6822F02A02F9
:103F80005A617B681B68DA687B681B6842F40052E0
:103F9000DA607B6800221A647B68012283F83D2086
:103FA000002318460837BD4680BD00002DE9B04FFC
:103FB000C6B000AFC7F80C010023C7F81431D7F81A
:103FC0000C311B68D968D7F80C311A6821F00C0342
:103FD000D360D7F80C311B681B69C7F81431D7F8C8
:103FE000143123F47C53C7F81431D7F80C319A6993
:103FF000D7F80C31DB691A43D7F80C311B6A1A4326
:10400000D7F80C31DB681A43D7F81431134343F463
:104010000063C7F81431D7F80C311A68D7F8143197
:104020001361D7F80C311B68DB68C7F81431D7F877
:10403000143123F4164323F00C03C7F81431D7F8D6
:104040000C319A68D7F80C311B691A43D7F80C3138
:104050005B691A43D7F81431134343F40043C7F89C
:104060001431D7F80C311A68D7F81431D360D7F867
:104070000C311B685969D7F80C311A6821F4407368
:104080005361D7F80C311A688B4B9A4206D0D7F897
:104090000C311A68894B9A4240F01481FFF75EF99F
:1040A000C7F81001D7F810310022C7F80031C7F85F
:1040B0000421D7E9404522462B46911839675B41D8
:1040C0007B67D7E91C23214612EB0108294643EB05
:1040D00001094FF000024FF000034FEAC90343EA21
:1040E00058734FEAC80290469946234618EB0303DB
:1040F000C7F8F8302B4649EB0303C7F8FC30D7F874
:104100000C315B680022C7F8F030C7F8F420D7E91B
:104110003C120B46DB18BB66134642EB0303FB66FF
:10412000D7E91A23D7E93E01FCF7AAF802460B4665
:10413000634BA3FB02235B091C01D7F8103100225B
:10414000C7F8E830C7F8EC20D7E93A8942464B4631
:10415000911839665B417B66D7E9182341465118AF
:10416000B96549464B41FB654FF000024FF0000333
:10417000D7E916AB5946CB00514643EA5173514635
:10418000CA0010461946034642469B18C7F8E0305D
:104190004B460A4642EB0303C7F8E430D7F80C312C
:1041A0005B680022C7F8D830C7F8DC20D7E93612A0
:1041B0000B46DB183B65134642EB03037B65D7E9EF
:1041C0001423D7E93801FCF75BF802460B46114689
:1041D0003B4BA3FB01235B09642202FB03F3CB1AD5
:1041E000DB0003F13202364BA3FB02235B095B00C9
:1041F00003F4F8731C44D7F810310022C7F8D0300C
:10420000C7F8D420D7E9348942464B469118B9649F
:104210005B41FB64D7E91223414651183964494692
:104220004B417B644FF000024FF00003D7E910AB25
:104230005946CB00514643EA51735146CA001046D5
:104240001946034642469B18C7F8C8304B460A46F3
:1042500042EB0303C7F8CC30D7F80C315B6800227F
:10426000C7F8C030C7F8C420D7E930120B46DB18B6
:10427000BB63134642EB0303FB63D7E90E23D7E985
:104280003201FBF7FDFF02460B460D4BA3FB021369
:104290005B09642101FB03F3D31ADB003233084AC4
:1042A000A2FB03235B0903F00702D7F80C311B685C
:1042B00022449A6009E100BF00100140001401404F
:1042C0001F85EB51FFF736F8C7F81001D7F810310A
:1042D0000022C7F8B830C7F8BC20D7E92E8942467B
:1042E0004B46911839635B417B63D7E90C23414608
:1042F0005418494643EB01054FF000024FF000030C
:10430000EB0043EA5473E20014461D464346E318AB
:10431000C7F8B0304B4645EB0303C7F8B430D7F8C5
:104320000C315B680022C7F8A830C7F8AC20D7E989
:104330002A120B46DB18BB62134642EB0303FB62F7
:10434000D7E90A23D7E92C01FBF79AFF02460B466F
:10435000614BA3FB02235B091C01D7F8103100223B
:10436000C7F8A030C7F8A420D7E9288942464B46B1
:10437000911839625B417B62D7E90823414612EB11
:10438000010A494643EB010B4FF000024FF00003D6
:104390004FEACB0343EA5A734FEACA0292469B465E
:1043A00043461AEB0303C7F898304B464BEB030325
:1043B000C7F89C30D7F80C315B680022C7F8903002
:1043C000C7F89420D7E924120B46DB18BB611346CB
:1043D00042EB0303FB61D7E90623D7E92601FBF78C
:1043E0004FFF02460B4611463B4BA3FB01235B09E3
:1043F000642202FB03F3CB1ADB0003F13202364BDB
:10440000A3FB02235B095B0003F4F8731C44D7F899
:1044100010310022C7F88830C7F88C20D7E92289EC
:1044200042464B46911839615B417B61D7E90423D1
:1044300041465118B96049464B41FB604FF00002BC
:104440004FF00003D7E902AB5946CB00514643EA8F
:1044500051735146CA0010461946034642469B18FE
:10446000C7F880304B460A4642EB0303C7F8843056
:10447000D7F80C315B680022BB67FA67D7E91E12D8
:104480000B46DB183B60134642EB03037B60D7E926
:104490000023D7E92001FBF7F3FE02460B460E4B43
:1044A000A3FB02135B09642101FB03F3D31ADB00B6
:1044B0003233094AA2FB03235B0903F00702D7F852
:1044C0000C311B6822449A6000BF00BF07F58C774F
:1044D000BD46BDE8B08F00BF1F85EB5184B080B5ED
:1044E00084B000AF786007F11C0080E80E0097F8F8
:1044F0002130012B23D17B689B6B23F480327B68B6
:104500009A637B68DB6823F4840323F040037A68B2
:10451000D3607B68DB6823F440127B68DA6097F82D
:104520002830012B05D17B68DB6843F480127B685F
:10453000DA60786801F0E8FA0346FB731BE07B68F9
:10454000DB6843F040027B68DA60786801F0DCFAEF
:104550000346FB7397F82530002B06D17B689B6BD5
:1045600043F480327B689A6305E07B689B6B23F49D
:1045700080327B689A63BB7F012B0BD17B689B6881
:1045800043F006027B689A607B689B6843F02002D8
:104590007B689A60FB7B18461037BD46BDE88040BB
:1045A00004B0704780B487B000AFF860B9601346BC
:1045B000FB71FB79022B65D1BB68414A934206D956
:1045C000BB68404A934202D20F237B6162E0BB6822
:1045D0003C4A934206D3BB683B4A934202D20E2325
:1045E0007B6157E0BB68384A934206D3BB68374AC1
:1045F000934202D20D237B614CE0BB68334A934265
:1046000006D3BB68324A934202D80C237B6141E057
:10461000BB682F4A934206D9BB682E4A934202D800
:104620000B237B6136E0BB682A4A934206D9BB68FC
:10463000294A934202D80A237B612BE0BB68264AB1
:10464000934206D9BB68254A934202D209237B6173
:1046500020E0BB68214A934206D3BB68204A9342BC
:1046600002D808237B6115E0BB681D4A934206D936
:10467000BB681C4A934202D207237B610AE00623EF
:104680007B6107E0FB79002B02D109237B6101E00C
:1046900009237B61FB68DB6823F47052FB68DA60F6
:1046A000FB68DA687B699B0203F470531A43FB686A
:1046B000DA60002318461C37BD465DF8047B70475E
:1046C000BFACD800C0E1E4000024F4008073060110
:1046D0009F491A01FF2C31013FA44C0100366E01A5
:1046E0001FABA6010048E80180B483B000AF78603A
:1046F0007B689B6843F001027B689A600023184640
:104700000C37BD465DF8047B704780B483B000AFC2
:1047100078607B689B6823F001027B689A600023C5
:1047200018460C37BD465DF8047B704780B584B0F1
:1047300000AF78600B46FB700023FB607B68DB6892
:1047400023F0C0427B68DA60FB78012B15D17B68CF
:10475000DB6843F000527B68DA600A20FCF77AFCE1
:10476000FB680A33FB60786801F03FF90346012BD0
:104770001ED0FB68C72BF0D91AE0FB78002B15D1AF
:104780007B68DB6843F080427B68DA600A20FCF7D4
:1047900061FCFB680A33FB60786801F026F9034688
:1047A000002B05D0FB68C72BF0D901E0012305E001
:1047B000FB68C82B01D1012300E000231846103705
:1047C000BD4680BD84B080B586B000AF786007F18B
:1047D000240080E80E000023FB757B68FB6000234B
:1047E0003B6109E07A683B6940339B001344002237
:1047F0005A603B6901333B613B690E2BF2D997F854
:104800002E30002B1CD1FB6803F500635B68FA684F
:1048100002F5006243F0020353607B689B6B43F434
:1048200000127B689A637B689B6B23F400227B6891
:104830009A637B689B6B23F480227B689A630BE00E
:104840007B689B6B23F400127B689A637B689B6B8D
:1048500043F400227B689A63FB6803F560631A46A1
:104860000023136097F82930012B0DD197F82730DA
:10487000002B04D10021786800F068F908E00121DC
:10488000786800F063F903E00321786800F05EF9CE
:104890001021786800F0FAF80346002B01D00123BC
:1048A000FB75786800F024F90346002B01D0012342
:1048B000FB75FB6803F500631A4600231361FB6870
:1048C00003F500631A4600235361FB6803F5006398
:1048D0001A460023D36100233B6143E03B695A0140
:1048E000FB68134403F510631B6803F00043B3F146
:1048F000004F18D13B69002B0AD13B695A01FB6874
:10490000134403F510631A464FF00063136013E07D
:104910003B695A01FB68134403F510631A464FF0D4
:104920009043136008E03B695A01FB68134403F5A8
:1049300010631A46002313603B695A01FB68134455
:1049400003F510631A46002313613B695A01FB68A3
:10495000134403F510631A464FF67F3393603B69A7
:1049600001333B6197F824301A463B699342B5D333
:1049700000233B6143E03B695A01FB68134403F5A4
:1049800030631B6803F00043B3F1004F18D13B695B
:10499000002B0AD13B695A01FB68134403F53063CD
:1049A0001A464FF00063136013E03B695A01FB683D
:1049B000134403F530631A464FF09043136008E048
:1049C0003B695A01FB68134403F530631A46002320
:1049D00013603B695A01FB68134403F530631A46C0
:1049E000002313613B695A01FB68134403F53063EC
:1049F0001A464FF67F3393603B6901333B6197F86A
:104A000024301A463B699342B5D3FB6803F5006333
:104A10001B69FA6802F5006223F4807313617B68F6
:104A200000229A617B686FF080425A6197F82630C5
:104A3000002B05D17B689B6943F010027B689A616B
:104A40007B689A69104B13437A68936197F82A3010
:104A5000002B05D07B689B6943F008027B689A6154
:104A600097F82E30012B07D17B689B6943F0804378
:104A700043F004037A689361FB7D18461837BD46FE
:104A8000BDE8804004B0704700383C8080B485B0F9
:104A900000AF786039600023FB60FB680133FB6086
:104AA000FB68B3F1706F01D903231BE07B681B69BE
:104AB000002BF2DA0023FB603B689B0143F02002ED
:104AC0007B681A61FB680133FB60FB68B3F1706FB0
:104AD00001D9032306E07B681B6903F02003202B28
:104AE000F0D0002318461437BD465DF8047B7047AC
:104AF00080B485B000AF78600023FB60FB680133B1
:104B0000FB60FB68B3F1706F01D9032318E07B6889
:104B10001B69002BF2DA0023FB607B6810221A610C
:104B2000FB680133FB60FB68B3F1706F01D90323AD
:104B300006E07B681B6903F01003102BF0D0002304
:104B400018461437BD465DF8047B704780B485B0C5
:104B500000AF78600B46FB707B68FB60FB6803F579
:104B600000631A68FB78F96801F5006113430B6074
:104B7000002318461437BD465DF8047B704780B4A7
:104B800087B000AF78607B683B613B6903F50063E9
:104B90009B6803F00603FB60FB68002B02D1002337
:104BA000FB750AE0FB68022B02D0FB68062B02D1E2
:104BB0000223FB7501E00F23FB75FB7D18461C37B4
:104BC000BD465DF8047B704780B485B000AF786067
:104BD00039607B68FB603B681B78BB603B685B7837
:104BE000012B3AD1FB6803F50063DA693B681B7857
:104BF00003F00F03012101FA03F39BB2F96801F5F9
:104C000000611343CB61BB685A01FB68134403F591
:104C100010631B6803F40043002B55D1BB685A0195
:104C2000FB68134403F510631A683B689B68C3F381
:104C30000A013B681B799B041943BB689B050B4326
:104C40001343BA685101FA680A4402F5106243F04E
:104C5000805343F40043136036E0FB6803F50063C0
:104C6000DA693B681B7803F00F03012101FA03F3B3
:104C70001B04F96801F500611343CB61BB685A015D
:104C8000FB68134403F530631B6803F40043002BF7
:104C90001AD1BB685A01FB68134403F530631A68E4
:104CA0003B689B68C3F30A013B681B799B040B4379
:104CB0001343BA685101FA680A4402F5306243F0BE
:104CC000805343F400431360002318461437BD4655
:104CD0005DF8047B7047000080B485B000AF786059
:104CE00039607B68FB603B681B78BB603B685B7826
:104CF000012B61D1BB685A01FB68134403F51063B3
:104D00001B6803F00043B3F1004F1FD1BB685A0189
:104D1000FB68134403F510631B68BA685101FA6815
:104D20000A4402F5106243F000631360BB685A0145
:104D3000FB68134403F510631B68BA685101FA68F5
:104D40000A4402F5106243F080431360FB6803F5E8
:104D50000063DA6B3B681B7803F00F03012101FA53
:104D600003F39BB2DB43F96801F500611340CB63A9
:104D7000FB6803F50063DA693B681B7803F00F03F7
:104D8000012101FA03F39BB2DB43F96801F50061ED
:104D90001340CB61BB685A01FB68134403F51063F1
:104DA0001A68BB685901FB680B4403F51063194688
:104DB000354B13400B6060E0BB685A01FB6813443D
:104DC00003F530631B6803F00043B3F1004F1FD1BC
:104DD000BB685A01FB68134403F530631B68BA686B
:104DE0005101FA680A4402F5306243F0006313602F
:104DF000BB685A01FB68134403F530631B68BA684B
:104E00005101FA680A4402F5306243F080431360AE
:104E1000FB6803F50063DA6B3B681B7803F00F0354
:104E2000012101FA03F31B04DB43F96801F500617A
:104E30001340CB63FB6803F50063DA693B681B78BA
:104E400003F00F03012101FA03F31B04DB43F968AC
:104E500001F500611340CB61BB685A01FB68134444
:104E600003F530631A68BB685901FB680B4403F50E
:104E700030631946054B13400B6000231846143766
:104E8000BD465DF8047B7047007833EC0078F3EFA3
:104E900080B58AB002AFF860B9601346FB71FB6859
:104EA000FB61BB681B78BB61BB685B78012B40F082
:104EB0007F81BB681B69002B32D1BB695A01FB693A
:104EC000134403F510631B69BA695101FA690A4476
:104ED00002F5106223F0FF5323F4C0131361BB6982
:104EE0005A01FB69134403F510631B69BA69510148
:104EF000FA690A4402F5106243F400231361BB69A6
:104F00005A01FB69134403F510631B69BA69510127
:104F1000FA690A4402F51062DB0CDB04136197E0C6
:104F2000BB695A01FB69134403F510631B69BA6935
:104F30005101FA690A4402F51062DB0CDB041361CB
:104F4000BB695A01FB69134403F510631B69BA6915
:104F50005101FA690A4402F5106223F0FF5323F469
:104F6000C0131361BB69002B1AD1BB681A69BB68F7
:104F70009B689A4203D9BB689A68BB681A61BB698F
:104F80005A01FB69134403F510631B69BA695101A7
:104F9000FA690A4402F5106243F40023136144E005
:104FA000BB681A69BB689B6813445A1EBB689B6840
:104FB000B2FBF3F3FB82BB695A01FB69134403F5AF
:104FC00010631A69FB8AD904A44B0B40B9694801E4
:104FD000F969014401F5106113430B61BB681B794A
:104FE000012B22D1BB695A01FB69134403F51063FD
:104FF0001B69BA695101FA690A4402F5106223F08B
:10500000C0431361BB695A01FB69134403F5106384
:105010001A69FB8A5B0703F0C043B9694801F96963
:10502000014401F5106113430B61BB695A01FB692F
:10503000134403F510631A69BB681B69C3F31203B9
:10504000B9694801F969014401F5106113430B6125
:10505000FB79012B4BD1BB68DB69002B09D0BB6905
:105060005A01FB69134403F510631A46BB68DB69F8
:105070005361BB681B79012B28D1FB6903F50063E1
:105080009B6803F48073002B10D1BB695A01FB6944
:10509000134403F510631B68BA695101FA690A44A5
:1050A00002F5106243F0005313600FE0BB695A0130
:1050B000FB69134403F510631B68BA695101FA696F
:1050C0000A4402F5106243F080531360BB695A0131
:1050D000FB69134403F510631B68BA695101FA694F
:1050E0000A4402F5106243F00443136066E1BB69B1
:1050F0005A01FB69134403F510631B68BA69510137
:10510000FA690A4402F5106243F004431360BB6875
:105110001B79012B15D0BB681B69002B00F04E8159
:10512000FB6903F500635A6BBB681B7803F00F0340
:10513000012101FA03F3F96901F5006113434B639F
:105140003CE1FB6903F500639B6803F48073002B6B
:1051500010D1BB695A01FB69134403F510631B6846
:10516000BA695101FA690A4402F5106243F000532A
:1051700013600FE0BB695A01FB69134403F5106328
:105180001B68BA695101FA690A4402F5106243F0DA
:1051900080531360BB68D968BB681A78BB681B6909
:1051A00098B2FB7900930346F86800F0B9F905E17D
:1051B000BB695A01FB69134403F530631B69BA6983
:1051C0005101FA690A4402F53062DB0CDB04136119
:1051D000BB695A01FB69134403F530631B69BA6963
:1051E0005101FA690A4402F5306223F0FF5323F4B7
:1051F000C0131361BB69002B32D1BB681B69002B44
:1052000003D0BB689A68BB681A61BB689A68BB68C0
:105210001A62BB695A01FB69134403F530631A69CA
:10522000BB681B6AC3F31203B9694801F9690144F9
:1052300001F5306113430B61BB695A01FB691344EB
:1052400003F530631B69BA695101FA690A4402F532
:10525000306243F40023136162E000BF0000F81FD6
:10526000BB681B69002B23D1BB695A01FB6913443E
:1052700003F530631A69BB689B68C3F31203B9690D
:105280004801F969014401F5306113430B61BB69C1
:105290005A01FB69134403F530631B69BA69510174
:1052A000FA690A4402F5306243F40023136137E0DF
:1052B000BB681A69BB689B6813445A1EBB689B682D
:1052C000B2FBF3F3FB82BB689B68FA8A03FB02F232
:1052D000BB681A62BB695A01FB69134403F530636A
:1052E0001A69FB8AD904384B0B40B9694801F9693E
:1052F000014401F5306113430B61BB695A01FB693D
:10530000134403F530631A69BB681B6AC3F31203C5
:10531000B9694801F969014401F5306113430B6132
:10532000FB79012B0DD1BB68DB68002B09D0BB6872
:10533000D968BB695A01FB69134403F530630A4617
:105340005A61BB681B79012B28D1FB6903F5006307
:105350009B6803F48073002B10D1BB695A01FB6971
:10536000134403F530631B68BA695101FA690A44B2
:1053700002F5306243F0005313600FE0BB695A013D
:10538000FB69134403F530631B68BA695101FA697C
:105390000A4402F5306243F080531360BB695A013E
:1053A000FB69134403F530631B68BA695101FA695C
:1053B0000A4402F5306243F00443136000231846A8
:1053C0002037BD4680BD00BF0000F81F80B487B005
:1053D00000AF786039600023FB600023FB757B68B9
:1053E0003B613B685B78012B4AD13B681B785A01D3
:1053F0003B69134403F510631B6803F00043B3F1EA
:10540000004F40F086803B681B785A013B6913448B
:1054100003F510631B683A68127851013A690A442F
:1054200002F5106243F0006313603B681B785A0179
:105430003B69134403F510631B683A681278510105
:105440003A690A4402F5106243F080431360FB6836
:105450000133FB60FB6842F21072934202D90123D0
:10546000FB7556E03B681B785A013B69134403F512
:1054700010631B6803F00043B3F1004FE7D048E02E
:105480003B681B785A013B69134403F530631B6882
:1054900003F00043B3F1004F3BD13B681B785A0146
:1054A0003B69134403F530631B683A681278510175
:1054B0003A690A4402F5306243F0006313603B68C6
:1054C0001B785A013B69134403F530631B683A6843
:1054D000127851013A690A4402F5306243F0804380
:1054E0001360FB680133FB60FB6842F21072934269
:1054F00002D90123FB750CE03B681B785A013B691C
:10550000134403F530631B6803F00043B3F1004F0D
:10551000E7D0FB7D18461C37BD465DF8047B70471D
:1055200080B489B000AFF860B96011461A460B46E6
:10553000FB711346BB80FB687B61BB68FB6197F81E
:105540002830002B23D1BB8803339B083B61002309
:10555000BB6118E0FB791A037B69134403F58053A0
:105560001A46FB691B681360FB690133FB61FB6929
:105570000133FB61FB690133FB61FB690133FB61B3
:10558000BB690133BB61BA693B699A42E2D300232C
:1055900018462437BD465DF8047B704780B48BB055
:1055A00000AFF860B9601346FB80FB68BB61BB6865
:1055B0007B62FB889B089BB27B61FB8803F0030343
:1055C000FB8300233B6214E0BB6903F580531A6838
:1055D0007B6A1A607B6A01337B627B6A01337B6280
:1055E0007B6A01337B627B6A01337B623B6A0133F6
:1055F0003B623A6A7B699A42E6D3FB8B002B1ED052
:1056000000233B62BB6903F580531A4607F1100380
:1056100012681A603A693B6ADBB2DB0022FA03F3D4
:10562000DAB27B6A1A703B6A01333B627B6A0133F0
:105630007B62FB8B013BFB83FB8B002BEAD17B6AFC
:1056400018462C37BD465DF8047B704780B485B0A2
:1056500000AF786039607B68FB603B681B78BB609B
:105660003B685B78012B2CD1BB685A01FB68134463
:1056700003F510631B68002B12DBBB68002B0FD0F7
:10568000BB685A01FB68134403F510631B68BA68D2
:105690005101FA680A4402F5106223F08043136056
:1056A000BB685A01FB68134403F510631B68BA68B2
:1056B0005101FA680A4402F5106243F400131360C2
:1056C0002BE0BB685A01FB68134403F530631B6889
:1056D000002B12DBBB68002B0FD0BB685A01FB68A4
:1056E000134403F530631B68BA685101FA680A4431
:1056F00002F5306223F080431360BB685A01FB68F7
:10570000134403F530631B68BA685101FA680A4410
:1057100002F5306243F40013136000231846143777
:10572000BD465DF8047B704780B485B000AF7860FB
:1057300039607B68FB603B681B78BB603B685B78CB
:10574000012B28D1BB685A01FB68134403F5106391
:105750001B68BA685101FA680A4402F5106223F422
:10576000001313603B681B79032B03D03B681B7944
:10577000022B38D1BB685A01FB68134403F5106350
:105780001B68BA685101FA680A4402F5106243F0D6
:105790008053136027E0BB685A01FB68134403F58C
:1057A00030631B68BA685101FA680A4402F5306236
:1057B00023F4001313603B681B79032B03D03B6871
:1057C0001B79022B0FD1BB685A01FB68134403F508
:1057D00030631B68BA685101FA680A4402F5306206
:1057E00043F080531360002318461437BD465DF81C
:1057F000047B704780B485B000AF78600B46FB70C7
:105800007B68FB60FB6803F500631B68FA6802F5C0
:10581000006223F4FE631360FB6803F500631A68FB
:10582000FB781B0103F4FE63F96801F50061134383
:105830000B60002318461437BD465DF8047B7047A3
:1058400080B485B000AF78607B68FB60FB6803F5CF
:1058500060631B68FA6802F5606223F0030313605B
:10586000FB6803F500635B68FA6802F5006223F0E9
:1058700002035360002318461437BD465DF8047BCD
:10588000704780B485B000AF78607B68FB60FB68D0
:1058900003F560631B68FA6802F5606223F0030396
:1058A0001360FB6803F500635B68FA6802F5006249
:1058B00043F002035360002318461437BD465DF8D9
:1058C000047B704780B485B000AF78607B685B690B
:1058D000FB607B689B69FA681340FB60FB681846B5
:1058E0001437BD465DF8047B704780B485B000AFC7
:1058F00078607B68FB60FB6803F500639B69BB60B5
:10590000FB6803F50063DB69BA681340BB60BB68E2
:105910001B0C18461437BD465DF8047B704780B4F5
:1059200085B000AF78607B68FB60FB6803F50063BF
:105930009B69BB60FB6803F50063DB69BA681340D1
:10594000BB60BB689BB218461437BD465DF8047B4C
:10595000704780B485B000AF78600B46FB707B6801
:10596000FB60FB785A01FB68134403F530639B68C6
:10597000BB60FB6803F500635B69BA681340BB60FA
:10598000BB6818461437BD465DF8047B704780B489
:1059900087B000AF78600B46FB707B687B617B69EA
:1059A00003F500631B693B617B6903F500635B6B77
:1059B000FB60FB7803F00F03FA6822FA03F3DB01C4
:1059C000DBB23A6913433B61FB785A017B691344AC
:1059D00003F510639B683A691340BB60BB681846C7
:1059E0001C37BD465DF8047B704780B483B000AFC0
:1059F00078607B685B6903F0010318460C37BD468D
:105A00005DF8047B704780B485B000AF78607B6838
:105A1000FB60FB6803F510631B68FA6802F510620F
:105A200023F4FF6323F007031360FB6803F50063AF
:105A30005B68FA6802F5006243F4807353600023E8
:105A400018461437BD465DF8047B704780B487B0B4
:105A500000AFF8600B467A60FB72FB687B61FB6805
:105A60003C3304331B683B613B69264A93420AD9A5
:105A70007B6903F530631B6803F00043B3F1004F0B
:105A800001D1002337E07B6903F530631A46002318
:105A900013617B6903F530631B697A6902F5306233
:105AA00043F4002313617B6903F530631B697A6952
:105AB00002F5306243F0180313617B6903F530632C
:105AC0001B697A6902F5306243F0C0431361FB7AC7
:105AD000012B0FD17B6903F530631A467B68536154
